:040000000AEF1CF0F7
:1000080000C01EF001C01DF002C01CF003C01BF0B0
:1000180004C01AF005C019F008C018F009C017F09C
:100028000AC016F00BC015F0E1CF23F0E2CF24F0A0
:10003800E9CF21F0EACF22F0F3CF1FF0F4CF20F080
:100048009EA007D09E90A20ECF6E400ECE6EFCEC06
:100058000EF01FC0F3FF20C0F4FF1EC000F01DC04B
:1000680001F01CC002F01BC003F01AC004F019C054
:1000780005F018C008F017C009F016C00AF015C03E
:100088000BF021C0E9FF22C0EAFF23C0E1FF24C032
:04009800E2FF110072
:0E009C00030E0D6E0D2EFED7000000001200A8
:1000AA00026AC7B408D01F0EC514016E0150000AB7
:0C00BA0002E1FF0E026E02C000F0120016
:0E00C600C70E0D6E0D2EFED7000000001200BA
:1000D400560E0C6EB50E0D6E0D2EFED70C2EFCD7E3
:0600E40000000000120004
:1000EA000B6A0A6A096A00500402F4CF09F0F3CFD6
:1000FA0008F001500502F4CF0BF0F3CF0AF00050DC
:10010A000502F3500926F4500A22E86A0B2201502C
:10011A000402F3500926F4500A22E86A0B2208C0A6
:10012A0000F009C001F00AC002F00BC003F012008F
:10013A0003018551FF0AD8B47BD00501406B4051B9
:10014A000301855DD8A074D040C500F0000E016E91
:10015A00050E046E000E056EC3DF200E0026050E86
:10016A00012200C055F101C056F1000EF2BE010E87
:10017A000501396FF29E030E0024E96E000E01207C
:10018A00EA6EEECF01F0EECF02F0000E006E0250E2
:10019A00005C02E1015000083EE255C1E9FF56C188
:1001AA00EAFFEECF01F00150020A0CE1010E010153
:1001BA005525E16E000E5621E26E010EE66E000E26
:1001CA00E66E21D00101010E5525026E000E562160
:1001DA00036E030E5525D96E000E5621DA6E02C043
:1001EA00E9FF03C0EAFFEECF00F0EECF01F0DE50E8
:1001FA000026DE50012202C0E1FF03C0E2FF00C078
:10020A00E6FF01C0E6FF030E5525E16E000E5621FA
:10021A00E26EE66AE66A050139B102D0F29E01D0C1
:10022A00F28E40510301851903E00501402B87D75F
:10023A0005013F51FF0AD8B480D0406B40513F5D61
:10024A00D8A07BD040C500F0000E016E280E046EC7
:10025A00000E056E45DF8B0E0026030E012200C03C
:10026A0057F101C058F1220E0024E96E000E012058
:10027A00EA6EEE50030A5BE1260E01015725D96E9C
:10028A00000E5821DA6EDECF00F0000E016E050E68
:10029A00046E000E056E24DF200E0026050E0122D4
:1002AA00010E0024E96E000E0120EA6EEECF01F085
:1002BA00EECF02F0000E006E0250005C02E1015027
:1002CA00000835E2260E5725D96E000E5821DA6E3F
:1002DA00DECF00F0000E016E050E046E000E056EF4
:1002EA00FFDE200E0026050E0122010E0024026EFA
:1002FA00000E0120036E02C0E9FF03C0EAFFEECF41
:10030A0000F0EECF01F0010E005E000E015A02C0AD
:10031A00E1FF03C0E2FF00C0E6FF01C0E6FF220ED4
:10032A005725E16E000E5821E26E040EE66E0501B5
:0C033A0040513F1902E0402B81D7120017
:10034600086A080E0C6E003408360450085ED8B0F1
:0E03560002D00826D89000360C2EF5D71200E3
:10036400050171BF02D08C9E01D08C8E71BD02D06C
:100374008C9C01D08C8C71BB02D08C9A01D08C8A5D
:1003840071B902D08C9801D08C880101DAB102D005
:100394008B8001D08B908B827FDE8B92050171B7AD
:1003A40002D08C9E01D08C8E71B502D08C9C01D071
:1003B4008C8C71B302D08C9A01D08C8A71B102D02A
:1003C4008C9801D08C880101DAB102D08B8001D0E5
:1003D4008B908B8261DE8B92DAA102D079DE01D020
:0403E40070DE1200B5
:1003E8009E9671C5C9FFC7A402D00000FCD79EB66F
:1003F80002D00000FCD7C5BC02D0016A03D0C58476
:0A040800020E016E01C000F01200A8
:100412000501726B736B48DE0050000A01E00AD0DE
:1004220005017351120A02E18E0E721903E0724B3A
:10043200732BF1D70501120E735D02E18F0E725D0F
:1004420003E37B0E716F06D0C580C5A002D0000009
:0A045200FCD7716B71C500F01200B9
:10045C0071C504F072C505F004C0E9FF05C0EAFFE0
:10046C00EE50000A03E0044A052AF6D70501715143
:10047C00045C026E72510558036E02C000F003C09A
:04048C0001F0120069
:100490000134083609360450085E0550D8A0053CE2
:1004A000095E003601360F0E0C6E0134083609362F
:1004B000045000A006D0085E0550D8A0053C095E97
:1004C00005D008260550D8B0053C0926003601366F
:1004D0000C2EEBD700B006D0045008260550D8B03B
:0804E000053C09260000120092
:1004E80071C501F072C502F073C503F074C504F05C
:1004F800000E0501761902E1000E751913E0010ED0
:10050800755F000E765B03C0E9FF04C0EAFF01C017
:10051800E1FF02C0E2FFEECFE6FF014A022A034AEA
:06052800042AE6D71200D0
:10052E00000E0006015ADECFE6FF0006015AFBE27E
:02053E001200A9
:10054000020E0C6E350E0D6E0D2EFED70C2EFCD746
:0605500000000000120093
:0E055600270E0D6E0D2EFED7000000001200C5
:0C056400C582C5A202D00000FCD7120026
:10057000080E0C6EC10E0D6E0D2EFED70C2EFCD784
:0605800000000000120063
:1005860071C500F00032009E0032009E0032009ECF
:100596000032009E72C5E1FF73C5E2FF300E0024F3
:1005A600E66E0501724B732B0F0E7115006E72C548
:0E05B600E1FF73C5E2FF300E0024E66E120076
:0405C400C5841200D8
:1005C8009E96C5869EB602D00000FCD7C9CF01F022
:1005D800C59A05017151000AD8B4C58A9E96C58886
:0E05E8009EB602D00000FCD701C000F0120049
:1005F6006AC571F56BC572F52EDF00C06CF501C0DA
:100606006DF5002A00506A25E16E000E6B21E26E40
:10061600E66A6C516A25E16E6D516B21E26E6C05DE
:10062600006E00506A25E96E000E6B21EA6EEECF71
:10063600E6FF010E6C5F000E6D5B000E6D1902E1A8
:10064600000E6C1901E0E5D76AC5E1FF6BC5E2FF54
:0606560069C5E6FF120079
:10065C006BC501F0010E006E015004E000360090F5
:10066C00FF0FFBD700C06DF5001E69C5E9FF6AC519
:10067C00EAFF0050EF16120EE9260050EF1672DF5B
:10068C0005016D51EF12120EE95E54DF6D51EF143E
:10069C00016E0150000A03E0010E6C6F01D06C6B0F
:0806AC0061DF6CC500F01200D3
:1006B400AEDED00E716F96DE6CC571F593DE05016A
:1006C4006D6B6B516D5D1DE269C5E9FF6AC5EAFF9B
:1006D400EECF6EF56D516C25016E0150000A09E1F3
:1006E4000101525304E07F0E05016E1702D005018B
:1006F4006E8F6EC571F576DE0501694B6A2B6D2B25
:06070400E0D75EDF1200E9
:10070A000450000A08E10550000A05E1FF0E006ED8
:10071A007F0E016E57D00D6A096A086A01500010EF
:10072A00D8B4000C015005180A6E0ABE0D1E0B6AD9
:10073A0005AE05D0041E051E042AD8B4052A01AE4A
:10074A0005D0001E011E002AD8B4012A0150051046
:10075A000A6E0ABE10D097DE0BB020D00DAE000C88
:10076A00001E011E002AD8B4012A081E091E082AE2
:10077A00D8B4092A000C05AE0DD001BE07D001502D
:10078A00096E0050086E016A006AE8D7016A006AB9
:10079A00002A000C011E001E0B2ADDD7082AD8B435
:1007AA00092A0450085CD8A4D9D70550095CD8A4F2
:1007BA00D5D7096A086A002AD8B4012A01AECED769
:0607CA000000FF0C12000C
:0E07D0000101DA9169C571F5C5DDDA8112000B
:1007DE006BC501F0010E006E015004E00036009072
:1007EE00FF0FFBD700C054F1001E00C051F169C5C8
:1007FE00E9FF6AC5EAFF0050EF16120E05016925E2
:10080E00E96E0050EF1643DC01015451EF123FDC4C
:10081E00120EE95E5451EF14006E00500008FF0EE8
:10082E00D8B0000E05016C6F47DC8EDE6CC500F093
:02083E001200A6
:100840001FC500F0000E016E280E046E000E056E2E
:100850004CDC8B0E002405013A6F030E01203B6F28
:10086000630EE8CFE9FF030EE8CFEAFF3AC5E1FFE8
:100870003BC5E2FF220EE6CFEEFFE806FCE1000EEC
:10088000E8CFE9FF000EE8CFEAFF630EE8CFE1FF13
:10089000030EE8CFE2FF150EE6CFEEFFE806FCE11F
:1008A00078C3F8FF79C3F7FF7AC3F6FF7BC3F4FF81
:1008B0007CC3F3FF7DC3EAFF7EC3E9FF7FC3E2FF92
:0A08C00080C3E1FF81C3E0FF1200D6
:1008CA0069C501F06AC502F069C503F06AC504F09A
:1008DA0003C0E9FF04C0EAFFEE50200A03E1034A1D
:1008EA00042AF6D703C0E9FF04C0EAFF01C0E1FF0A
:1008FA0002C0E2FFEECFE6FF014A022A034A042AB7
:10090A0003C0E9FF04C0EAFFEE50000A01E0EAD79B
:0C091A0001C0E1FF02C0E2FFE66A12002B
:100926006AC5E1FF6BC5E2FF200EE66E200EE66E9D
:10093600300EE66EE66A020E05016A256C6F000E41
:100946006B216D6F6951000A1AE00A0E046E69C5C3
:1009560000F0F6DC08C000F06CC5E1FF6DC5E2FFF3
:10096600300E0024E66E0A0E046E69C500F0E8DC5F
:1009760000C069F5010E6C5F000E6D5BE3D71200D7
:10098600EACF7DF3E9CF7EF3E2CF7FF3E1CF80F3C9
:10099600000EE8CFE9FF000EE8CFEAFF630EE8CFCE
:1009A600E1FF030EE8CFE2FF150EE806FEE1F8CF01
:1009B60078F3F7CF79F3F6CF7AF3F4CF7BF3F3CF6F
:1009C6007CF3E0CF81F31FC500F0000E016E280E08
:1009D600046E000E056E75EC00F08B0E002405010A
:1009E6003A6F030E01203B6F630EE8CFE9FF030E5B
:1009F600E8CFEAFF3AC5E1FF3BC5E2FF220EEECFA4
:080A0600E6FFE806FCE1120026
:100A0E000F0E05016915026E69C500F00032009ED9
:100A1E000032009E0032009E0032009E0A0E00023E
:100A2E00F3CF00F00250002600C069F500C06AF551
:060A3E006AC500F0120081
:100A44006D0EE16E050EE26E69C5D9FF6AC5DAFF67
:100A5400030E006E000E016E68DD6FC571F56BC587
:100A640072F56CC573F58DDD020E6B25E16E000E1B
:100A74006C21E26E3A0EE66E6EC571F5030E6B25BF
:100A8400726F000E6C21736F7CDD050E6B25E16EB9
:100A9400000E6C21E26E3A0EE66E6DC571F5060E1F
:100AA4006B25726F000E6C21736F6BDD080E6B2566
:0C0AB400E16E000E6C21E26EE66A12009A
:100AC00005016B6B695109081BE20A0E046E69C5CA
:100AD00000F039DC00C06BF500C06BF56B376B9133
:100AE0006B376B916B376B916B376B910A0E046EA2
:100AF00069C500F028DC08C000F000506B1302D07C
:0E0B000069C56BF56BC56AF56AC500F0120099
:100B0E006D0EE16E050EE26E69C5D9FF6AC5DAFF9C
:100B1E00040E006E000E016E03DD6EC571F56BC521
:100B2E0072F56CC573F528DD020E6B25E16E000EB5
:100B3E006C21E26E2F0EE66E6FC571F5030E6B25FE
:100B4E00726F000E6C21736F17DD050E6B25E16E53
:100B5E00000E6C21E26E2F0EE66E060E6B25E16E18
:100B6E00000E6C21E26E320EE66E070E6B25E16E04
:100B7E00000E6C21E26E300EE66E70C571F5080E39
:100B8E006B25726F000E6C21736FF6DC0A0E6B25EF
:0C0B9E00E16E000E6C21E26EE66A1200AF
:100BAA0069C56FF56AC570F56BC571F56CC572F5E7
:100BBA0069C573F56AC574F5030E0501756F000EF4
:100BCA00766F8DDC030E6F25006E000E7021016EAC
:100BDA0000C06FF501C070F56DC571F56EC572F58F
:100BEA0000C073F501C074F5040E756F000E766FC0
:040BFA0076DC120093
:100BFE0009DCD00E716FF4EC01F06CC571F5F4ECFC
:100C0E0001F0A9DCD10E0501716FF4EC01F00501C4
:100C1E006D6B6B516D5D17E26B05016E6D510118B9
:100C2E0002E16E6B02D0010E6E6F6EC571F5C5DC02
:100C3E0069C5E1FF6AC5E2FF00C0E6FF0501694B29
:0A0C4E006A2B6D2BE6D7B7DC12000D
:100C58009D909DEC00F0FF0E1F6F3F51FF0AD8B426
:100C680096D03D6B3D510301865DD8A090D01B0EF8
:100C7800E96E050EEA6E05013D51E926D8B0EA2A6B
:100C8800EE50FF0A0AE11B0EE16E050EE26E3D51C1
:100C9800E126D8B0E22A3FC5E6FF1B0EE96E050E35
:100CA800EA6E3D51E926D8B0EA2AEECF3CF53C2B56
:100CB8003C513F5DD8A03C6B3CC500F0000E016E76
:100CC800280E046E000E056E75EC00F08B0E0024E5
:100CD800026E030E0120036E220E0224E96E000E3E
:100CE8000320EA6EEECF03F003C03EF58B0E00261C
:100CF800030E0122230E0024E96E000E0120EA6E85
:100D0800EECF02F002C041F50350040AFF0ED8A44A
:100D1800000E016E02503D19FF0ED8A4000E006EA1
:100D2800005001161B0ED96E050EDA6E3D51D926FC
:100D3800D8B0DA2A3C51DE18FF0ED8A4000E006E97
:100D48000150001201E1B3D73E51040AFF0ED8A4A6
:100D5800000E016E41513D19FF0ED8A4000E006E21
:100D6800015000160DE01B0EE16E050EE26E3D51BE
:100D7800E126D8B0E22A3CC5E6FF3CC51FF507D0FE
:100D88003D510301861903E005013D2B6BD79D807A
:020D9800120047
:100D9A006BC501F0010E006E015004E000360090B0
:100DAA00FF0FFBD700C06FF5001E00C06EF569C5C6
:100DBA00E9FF0050EF16120E05016925E96E6D6B09
:100DCA006DC501F06CC500F0015004E00032009ED0
:100DDA00FF0FFBD7010E0014016E6E51EF16015082
:100DEA00000A02E06F51EF12A0EC02F06F51EF120D
:100DFA006D51070A02E06D2BE3D7120EE95E63EC30
:080E0A0000F063EC00F012009F
:100E12006BC501F0010E006E015004E00036009037
:100E2200FF0FFBD700C06FF5001C05016E6F6C6BE6
:100E320069C5E9FF6D6B6E51EF16120EE9266E5110
:100E4200EF164EEC00F06F51EF124EEC00F0120E66
:100E5200E95E6F51EF14006E0CE06DC501F0010EFA
:100E6200006E015004E000360090FF0FFBD70050E7
:100E72006C1363EC00F063EC00F06D51070A02E0C2
:0A0E82006D2BD9D76CC500F01200EB
:100E8C0005015C51010A03E1800E5C6F14D05C51CA
:100E9C00020A03E1C00E5C6F0ED05C51030A03E141
:100EAC00940E5C6F08D05C51040A03E1D40E5C6FA5
:100EBC0002D0800E5C6F5D05006E5C51002600C098
:100ECC005CF500C071F5B2EC01F0DA910501606BD4
:100EDC0060515E25E96E000E5F21EA6EEE50000A4D
:100EEC000CE060515E25E96E000E5F21EA6EEECFDC
:100EFC0069F568DC0501602BEBD70101DA81120082
:100F0C00046A056A066A006A04B0002A00500008E8
:100F1C00FF0ED8B0000E036E590EE96E010EEA6E8C
:100F2C000550E926D8B0EA2A06C001F0010E006E81
:100F3C00015004E000360090FF0FFBD70050EE1478
:100F4C00026E016A0250000A02E0010E016E0150AD
:100F5C000008FF0ED8B0000E026E04C000F0003284
:100F6C00009E00C004F00350021802E08C0E041A1C
:100F7C000650070A02E0062AC6D70550080A02E006
:0A0F8C00052AC0D704C000F01200CF
:100F96000501616B5EC502F0010E006E025005E0B0
:100FA600003600900136FF0FFAD75CC5E9FF5DC534
:100FB600EAFF0050EE14026E016A0250000A02E0D7
:100FC600010E016E05010150601926E15F5100080E
:100FD60006E2B8EC02F0B8EC02F05F07F7D75EC5A0
:100FE60002F0010E006E025005E000360090013658
:100FF600FF0FFAD75CC5E9FF5DC5EAFF0050EE14A6
:10100600026E016A0250000A02E0010E016E0150F2
:0E101600601902E1FF0E616F61C500F012006B
:101024005E0E0501696F050E6A6F070E6B6F6C6BC0
:10103400E4DD7F0E5E177F0E5F173F0E6017070E0D
:1010440061173F0E62171F0E63175CC571F55DC50E
:1010540072F55E0E736F050E746F070E756F000EDA
:08106400766F74EC02F012003B
:0C106C00DE5003E0E66E36EF08F01200E4
:101078005CC569F55DC56AF55EC56BF52EEC03F0D8
:101088000050000AFF0ED8A4000E606F5CC569F519
:101098005DC56AF55EC56BF5CC0E6C6F7ADE5CC516
:1010A80069F55DC56AF55EC56BF5440E6C6F71DE5A
:1010B8005F530CE004005CC569F55DC56AF55EC563
:1010C8006BF5EFEC03F0005201E1F4D760C500F0D6
:0210D800120004
:1010DA00000EF2BE010E0501396FF29EFDCF82F3BA
:1010EA00FECF83F3FFCF84F349DC39B102D0F29EFD
:1010FA0001D0F28E1FC500F0000E016E280E046E9C
:10110A00000E056E75EC00F08B0E0026030E012210
:10111A00220E0024E16E000E0120E26E020EE66E3F
:10112A001FC500F0000E016E280E046E000E056E3B
:10113A0075EC00F08B0E0026030E0122240E00240B
:10114A00E16E000E0120E26E5CC5E6FF5DC5E6FFBA
:10115A007EDD05011F51FF0A01E1FAD7000EF2BE3A
:10116A00010E396FF29E1FC500F0000E016E280EA7
:10117A00046E000E056E75EC00F08B0E0026030E51
:10118A000122220E0024E16E000E0120E26E050EFD
:10119A00E66E20EC04F082C3FDFF83C3FEFF84C326
:0E11AA00FFFF39B102D0F29E01D0F28E12008A
:1011B8005E0E0501716F050E726F5CC573F55DC536
:1011C80074F5070E756F000E766F74EC02F001016E
:1011D800525304E07F0E05015E1702D005015E8FB1
:1011E8005E0E696F050E6A6F070E6B6F6C6B5AECBB
:0411F80003F01200EE
:1011FC005CC569F55DC56AF55EC56BF52EEC03F053
:10120C005CC569F55DC56AF55EC56BF5CC0E6C6F9A
:10121C00BEDD5CC569F55DC56AF55EC56BF5BE0ED8
:10122C006C6FB5DD616B590E626F010E636F6151AE
:10123C006227D8B0632B5CC569F55DC56AF55EC5E0
:10124C006BF5E1DD62C5E1FF63C5E2FF00C0E6FFBF
:10125C006151080A02E0612BE6D759C15FF55AC10A
:0C126C0060F55FC500F060C501F01200E5
:101278005E0EE16E050EE26E5CC5D9FF5DC5DAFF54
:10128800070E006E000E016E97EC02F060C569F55E
:1012980007EC05F000C060F55FC569F507EC05F0DF
:1012A80000C05FF55EC569F507EC05F000C05EF5A6
:1012B80062C569F507EC05F000C062F563C569F51C
:1012C80007EC05F000C063F564C569F507EC05F0A7
:1012D80000C064F55CC5E1FF5DC5E2FF5E0ED96E36
:1012E800050EDA6E070E006E000E016E97EC02F026
:0212F8001200E2
:1012FA0005015C51FF0A54E05CC500F0000E016E66
:10130A00050E046E000E056E75EC00F0200E00242A
:10131A00E96E050E0120EA6EEECF01F00150020AD5
:10132A0019E15CC500F0000E016E050E046E000E98
:10133A00056E75EC00F0200E0026050E0122010E46
:10134A000024E16E000E0120E26E010EE66E000E30
:10135A00E66E26D05CC500F0000E016E050E046E26
:10136A00000E056E75EC00F0200E0026050E012217
:10137A00010E0024026E000E0120036E02C0E9FF76
:10138A0003C0EAFFEECF00F0EECF01F0004A012AD7
:10139A0002C0E1FF03C0E2FF00C0E6FF01C0E6FFB2
:0213AA0012002F
:1013AC00000EF2BE010E0501396FF29EFDCF82F3E5
:1013BC00FECF83F3FFCF84F3C3EC04F039B102D03A
:1013CC00F29E01D0F28E1FC500F0000E016E280EA9
:1013DC00046E000E056E75EC00F08B0E0026030EED
:1013EC000122220E0024E16E000E0120E26E040E9A
:1013FC00E66E2CDC05011F51FF0A01E1FAD7000E45
:10140C00F2BE010E396FF29E1FC500F0000E016E88
:10141C00280E046E000E056E75EC00F08B0E002687
:10142C00030E0122220E0024E16E000E0120E26E5A
:10143C00050EE66E20EC04F082C3FDFF83C3FEFFB5
:10144C0084C3FFFF39B102D0F29E01D0F28E12009C
:10145C005CC569F55DC56AF5620E006E050E016E20
:10146C0000C06BF501C06CF5650E006E050E016ECB
:10147C0000C06DF501C06EF5D5EC05F0620E006E86
:10148C00050E016E00C069F501C06AF55EC56BF50D
:10149C005FC56CF522EC05F0650E006E050E016E55
:1014AC0000C069F501C06AF560C56BF561C56CF5E6
:0614BC0087EC05F01200B0
:1014C20005015D51800A02E1000E5C1912E15EC560
:1014D200E1FF5FC5E2FF2D0EE66E330EE66E320EC1
:1014E200E66E370EE66E360EE66E380EE66EE66A8B
:1014F20061D0626B800E5D19006E800E005C02E1AD
:10150200000E5C5D08E2FF0E626F5C5100085C6FCA
:101512005D51000E5D575EC5E1FF5FC5E2FF200E23
:10152200E66E200EE66E200EE66E200EE66E200EB1
:10153200E66E300EE66EE66A050E5E25606F000E00
:101542005F21616F000E5D1902E1000E5C192AE055
:101552000A0E046E000E056E5CC500F05DC501F05A
:1015620085EC03F008C000F009C001F0300E00263F
:1015720060C5E1FF61C5E2FF00C0E6FF0A0E046E2E
:10158200000E056E5CC500F05DC501F085EC03F050
:1015920000C05CF501C05DF5010E0501605F000E43
:1015A200615BD0D7625306E060C5E1FF61C5E2FF2F
:0615B2002D0EE66E120092
:1015B80005015C51FF0A01E1BAD09D909DEC00F055
:1015C8009D805CC500F0000E016E050E046E000ED5
:1015D800056E75EC00F0200E0026050E0122010EA6
:1015E8000024E96E000E0120EA6EEECF01F0EECF86
:1015F80002F0000E006E0250005C02E1015000088B
:1016080029E25CC500F0000E016E050E046E000EA6
:10161800056E75EC00F0200E0026050E0122010E65
:101628000024026E000E0120036E02C0E9FF03C011
:10163800EAFFEECF00F0EECF01F0010E005E000EE3
:10164800015A02C0E1FF03C0E2FF00C0E6FF01C08B
:10165800E6FF6DD0000EF2BE010E396FF29EFDCF8F
:1016680082F3FECF83F3FFCF84F3C3EC04F039B1E8
:1016780002D0F29E01D0F28E1FC500F0000E016E5E
:10168800280E046E000E056E75EC00F08B0E002619
:10169800030E0122260E0024E16E000E0120E26EE8
:1016A8005CC5E6FF1FC500F0000E016E280E046E33
:1016B800000E056E75EC00F08B0E0026030E01225D
:1016C800220E0024E16E000E0120E26E030EE66E8B
:1016D8002CEC06F005011F51FF0A01E1F9D7000EB5
:1016E800F2BE010E396FF29E1FC500F0000E016EAA
:1016F800280E046E000E056E75EC00F08B0E0026A9
:10170800030E0122220E0024E16E000E0120E26E7B
:10171800050EE66E20EC04F082C3FDFF83C3FEFFD6
:1017280084C3FFFF39B102D0F29E01D0F28E1200BD
:101738005CC501F05DC502F05EC503F05FC504F04D
:1017480060C505F061C506F003C0E9FF04C0EAFF03
:10175800EE50000A0FE003C0E9FF04C0EAFF01C031
:10176800E1FF02C0E2FFEECFE6FF014A022A034A88
:10177800042AEAD705C0E9FF06C0EAFFEE50000ACE
:101788000FE005C0E9FF06C0EAFF01C0E1FF02C0A3
:10179800E2FFEECFE6FF014A022A054A062AEAD707
:0C17A80001C0E1FF02C0E2FFE66A12008F
:1017B4000501626B5DAF06D0FF0E626F5C1F5D1F9B
:1017C4005C4B5D2B300E616F5CA102D0350E616FF6
:1017D4005D335C335D9F5DBD5D8F5CC569F55EC542
:1017E4006AF55FC56BF593EC04F05EC569F55FC5FA
:1017F4006AF565EC04F00501625308E02D0E696F8B
:101804005EC56AF55FC56BF5FBEC02F0636B635173
:101814005E25E96E000E5F21EA6EEE50000802E2DA
:10182400632BF5D763515E25E16E000E5F21E26EF6
:1018340060C5E6FF6351010F006E00505E25E16E46
:10184400000E5F21E26E61C5E6FF020E6325006EA5
:1018540000505E25E16E000E5F21E26EE66A120022
:101864005E0EE16E050EE26E5CC5D9FF5DC5DAFF62
:10187400070E006E000E016E97EC02F060C569F56C
:1018840060EC05F000C060F55FC569F560EC05F03B
:1018940000C05FF55EC569F560EC05F000C05EF55B
:1018A40062C569F560EC05F000C062F563C569F5D1
:1018B40060EC05F000C063F564C569F560EC05F003
:1018C40000C064F55CC5E1FF5DC5E2FF5E0ED96E44
:1018D400050EDA6E070E006E000E016E97EC02F034
:0218E4001200F0
:1018E600FF0E05014B6F3F51090A01E15AD03F51E6
:1018F600FF0A02E13F6B01D03F2B3FC54BF546C5C2
:1019060087F347C588F348C589F349C58AF33FC5B8
:1019160000F0000E016E280E046E000E056E75ECCA
:1019260000F08B0E0024026E030E0120036E220EC1
:101936000224E16E000E0320E26E010EE66E030E37
:101946004A5D02E3020E4A6F4A510301865D02E2D6
:101956004AC586F3230E0224E16E000E0320E26ED2
:101966004AC5E6FF270E0224E16E000E0320E26E52
:10197600E66A1F0E0224E16E000E0320E26E87C3A4
:10198600E6FF200E0224E16E000E0320E26E88C3FD
:10199600E6FF210E0224E16E000E0320E26E89C3EB
:0819A600E6FF4BC500F0120042
:1019AE00050146513F5D01E22FD09D9046C500F0E6
:1019BE00000E016E280E046E000E056E75EC00F022
:1019CE008B0E0026030E0122220E0024E96E000E5D
:1019DE000120EA6EEE50010A16E146C500F0000E37
:1019EE00016E280E046E000E056E75EC00F08B0E67
:1019FE000026030E0122220E0024E16E000E0120AD
:0A1A0E00E26E040EE66E9D801200E9
:101A1800F40E05015C6F010E5D6F6DEC08F0F26A63
:101A28008B74830E5C6F0F0E5D6F58C35EF5FF0EEF
:101A38005F6F3CEC08F0830E5C6F0F0E5D6F58C350
:101A48005EF5FEEC08F000C059F301C05AF303013B
:101A58005851010F026E0204056E05C002F0000E17
:101A6800036E0236029003365B0E0224D96E030E13
:101A78000320DA6EDECF03F0DECF04F00150041845
:101A880002E103500018D8B428D15851010F006E54
:101A98000004036E03C000F0000E016E00360090D3
:101AA80001365B0E0024E16E030E0120E26E59C37D
:101AB800E6FF5AC3E6FF86EC07F000C057F3005074
:101AC800000837E2020E05015C6F010E5D6F540ECF
:101AD800466F650E476F6D0E486F700E496F650E45
:101AE8004A6F720E4B6F610E4C6F740E4D6F750E10
:101AF8004E6F720E4F6F650E506F200E516F430E72
:101B0800526F520E536F430E546F200E556F650E71
:101B1800566F720E576F720E586F6F0E596F720EA6
:101B28005A6F5B6B460E5E6F050E5F6F46EC07F0F3
:101B3800D0D003015851010F006E0004036E03C09A
:101B480000F0000E016E0036009001365B0E002496
:101B5800E96E030E0120EA6EEECF5CF5EECF5DF57F
:101B6800F20E05015E6F010E5F6F2C0E606F1EDEB8
:101B7800020E0301585D51E258C300F00036009090
:101B88000036009000360090030E0026070EE16E26
:101B9800020EE26E0050E126D8B0E22AF2C1E6FF5A
:101BA80058C300F0003600900036009000360090D0
:101BB800040E0026070EE16E020EE26E0050E126CA
:101BC800D8B0E22AF3C1E6FF58C300F0003600900F
:101BD8000036009000360090050E0026070EE16ED4
:101BE800020EE26E0050E126D8B0E22AF4C1E6FF08
:101BF80058C300F000360090003600900036009080
:101C0800060E0026070EE16E020EE26E0050E12677
:101C1800D8B0E22AF5C1E6FF5CD0020E585D026E2C
:101C280002C000F0003600900036009000360090A8
:101C3800030E0026180EE16E020EE26E0050E12639
:101C4800D8B0E22AF2C1E6FF020E585D026E02C069
:101C580000F0003600900036009000360090040E28
:101C68000026180EE16E020EE26E0050E126D8B092
:101C7800E22AF3C1E6FF020E585D026E02C000F0D0
:101C8800003600900036009000360090050E0026C1
:101C9800180EE16E020EE26E0050E126D8B0E22A7C
:101CA800F4C1E6FF020E585D026E02C000F0003675
:101CB80000900036009000360090060E0026180EA0
:101CC800E16E020EE26E0050E126D8B0E22AF5C1BC
:101CD800E6FFE5C15CF57DEC09F00301582B030E26
:0E1CE8005817C00EF26ED6EC09F092D612001C
:101CF6009D9005011E6B1EC500F0000E016E280E9C
:101D0600046E000E056E75EC00F08B0E0026030EB9
:101D16000122220E0024E16E000E0120E26EE66A28
:101D26001E51090A02E01E2BE6D71E6B1EC500F0E7
:101D3600000E016E050E046E000E056E75EC00F0C9
:101D4600200E0024E16E050E0120E26EE66A1E51A9
:101D5600040A02E01E2BEAD7FF0E0301856F050178
:101D66001E6B1B0EE16E050EE26E1E51E126D8B00B
:101D7600E22AFF0EE66E1E51020A02E01E2BF1D782
:101D86000301866BFF0E05011F6FFF0E3F6F1200EA
:101D96009D802CEC06F005011F51FF0A01E1F9D7E1
:101DA600000EF2BE010E396FF29E1FC500F0000E46
:101DB600016E280E046E000E056E75EC00F08B0E9B
:101DC6000026030E0122220E0024E16E000E0120E1
:101DD600E26E050EE66E20EC04F082C3FDFF83C3BF
:101DE600FEFF84C3FFFF39B102D0F29E01D0F28E0E
:021DF6001200D9
:101DF80005013F51FF0AD8B487D00101DB6BDB51E5
:101E080005013F5DD8A080D0DBC100F0000E016E57
:101E1800280E046E000E056E75EC00F08B0E002681
:101E2800030E012200C0DCF101C0DDF1220E002406
:101E3800E96E000E0120EA6EEECF02F00250020AAF
:101E4800FF0ED8A4000E016E0250030AFF0ED8A49C
:101E5800000E006E015000124FE0240E0101DC2537
:101E6800E96E000EDD21EA6EEECF01F0EECF02F052
:101E7800000E006E0250005C02E1015000083CE2D6
:101E8800240EDC25026E000EDD21036E02C0E9FF80
:101E980003C0EAFFEECF00F0EECF01F0010E005EC6
:101EA800000E015A02C0E1FF03C0E2FF00C0E6FFD6
:101EB80001C0E6FF240EDC25E96E000EDD21EA6E86
:101EC800EECF01F0EECF02F0000E021802E1000E94
:101ED800011812E1220EDC25E96E000EDD21EA6E02
:101EE800EE50020A09E1220EDC25E16E000EDD212A
:101EF800E26E040EE66E00D00101DB5105013F19C8
:0A1F080003E00101DB2B7BD7120080
:101F120068C15CF5DCEC0AF001016751FF0A5BE184
:101F22000001CF51000A02E1250ECE19FF0ED8A4FE
:101F3200000E016ECF51000A02E14F0ECE19FF0EC4
:101F4200D8A4000E006E00500112CF51000A02E127
:101F5200790ECE19FF0ED8A4000E006E00500112A9
:101F6200CF51000A02E1A30ECE19FF0ED8A4000E33
:101F7200006E015000120CE0CD5304E0FF0EFB6F27
:101F8200CD6B05D0FF0ECD6FFB53D8A4FB6B17D0E2
:101F9200CF51000A02E1FC0ECE19FF0ED8A4000EAA
:101FA200016ECF51010A02E1260ECE19FF0ED8A40E
:101FB200000E006E0150001202E0FF0EFB6F280EB1
:101FC200CE25E96E000ECF21EA6EEECFCEF0EECF37
:101FD200CFF00101676B6251FF0AD8A482D00001E1
:101FE200CF51000A02E1250ECE19FF0ED8A4000E31
:101FF200016ECF51000A02E14F0ECE19FF0ED8A496
:10200200000E006E00500112CF51000A02E1790E5B
:10201200CE19FF0ED8A4000E006E00500112CF514F
:10202200000A02E1A30ECE19FF0ED8A4000E006E24
:102032000150001224E0CD530CE0CD6BCF51000AC9
:1020420002E1250ECE1904E1D1C05CF57DEC09F068
:1020520015D00001FB5304E0FF0ECD6FFB6B0ED0D9
:10206200010EF96F000EFA6F220ECE25E96E000EF8
:10207200CF21EA6EEECFCEF0EECFCFF030D000011E
:10208200CF51000A02E1FC0ECE19FF0ED8A4000EB9
:10209200016ECF51010A02E1260ECE19FF0ED8A41D
:1020A200000E006E015000120CE0FB6B220ECE25DA
:1020B200E96E000ECF21EA6EEECFCEF0EECFCFF07A
:1020C2000ED0010EF96F000EFA6F220ECE25E96EC8
:1020D200000ECF21EA6EEECFCEF0EECFCFF00101AF
:1020E200626B6451FF0AD8A472D10001CF51000A79
:1020F20002E1250ECE19D8A4B1D0FB53D8B495D0A5
:10210200D20E05015C6F000E5D6F3CEC09F0000E13
:102112000001FA1902E1030EF9190BE1D851630A21
:1021220002E1D86B05D0D851010F006E00C0D8F083
:1021320050D0000EFA1902E1020EF9190CE1D75142
:102142000C0A03E1010ED76F05D0D751010F006EC3
:1021520000C0D7F03ED0000EFA1902E1010EF919C3
:1021620016E1D705006ED90ED96E000EDA6E005058
:10217200D926D8B0DA2AD651DE1803E1010ED66F7D
:1021820005D0D651010F006E00C0D6F022D0000E4D
:10219200FA1902E1040EF9190BE1D451170A02E10E
:1021A200D46B05D0D451010F006E00C0D4F011D011
:1021B200000EFA1902E1050EF9190BE1D3513B0A9F
:1021C20002E1D36B05D0D351010F006E00C0D3F0F2
:1021D20000D0D20E05015C6F000E5D6F32EC0CF088
:1021E200D20E5C6F000E5D6FE50E5E6F000E5F6FCC
:1021F200EE0E606F000E616F2EEC0AF0250EE16E9E
:10220200000EE26EEE0ED96E000EDA6E36EC08F0BB
:10221200E66A360EE16E000EE26EE50ED96E000E33
:10222200DA6E36EC08F0E66A18D00001CD5315E0FC
:10223200050E046E000E056EF9C000F0FAC001F042
:1022420085EC03F008C000F009C001F0010E002483
:102252000001F96F000E0120FA6FB7D00001CF51D3
:10226200000A02E14F0ECE193CE1FB5317E0F905DB
:10227200006EE70EE16E010EE26E0050E126D8B06C
:10228200E22AE70EE96E010EEA6E0050E926D8B0A6
:10229200EA2AEE1C006E00C0E6FF22D0CD5316E003
:1022A200070E046E000E056EF9C000F0FAC001F0D0
:1022B20085EC03F008C000F009C001F0010E002413
:1022C2000001F96F000E0120FA6F0AD0240ECE250C
:1022D200E96E000ECF21EA6EEECFCEF0EECFCFF058
:1022E20074D0CF51000A02E1A30ECE194FE1FB5385
:1022F20029E0000EFA1902E1010EF91912E10101B9
:10230200EE4BEF2B800EF119006E800EEF19005C80
:1023120002E1EE51F05D04E2F0C1EEF1F1C1EFF144
:1023220010D00101F04BF12B800E006E800EF119DE
:10233200005C02E1F051320804E2320EF06F000E4E
:10234200F16F23D00001CD5316E0020E046E000E91
:10235200056EF9C000F0FAC001F085EC03F008C088
:1023620000F009C001F0010E00240001F96F000E17
:102372000120FA6F0AD0240ECE25E96E000ECF217D
:10238200EA6EEECFCEF0EECFCFF01FD00001CF51EC
:10239200000A02E1FC0ECE1903E10101E61F15D08D
:1023A2000001CF51010A02E1260ECE1903E101011B
:1023B200E41F0BD0240E0001CE25E96E000ECF21C2
:1023C200EA6EEECFCEF0EECFCFF00101646B0001EA
:1023D200D051FF0AD8A45FD1CF51000A02E1250EE5
:1023E200CE19D8A4A9D0FB53D8B493D0D20E0501EC
:1023F2005C6F000E5D6F3CEC09F0000E0001FA19F3
:1024020002E1030EF9190BE1D851000A03E1630E50
:10241200D86F04D0D805006E00C0D8F04ED0000EA0
:10242200FA1902E1020EF9190BE1D751010A03E18F
:102432000C0ED76F04D0D705006E00C0D7F03DD088
:10244200000EFA1902E1010EF91915E1D651010A3D
:102452000DE1D705006ED90EE96E000EEA6E00504E
:10246200E926D8B0EA2AEECFD6F004D0D605006E1F
:1024720000C0D6F022D0000EFA1902E1040EF919BA
:102482000BE1D451000A03E1170ED46F04D0D40536
:10249200006E00C0D4F011D0000EFA1902E1050E50
:1024A200F9190BE1D351000A03E13B0ED36F04D0BB
:1024B200D305006E00C0D3F000D0D20E05015C6FD0
:1024C200000E5D6F32EC0CF0D20E5C6F000E5D6F91
:1024D200E50E5E6F000E5F6FEE0E606F000E616FB5
:1024E2002EEC0AF0250EE16E000EE26EEE0ED96EB3
:1024F200000EDA6E36EC08F0E66A360EE16E000E79
:10250200E26EE50ED96E000EDA6E36EC08F0E66A7F
:1025120012D00001CD530FE0000EFA1902E1010EB4
:10252200F91905E1050EF96F000EFA6F04D0010EDC
:10253200F95F000EFA5BADD00001CF51000A02E153
:102542004F0ECE1936E1FB5317E0F905006EE70E88
:10255200E16E010EE26E0050E126D8B0E22AE70EEB
:10256200E96E010EEA6E0050E926D8B0EA2AEE1CA6
:10257200006E00C0E6FF1CD0CD5310E0000EFA1929
:1025820002E1010EF91905E1070EF96F000EFA6F6B
:1025920004D0010EF95F000EFA5B0AD0260ECE259A
:1025A200E96E000ECF21EA6EEECFCEF0EECFCFF085
:1025B20070D0CF51000A02E1A30ECE194BE1FB53BA
:1025C2002BE0000EFA1902E1010EF91911E1010ED8
:1025D2000101EE5F000EEF5B800EEF19006E800EC0
:1025E200005C02E1000EEE5D02E2EE6BEF6B13D0D7
:1025F2000101010EF05F000EF15B800EF119006E19
:10260200800EEF19005C02E1EE51F05D04E2EEC1D2
:10261200F0F1EFC1F1F11DD00001CD5310E0000E39
:10262200FA1902E1010EF91905E1020EF96F000E25
:10263200FA6F04D0010EF96F000EFA6F0AD0260E5F
:10264200CE25E96E000ECF21EA6EEECFCEF0EECFB0
:10265200CFF01FD00001CF51000A02E1FC0ECE19CB
:1026620003E10101E61F15D00001CF51010A02E189
:10267200260ECE1903E10101E41F0BD0260E000144
:10268200CE25E96E000ECF21EA6EEECFCEF0EECF70
:10269200CFF00001D06BE5C15CF57DEC09F0D6EC22
:0626A20009F036D412001D
:1026A800FF0E0501476F03018551040A01E13AD085
:1026B8008551FF0A02E1856B01D0852B85C347F55B
:1026C80085C300F0000E016E050E046E000E056E47
:1026D80075EC00F0200E0026050E012200C0E1FF77
:1026E80001C0E2FF020EE66E050146530BE0010E43
:1026F8000024E16E000E0120E26E010EE66E000E6F
:10270800E66E08D0010E0024E16E000E0120E26E94
:10271800E66AE66A030E0024E16E000E0120E26E0E
:0A272800E66AE66A47C500F01200F9
:10273200320E05015C6F000E5D6F6DEC08F000015A
:10274200CF51000A02E1250ECE19FF0ED8A4000EC9
:10275200016EFB51000AFF0ED8A4000E006E01505C
:1027620000162FE0D20E05015C6F000E5D6F12ECB9
:1027720008F0D20E5C6F000E5D6FE50E5E6F000E0C
:102782005F6FEE0E606F000E616F2EEC0AF0250E89
:10279200E16E000EE26EEE0ED96E000EDA6E36ECCF
:1027A20008F0E66A360EE16E000EE26EE50ED96EB4
:1027B200000EDA6E36EC08F0E66AE5C15CF57DECF7
:0A27C20009F0D6EC09F0B4D71200BC
:1027CC00470E0501696F050E6A6F080E6B6F6C6B17
:1027DC00FFEC05F0BF0E4917100E4E6F470E696FD8
:1027EC00050E6A6F080E6B6F6C6B5AEC03F0016A86
:1027FC0047BF012A0150000AFF0ED8A4000E006E3C
:10280C0000C052F100C046F57F0E47150101536F11
:06281C0046C500F01200A9
:10282200E5C15CF5DCEC0AF0010E716FB2EC01F06F
:10283200010E05015C6F010E5D6FCEC05EF5CFC06B
:102842005FF546EC07F0020E05015C6F010E5D6F4D
:10285200110E0001CE2505015E6F000E0001CF2191
:1028620005015F6F46EC07F00001CD5306E00E0E46
:102872000501716FB2EC01F00ED00001FB5306E0CE
:102882000F0E0501716FB2EC01F005D00C0E0501BF
:10289200716FB2EC01F00001FB51CD11006ED8B4A2
:1028A200ADD2CF51000A02E1250ECE19D8A488D0AC
:1028B200020E0501716FB2EC01F0000E0001FA196F
:1028C20002E1010EF91906E1800E0501716FB2EC09
:1028D20001F075D0000E0001FA1902E1020EF91999
:1028E20015E1800E0501716FB2EC01F0140E0501C5
:1028F200716FB2EC01F0140E0501716FB2EC01F0D0
:10290200140E0501716FB2EC01F059D0000E0001F6
:10291200FA1902E1030EF91929E1800E0501716F1E
:10292200B2EC01F0140E0501716FB2EC01F0140E5D
:102932000501716FB2EC01F0140E0501716FB2EC7A
:1029420001F0140E0501716FB2EC01F0140E0501D5
:10295200716FB2EC01F0140E0501716FB2EC01F06F
:10296200140E0501716FB2EC01F029D0000E0001C6
:10297200FA1902E1040EF91906E1C00E0501716FA0
:10298200B2EC01F01CD0000E0001FA1902E1050EB2
:10299200F91915E1C00E0501716FB2EC01F0140EC8
:1029A2000501716FB2EC01F0140E0501716FB2EC0A
:1029B20001F0140E0501716FB2EC01F000D01ED2CD
:1029C2000001CF51000A02E14F0ECE1959E1020E69
:1029D2000501716FB2EC01F0C00E0501716FB2EC2E
:1029E20001F0010EE26F000EE36F140E0501716F2C
:1029F200B2EC01F0000EE31902E10E0EE21903E05F
:102A0200E24BE32BF2D70001F905006EE70EE96E07
:102A1200010EEA6E0050E926D8B0EA2AEE50FF0A0B
:102A220009E1200E0101D56F4F0ED66F4E0ED76F02
:102A3200D86B08D001014F0ED56F460ED66F460EE9
:102A4200D76FD86B600E05015C6F000E5D6F0001E1
:102A5200F905006E000E016E0E0E046E000E056E7C
:102A620075EC00F0730E002405015E6F010E01206B
:102A72005F6FD50E606F010E616F9CEC0BF0BED1E3
:102A82000001CF51000A02E1790ECE19D8A4B0D0CC
:102A9200020E0501716FB2EC01F0C00E0501716FFB
:102AA200B2EC01F0000E0001FA1902E1010EF9196F
:102AB20014E1010E0101E26F000EE36F140E050135
:102AC200716FB2EC01F0000EE31902E1030EE2199C
:102AD20003E0E24BE32BF2D713D00101010EE26FC8
:102AE200000EE36F140E0501716FB2EC01F0000EDF
:102AF200E31902E10F0EE21903E0E24BE32BF2D7F6
:102B02008A0E05015C6F000E5D6F466B460E5E6FAE
:102B1200050E5F6F476B470E606F050E616F9CEC91
:102B22000BF08A0E05015C6F000E5D6F8A0E5E6F00
:102B3200000E5F6F530E466F3A0E476F200E486FBE
:102B4200496B460E606F050E616F9CEC0BF0D9C1AC
:102B520069F56C0E05016A6F010E6B6F93EC04F060
:102B62008A0E5C6F000E5D6F8A0E5E6F000E5F6FE5
:102B72006C0E606F010E616F9CEC0BF08A0E05010A
:102B82005C6F000E5D6F8A0E5E6F000E5F6F200E2F
:102B9200466F200E476F200E486F200E496F200EA1
:102BA2004A6F450E4B6F3A0E4C6F200E4D6F4E6BB7
:102BB200460E606F050E616F9CEC0BF069C15CF50F
:102BC200000E05015D6F6C0E5E6F010E5F6F61ECB2
:102BD2000AF08A0E5C6F000E5D6F8A0E5E6F000E49
:102BE2005F6F6C0E606F010E616F9CEC0BF006D193
:102BF2000001CF51000A02E1A30ECE19D8A4B6D02B
:102C0200020E0501716FB2EC01F0C00E0501716F89
:102C1200B2EC01F0000E0001FA1902E1010EF919FD
:102C220014E1010E0101E26F000EE36F140E0501C3
:102C3200716FB2EC01F0000EE31902E1060EE21927
:102C420003E0E24BE32BF2D713D00101010EE26F56
:102C5200000EE36F140E0501716FB2EC01F0000E6D
:102C6200E31902E10F0EE21903E0E24BE32BF2D784
:102C72008A0E05015C6F000E5D6F466B460E5E6F3D
:102C8200050E5F6F476B470E606F050E616F9CEC20
:102C92000BF08A0E05015C6F000E5D6F8A0E5E6F8F
:102CA200000E5F6F4D0E466F610E476F780E486FD4
:102CB2003A0E496F200E4A6F4B6B460E606F050E3F
:102CC200616F9CEC0BF0EEC15CF5EFC15DF56C0E33
:102CD20005015E6F010E5F6F61EC0AF08A0E5C6F98
:102CE200000E5D6F8A0E5E6F000E5F6F6C0E606F7E
:102CF200010E616F9CEC0BF08A0E05015C6F000EF9
:102D02005D6F8A0E5E6F000E5F6F200E466F200EA3
:102D1200476F200E486F4D0E496F690E4A6F6E0E57
:102D22004B6F3A0E4C6F200E4D6F4E6B460E606F1E
:102D3200050E616F9CEC0BF0EEC15CF5EFC15DF529
:102D42006C0E05015E6F010E5F6F61EC0AF08A0E78
:102D52005C6F000E5D6F8A0E5E6F000E5F6F6C0E11
:102D6200606F010E616F9CEC0BF048D00001CF51F7
:102D7200000A02E1FC0ECE191DE1020E0501716F7F
:102D8200B2EC01F0800E0501716FB2EC01F0010EA0
:102D9200E26F000EE36F140E0501716FB2EC01F0E9
:102DA200000EE31902E10E0EE21903E0E24BE32BFF
:102DB200F2D724D00001CF51010A02E1260ECE192A
:102DC2001DE1020E0501716FB2EC01F0C00E0501AA
:102DD200716FB2EC01F0010EE26F000EE36F140EA0
:102DE2000501716FB2EC01F0000EE31902E1080E69
:102DF200E21903E0E24BE32BF2D700D0D6EC09F064
:042E02000FD51200D6
:102E0600140E05015C6F000E5D6F6DEC08F0840E0C
:102E16005C6F0F0E5D6F020E5E6F010E5F6F010E2F
:102E2600606FCBEC07F0005203E0FF0E0101666F06
:102E3600840E05015C6F0F0E5D6F020E5E6F010E54
:102E46005F6F606BCBEC07F001016651001607E07F
:102E5600FF0E676F666B68C15CF57DEC09F0810E4D
:102E660005015C6F0F0E5D6F040E5E6F010E5F6FE6
:102E7600010E606FCBEC07F0005203E0FF0E01017C
:102E8600656F810E05015C6F0F0E5D6F040E5E6F40
:102E9600010E5F6F606BCBEC07F001016551001608
:102EA60007E0FF0E626F656B68C15CF57DEC09F0AB
:102EB600840E05015C6F0F0E5D6F010E5E6F010ED5
:102EC6005F6F010E606FCBEC07F0005203E0FF0E60
:102ED6000101636F840E05015C6F0F0E5D6F010EBD
:102EE6005E6F010E5F6F606BCBEC07F00101635103
:102EF600001607E0FF0E646F636B68C15CF57DEC3E
:102F060009F0840E05015C6F0F0E5D6F5E6B010E9E
:102F16005F6F010E606FCBEC07F0005203E0FF0E0F
:102F26000101506F840E05015C6F0F0E5D6F5E6BC5
:102F3600010E5F6F606BCBEC07F00101505100167C
:102F460009E0FF0E0001D06F0101506B68C15CF50E
:0C2F56007DEC09F0D6EC09F053D7120016
:102F62001F0E0001D96F1C0EDA6F1F0EDB6F1E0ED3
:102F7200DC6F1F0EDD6F1E0EDE6F1F0EDF6F1F0E6A
:102F8200E06F1E0EE16F1F0EE26F1E0EE36F1F0E4B
:102F9200E46F570E0201076F650E086F6C0E096F22
:102FA200630E0A6F6F0E0B6F6D0E0C6F650E0D6F59
:102FB2002C0E0E6F200E0F6F4C0E106F610E116FE4
:102FC200630E126F690E136F210E146F156B310EA3
:102FD2002F6F020E306F070E296F020E2A6F070E37
:102FE2002B6F020E2C6F070E2D6F020E2E6F070E27
:102FF2000001CE6F020ECF6F010E0101E26F000ED3
:10300200E36FE205006E000E016E2A0E046E000EE2
:10301200056E75EC00F0310E0026020E0122240E20
:1030220000240501466F000E0120476F0101E251A5
:10303200010F006E0006000E016E2A0E046E000ED5
:10304200056E75EC00F0310E0026020E012246C517
:10305200E1FF47C5E2FF00C0E6FF01C0E6FF000E48
:10306200E31902E1060EE21903E0E24BE32BC9D7B2
:10307200310E0301516F020E526F070E0101E26F12
:10308200000EE36FE2050501486F48C500F0000E2F
:10309200016E2A0E046E000E056E75EC00F0310E04
:1030A2000026020E0122260E0024466F000E012089
:1030B200476F4805006E000E016E2A0E046E000E68
:1030C200056E75EC00F0310E0026020E012246C597
:1030D200E1FF47C5E2FF00C0E6FF01C0E6FF000EC8
:1030E2000101E31902E1020EE21905E0010EE25FBD
:1030F200000EE35BC7D72D0E0201576F030E586F08
:10310200010E0101E26F000EE36FE205006E000E98
:10311200016E2A0E046E000E056E75EC00F0310E83
:103122000026020E0122220E0024E16E000E012072
:10313200E26E070EE66E020EE66E000EE31902E183
:10314200070EE21903E0E24BE32BDFD7010EE26F39
:10315200000EE36FE205006E000E016E2A0E046E91
:10316200000E056E75EC00F0310E0024026E020EA8
:103172000120036E280E0224E16E000E0320E26E8F
:10318200310E0026020E012200C0E6FF01C0E6FF5A
:10319200000EE31902E1070EE21903E0E24BE32B12
:1031A200D9D7250E0201596F000E5A6F4F0E836F49
:1031B200000E846FFC0EAD6F000EAE6F260ED76F41
:1031C200010ED86F310E476E020E486E250E496E03
:1031D200000E4A6E250E4B6E000E4C6E250E4D6E85
:1031E200000E4E6E010E0101E26F000EE36FE2056A
:1031F200006E000E016E2A0E046E000E056E75EC56
:1032020000F04F0E0026000E0122220E0024E16E75
:10321200000E0120E26E5B0EE66E020EE66EE20525
:10322200006E000E016E2A0E046E000E056E75EC25
:1032320000F04F0E0024026E000E0120036E280ED5
:103242000224E16E000E0320E26E4F0E0026000EF5
:10325200012200C0E6FF01C0E6FF000EE31902E111
:10326200030EE21903E0E24BE32BC1D7A30E0001E8
:103272009D6F000E9E6F4F0E9F6F000EA06FA30EEC
:10328200756F000E766F4F0EC76F000EC86F790E06
:10329200736F000E746F790EC96F000ECA6F850EC0
:1032A20001011E6F020E1F6FFC0E206F000E216FB8
:1032B200FC0E226F000E236FFC0E246F000E256F92
:1032C200AF0E486F020E496F260E4A6F010E4B6F0A
:1032D200260E4C6F010E4D6F260E4E6F010E4F6F74
:1032E200540E0201076F310E086F3A0E096F200E5D
:1032F2000A6F200E0B6F200E0C6F200E0D6F200E2A
:103302000E6F540E0F6F320E106F3A0E116F200EA9
:10331200126F200E136F200E146F200E156F166B96
:10332200540E186F330E196F3A0E1A6F200E1B6F60
:10333200200E1C6F200E1D6F200E1E6F200E1F6FA1
:10334200540E206F340E216F3A0E226F200E236F1F
:10335200200E246F200E256F200E266F276B310E54
:10336200316F2E0E326F200E336F440E346F610EAA
:10337200356F740E366F650E376F2F0E386F540E21
:10338200396F690E3A6F6D0E3B6F650E3C6F3D6B88
:10339200426B320E5B6F2E0E5C6F200E5D6F460E1F
:1033A2005E6F750E5F6F6E0E606F630E616F740EEF
:1033B200626F690E636F6F0E646F6E0E656F690EDA
:1033C200666F6E0E676F670E686F696B200E6C6FAB
:1033D200200E6D6F200E6E6F200E6F6F200E706FBD
:1033E200490E716F6E0E726F740E736F650E746F8D
:1033F200720E756F760E766F610E776F6C0E786F48
:10340200796B330E856F2E0E866F200E876F4C0EF2
:10341200886F6F0E896F630E8A6F6B0E8B6F200E33
:103422008C6F530E8D6F650E8E6F740E8F6F740ED0
:10343200906F690E916F6E0E926F670E936F730E9F
:10344200946F956B966B340EAF6F2E0EB06F200E8D
:10345200B16F530EB26F740EB36F610EB46F740E10
:10346200B56F750EB66F730EB76F200EB86F4C0E38
:10347200B96F450EBA6F440EBB6FBC6BC06B350E95
:10348200D96F2E0EDA6F200EDB6F530EDC6F740EC7
:10349200DD6F610EDE6F6E0EDF6F640EE06F620E27
:1034A200E16F790EE26F200EE36F440EE46F690E56
:1034B200E56F730EE66F700EE76FE86B200EEA6F32
:1034C200200EEB6F200EEC6F200EED6F530EEE6FA1
:1034D200650EEF6F740EF06F740EF16F690EF26F7E
:1034E2006E0EF36F670EF46F730EF56FF66B360E9A
:1034F2000301036F2E0E046F200E056F4C0E066F34
:103502006F0E076F670E086F096B146B370E2D6F06
:103512002E0E2E6F200E2F6F4D0E306F650E316FF7
:103522006E0E326F750E336F346B3E6B640E256E0A
:10353200610E266E740E276E650E286E296A740E51
:10354200366E690E376E6D0E386E650E396E3A6ADA
:10355200320E4F6E2E0E506E310E516E200E526E86
:10356200440E536E610E546E790E556E730E566E86
:10357200576A600E05015C6F000E5D6F730E5E6F21
:10358200010E5F6FD50E606F010E616F9CEC0BF048
:10359200320E0001796F2E0E7A6F320E7B6F200E83
:1035A2007C6F480E7D6F6F0E7E6F750E7F6F720E91
:1035B200806F730E816F826B530E8A6F3A0E8B6F20
:1035C200200E8C6F320E8D6F310E8E6F3B0E8F6F11
:1035D200200E906F200E916F200E926F200E936F2F
:1035E200200E946F450E956F3A0E966F200E976FD0
:1035F200200E986F370E996F9A6B320EA36F2E0EB4
:10360200A46F330EA56F200EA66F540EA76F650E22
:10361200A86F6D0EA96F700EAA6F2E0EAB6F200EE3
:10362200AC6F4C0EAD6F690EAE6F6D0EAF6F690E63
:10363200B06F740EB16F730EB26FB36B4D0EB46F89
:10364200690EB56F6E0EB66F3A0EB76F200EB86F79
:10365200310EB96F390EBA6F3B0EBB6F200EBC6FC5
:103662004D0EBD6F610EBE6F780EBF6F3A0EC06F0A
:10367200200EC16F320EC26F320EC36FC46B4C0E7E
:10368200FC6F6F0EFD6F630EFE6F6B0EFF6F650EAC
:103692000101006F640E016F3A0E026F200E036F7C
:1036A200200E046F200E056F200E066F200E076F8E
:1036B2004F0E086F460E096F460E0A6F0B6B0D6BAD
:1036C200530E266F740E276F610E286F740E296FCA
:1036D200750E2A6F730E2B6F200E2C6F4C0E2D6FF2
:1036E200450E2E6F440E2F6F3A0E306F316B200E47
:1036F200376F200E386F200E396F200E3A6F200E72
:103702003B6F200E3C6F200E3D6F200E3E6F4F0E22
:0A3712003F6F4E0E406F416B120036
:10371C00D1C05CF5DCEC0AF0D20E5C6F000E5D6F74
:0C372C00DCEC08F0D6EC09F0F3D712003A
:10373800939093928A908A9293809382C79EC79C13
:06374800380EC66E1200EF
:10374E00949294909598959A959C959E8B928B9029
:10375E008C9E8C9C8C9A8C986AEC00F06AEC00F033
:10376E006AEC00F08C8A8C888B824EEC00F08B9287
:10377E006AEC00F08B824EEC00F08B926AEC00F05B
:10378E008B824EEC00F08B926AEC00F08C988B8260
:10379E004EEC00F08B926AEC00F08B824EEC00F057
:1037AE008B928C9A8C8E8B824EEC00F08B926AEC04
:1037BE0000F08C9E8C888B824EEC00F08B928C9855
:1037CE008B824EEC00F08B926AEC00F08B824EEC0A
:1037DE0000F08B928C888B824EEC00F08B926AEC10
:1037EE0000F08C988B824EEC00F08B928C8E8C8C31
:1037FE008C8A8C888B824EEC00F08B926AEC00F0F7
:06380E000101DA81120045
:10381400070E0B6E170E0C6E6A0E0D6E0D2EFED774
:103824000C2EFCD70B2EFAD70000FF0E8B6EFF0E6A
:10383400946EFF0E8C6EFF0E956E9494939A9388FB
:1038440096809682968495809582958495867DDF70
:10385400010E0501716FB2EC01F00C0E0501716FE0
:10386400B2EC01F0010EE26F000EE36FE205036EAD
:1038740003C000F0000E016E0036009001365B0EAE
:103884000024E16E030E0120E26EE66AE66A000E91
:10389400E31902E1040EE21903E0E24BE32BE6D75D
:1038A4000301586B010E0101E26F000EE36FE205A4
:1038B400006EE70EE16E010EE26E0050E126D8B014
:1038C400E22AE66A000EE31902E1070EE21903E0B8
:1038D400E24BE32BECD74D0E736F6F0E746F6E0ECD
:1038E400756F640E766F610E776F790E786F200EA8
:1038F400796F200E7A6F200E7B6F200E7C6F200E66
:103904007D6F200E7E6F200E7F6F806B540E816F53
:10391400750E826F650E836F730E846F640E856FF0
:10392400610E866F790E876F200E886F200E896F67
:10393400200E8A6F200E8B6F200E8C6F200E8D6FE1
:103944008E6B570E8F6F650E906F640E916F6E0EB7
:10395400926F730E936F640E946F610E956F790E70
:10396400966F200E976F200E986F200E996F200E81
:103974009A6F200E9B6F9C6B540E9D6F680E9E6F0A
:10398400750E9F6F720EA06F730EA16F640EA26FFF
:10399400610EA36F790EA46F200EA56F200EA66F83
:1039A400200EA76F200EA86F200EA96FAA6B460EDB
:1039B400AB6F720EAC6F690EAD6F640EAE6F610EBD
:1039C400AF6F790EB06F200EB16F200EB26F200E64
:1039D400B36F200EB46F200EB56F200EB66F200E9D
:1039E400B76FB86B530EB96F610EBA6F740EBB6FBD
:1039F400750EBC6F720EBD6F640EBE6F610EBF6F2D
:103A0400790EC06F200EC16F200EC26F200EC36FDF
:103A1400200EC46F200EC56FC66B530EC76F750E94
:103A2400C86F6E0EC96F640ECA6F610ECB6F790ECC
:103A3400CC6F200ECD6F200ECE6F200ECF6F200ED8
:103A4400D06F200ED16F200ED26F200ED36FD46BA7
:103A54004F0ED56F460ED66F460ED76FD86B130E2A
:103A6400EE6F000EEF6F160EF06F000EF16F070E83
:103A7400D96F150E696FE66BFF0EE46F3F0EC16ED2
:103A8400780EC86E57DEE6EC13F01F0E0B6E710E47
:103A94000C6E1E0E0D6E0D2EFED70C2EFCD70B2EAB
:103AA400FAD70000D20E05015C6F000E5D6FE50EC3
:103AB4005E6F000E5F6FEE0E606F000E616F2EEC96
:103AC4000AF0B1EC17F0010E05015C6F010E5D6F99
:103AD400640E426F640E436F640E446F456B420E76
:103AE4005E6F050E5F6F46EC07F00001FB6BCD6B5C
:103AF400010EF96F000EFA6F7BEC0EF0180E466F94
:103B04001A0E476F000E486F000E496F020E4A6F7F
:103B140073EC0CF000C06AF1320E0501466F270EFB
:103B2400476F000E486F000E496F010E4A6F73EC29
:103B34000CF000C06BF1220E0501466F280E476F92
:103B4400000E486F000E496F010E4A6F73EC0CF0C3
:103B540000C0DFF1060E0501466F2E0E476F000E02
:103B6400486F000E496F4A6B73EC0CF000C0E0F133
:103B7400120E0501466F1F0E476F000E486F000EB0
:103B8400496F030E4A6F73EC0CF000C0E1F11C0E98
:103B94000501466F370E476F000E486F000E496FE0
:103BA400030E4A6F73EC0CF000C0DEF10501466BA6
:103BB40054EC13F000C0E5F10501466B54EC13F02E
:103BC40000C068F10501466B54EC13F000C0D1F05D
:103BD4006AC146F5D7EC0CF06BC146F5D7EC0CF096
:103BE400DFC146F5D7EC0CF0E0C146F5D7EC0CF09C
:103BF400E1C146F5D7EC0CF0DEC146F5D7EC0CF08C
:103C0400CD88CD9ACD92400ECE6EA20ECF6E9D90F1
:103C1400CD809E90C00EF26E8B748B74CBEC0EF044
:023C2400FFD7C8
:020000040030CA
:0E000000240E3E1EFF8181FF0FC00FE00F4057
:00000001FF
