:0400000074EF1FF08A
:1000080000C01EF001C01DF002C01CF003C01BF0B0
:1000180004C01AF005C019F008C018F009C017F09C
:100028000AC016F00BC015F0E1CF23F0E2CF24F0A0
:10003800E9CF21F0EACF22F0F3CF1FF0F4CF20F080
:100048009EA007D09E90A20ECF6E400ECE6EC4EC3E
:100058000DF01FC0F3FF20C0F4FF1EC000F01DC04C
:1000680001F01CC002F01BC003F01AC004F019C054
:1000780005F018C008F017C009F016C00AF015C03E
:100088000BF021C0E9FF22C0EAFF23C0E1FF24C032
:04009800E2FF110072
:0E009C00030E0D6E0D2EFED7000000001200A8
:1000AA00026AC7B408D01F0EC514016E0150000AB7
:0C00BA0002E1FF0E026E02C000F0120016
:0E00C600C70E0D6E0D2EFED7000000001200BA
:1000D400560E0C6EB50E0D6E0D2EFED70C2EFCD7E3
:0600E40000000000120004
:1000EA000B6A0A6A096A00500402F4CF09F0F3CFD6
:1000FA0008F001500502F4CF0BF0F3CF0AF00050DC
:10010A000502F3500926F4500A22E86A0B2201502C
:10011A000402F3500926F4500A22E86A0B2208C0A6
:10012A0000F009C001F00AC002F00BC003F012008F
:10013A0005019651FF0AD8B478D09D6B9D51965D02
:10014A00D8A073D09DC500F0000E016E050E046E96
:10015A00000E056EC5DF7D0E0026050E012200C0C9
:10016A009BF501C09CF5000EF2BE010E0301E76F7C
:10017A00F29E030E0024E96E000E0120EA6EEECF15
:10018A0001F0EECF02F0000E006E0250005C02E1B8
:10019A00015000083EE29BC5E9FF9CC5EAFFEECF8D
:1001AA0001F00150020A0CE1010E05019B25E16EE6
:1001BA00000E9C21E26E010EE66E000EE66E21D064
:1001CA000501010E9B25026E000E9C21036E030E93
:1001DA009B25D96E000E9C21DA6E02C0E9FF03C08E
:1001EA00EAFFEECF00F0EECF01F0DE500026DE503F
:1001FA00012202C0E1FF03C0E2FF00C0E6FF01C026
:10020A00E6FF030E9B25E16E000E9C21E26EE66A74
:10021A00E66A0301E7B102D0F29E01D0F28E05012F
:10022A009D51961902E09D2B89D77C51FF0AD8B4BB
:10023A0080D09D6B9D517C5DD8A07BD09DC500F080
:10024A00000E016E280E046E000E056E49DFE80EE0
:10025A000026030E012200C0BCF301C0BDF3220E2A
:10026A000024E96E000E0120EA6EEE50030A5BE1FB
:10027A00260E0301BC25D96E000EBD21DA6EDECF33
:10028A0000F0000E016E050E046E000E056E28DFEA
:10029A007D0E0026050E0122010E0024E96E000ED5
:1002AA000120EA6EEECF01F0EECF02F0000E006EF2
:1002BA000250005C02E10150000835E2260EBC251E
:1002CA00D96E000EBD21DA6EDECF00F0000E016E8F
:1002DA00050E046E000E056E03DF7D0E0026050E68
:1002EA000122010E0024026E000E0120036E02C0DC
:1002FA00E9FF03C0EAFFEECF00F0EECF01F0010EF6
:10030A00005E000E015A02C0E1FF03C0E2FF00C016
:10031A00E6FF01C0E6FF220EBC25E16E000EBD21FC
:10032A00E26E040EE66E05019D517C1902E09D2BDA
:04033A0081D7120055
:10033E00086A080E0C6E003408360450085ED8B0F9
:0E034E0002D00826D89000360C2EF5D71200EB
:10035C000501CEBF02D08C9E01D08C8ECEBD02D0BA
:10036C008C9C01D08C8CCEBB02D08C9A01D08C8A08
:10037C00CEB902D08C9801D08C88030112B102D076
:10038C008B8001D08B908B8283DE8B920501CEB754
:10039C0002D08C9E01D08C8ECEB502D08C9C01D01C
:1003AC008C8CCEB302D08C9A01D08C8ACEB102D078
:1003BC008C9801D08C88030112B102D08B8001D0B3
:1003CC008B908B8265DE8B9212A102D07DDE01D0E8
:0403DC0074DE1200B9
:1003E0009E96CEC5C9FFC7A402D00000FCD79EB61A
:1003F00002D00000FCD7C5BC02D0016A03D0C5847E
:0A040000020E016E01C000F01200B0
:10040A000501CF6BD06B4CDE0050000A01E00AD028
:10041A000501D051120A02E18E0ECF1903E0CF4B2B
:10042A00D02BF1D70501120ED05D02E18F0ECF5D00
:10043A0003E37B0ECE6F06D0C580C5A002D00000B4
:0A044A00FCD7CE6BCEC500F0120007
:10045400CEC504F0CFC505F004C0E9FF05C0EAFF2E
:10046400EE50000A03E0044A052AF6D70501CE51EE
:10047400045C026ECF510558036E02C000F003C045
:0404840001F0120071
:100488000134083609360450085E0550D8A0053CEA
:10049800095E003601360F0E0C6E01340836093637
:1004A800045000A006D0085E0550D8A0053C095E9F
:1004B80005D008260550D8B0053C09260036013677
:1004C8000C2EEBD700B006D0045008260550D8B043
:0804D800053C0926000012009A
:1004E000CEC501F0CFC502F0D0C503F0D1C504F0F0
:1004F000000E0501D31902E1000ED21913E0010E1E
:10050000D25F000ED35B03C0E9FF04C0EAFF01C065
:10051000E1FF02C0E2FFEECFE6FF014A022A034AF2
:06052000042AE6D71200D8
:10052600000E0006015ADECFE6FF0006015AFBE286
:020536001200B1
:10053800020E0C6E350E0D6E0D2EFED70C2EFCD74E
:060548000000000012009B
:0E054E00270E0D6E0D2EFED7000000001200CD
:0C055C00C582C5A202D00000FCD712002E
:10056800080E0C6EC10E0D6E0D2EFED70C2EFCD78C
:060578000000000012006B
:10057E00CEC500F00032009E0032009E0032009E7A
:10058E000032009ECFC5E1FFD0C5E2FF300E002441
:10059E00E66E0501CF4BD02B0F0ECE15006ECFC5DC
:0E05AE00E1FFD0C5E2FF300E0024E66E120021
:0405BC00C5841200E0
:1005C0009E96C5869EB602D00000FCD7C9CF01F02A
:1005D000C59A0501CE51000AD8B4C58A9E96C58831
:0E05E0009EB602D00000FCD701C000F0120051
:1005EE00C7C5CEF5C8C5CFF52EDF00C0C9F501C011
:1005FE00CAF5002A0050C725E16E000EC821E26E32
:10060E00E66AC951C725E16ECA51C821E26EC90515
:10061E00006E0050C725E96E000EC821EA6EEECFBF
:10062E00E6FF010EC95F000ECA5B000ECA1902E199
:10063E00000EC91901E0E5D7C7C5E1FFC8C5E2FF45
:06064E00C6C5E6FF120024
:100654000450000A08E10550000A05E1FF0E006E8F
:100664007F0E016E57D00D6A096A086A01500010A6
:10067400D8B4000C015005180A6E0ABE0D1E0B6A90
:1006840005AE05D0041E051E042AD8B4052A01AE01
:1006940005D0001E011E002AD8B4012A01500510FD
:1006A4000A6E0ABE10D0EEDE0BB020D00DAE000CE8
:1006B400001E011E002AD8B4012A081E091E082A99
:1006C400D8B4092A000C05AE0DD001BE07D00150E4
:1006D400096E0050086E016A006AE8D7016A006A70
:1006E400002A000C011E001E0B2ADDD7082AD8B4EC
:1006F400092A0450085CD8A4D9D70550095CD8A4A9
:10070400D5D7096A086A002AD8B4012A01AECED71F
:060714000000FF0C1200C2
:10071A000501C86BC65109081BE20A0E046EC6C55C
:10072A0000F008DE00C0C8F500C0C8F5C837C89197
:10073A00C837C891C837C891C837C8910A0E046E1D
:10074A00C6C500F0F7DD08C000F00050C81302D09B
:0E075A00C6C5C8F5C8C5C7F5C7C500F0120072
:10076800C8C501F0010E006E015004E0003600908B
:10077800FF0FFBD700C0CAF5001EC6C5E9FFC7C5F5
:10078800EAFF0050EF16120EE9260050EF16E8DED9
:100798000501CA51EF12120EE95ECADECA51EF1402
:1007A800016E0150000A03E0010EC96F01D0C96B48
:0807B800D7DEC9C500F01200F4
:0E07C00003011291C6C5CEF5C9DD12811200EB
:1007CE00C6C501F0C7C502F0C6C503F0C7C504F023
:1007DE0003C0E9FF04C0EAFFEE50200A03E1034A1A
:1007EE00042AF6D703C0E9FF04C0EAFF01C0E1FF07
:1007FE0002C0E2FFEECFE6FF014A022A034A042AB4
:10080E0003C0E9FF04C0EAFFEE50000A01E0EAD798
:0C081E0001C0E1FF02C0E2FFE66A120028
:10082A00BEC300F0000E016E280E046E000E056EA7
:10083A0057DCE80E00240301C36F030E0120C46FC6
:10084A00C50EE8CFE9FF030EE8CFEAFFC3C3E1FF15
:10085A00C4C3E2FF220EE6CFEEFFE806FCE1000E7B
:10086A00E8CFE9FF000EE8CFEAFFC50EE8CFE1FFC7
:10087A00030EE8CFE2FF150EE6CFEEFFE806FCE135
:10088A00DAC3F8FFDBC3F7FFDCC3F6FFDDC3F4FF0F
:10089A00DEC3F3FFDFC3EAFFE0C3E9FFE1C3E2FF20
:0A08AA00E2C3E1FFE3C3E0FF120028
:1008B400AADDD00ECE6F92DDC9C5CEF58FDD4CDE3C
:1008C400D10E0501CE6F8ADD0501CA6BC851CA5D20
:1008D40017E2C805016ECA51011802E1CB6B02D0C0
:1008E400010ECB6FCBC5CEF569DEC6C5E1FFC7C52A
:1008F400E2FF00C0E6FF0501C64BC72BCA2BE6D7B3
:040904005BDE1200A4
:10090800C7C5E1FFC8C5E2FF200EE66E200EE66E01
:10091800300EE66EE66A020E0501C725C96F000EA5
:10092800C821CA6FC651000A1AE00A0E046EC6C56D
:1009380000F001DD08C000F0C9C5E1FFCAC5E2FF4B
:10094800300E0024E66E0A0E046EC6C500F0F3DC15
:1009580000C0C6F5010EC95F000ECA5BE3D71200DE
:10096800CA0EE16E050EE26EC6C5D9FFC7C5DAFF2D
:10097800030E006E000E016ED2DDCCC5CEF5C8C5E3
:10098800CFF5C9C5D0F5F7DD020EC825E16E000E1A
:10099800C921E26E3A0EE66ECBC5CEF5030EC82528
:1009A800CF6F000EC921D06FE6DD050EC825E16EB8
:1009B800000EC921E26E3A0EE66ECAC5CEF5060EE5
:1009C800C825CF6F000EC921D06FD5DD080EC82508
:0C09D800E16E000EC921E26EE66A12001A
:1009E4000F0E0501C615026EC6C500F00032009E4A
:1009F4000032009E0032009E0032009E0A0E000269
:100A0400F3CF00F00250002600C0C6F500C0C7F5C1
:060A1400C7C500F012004E
:100A1A00EACFDFF3E9CFE0F3E2CFE1F3E1CFE2F3AC
:100A2A00000EE8CFE9FF000EE8CFEAFFC50EE8CFD7
:100A3A00E1FF030EE8CFE2FF150EE806FEE1F8CF6C
:100A4A00DAF3F7CFDBF3F6CFDCF3F4CFDDF3F3CF52
:100A5A00DEF3E0CFE3F3BEC300F0000E016E280E12
:100A6A00046E000E056E75EC00F0E80E002403011A
:100A7A00C36F030E0120C46FC50EE8CFE9FF030E52
:100A8A00E8CFEAFFC3C3E1FFC4C3E2FF220EEECF01
:080A9A00E6FFE806FCE1120092
:100AA200B3DCD00ECE6F9BDCC9C5CEF598DC050158
:100AB200CA6BC851CA5D1DE2C6C5E9FFC7C5EAFFD8
:100AC200EECFCBF5CA51C925016E0150000A09E1EA
:100AD2000001B65304E07F0E0501CB1702D00501D9
:100AE200CB8FCBC5CEF57BDC0501C64BC72BCA2B02
:060AF200E0D763DD1200F5
:100AF800CA0EE16E050EE26EC6C5D9FFC7C5DAFF9C
:100B0800040E006E000E016E0ADDCBC5CEF5C8C519
:100B1800CFF5C9C5D0F52FDD020EC825E16E000E50
:100B2800C921E26E2F0EE66ECCC5CEF5030EC825A0
:100B3800CF6F000EC921D06F1EDD050EC825E16EEE
:100B4800000EC921E26E2F0EE66E060EC825E16E74
:100B5800000EC921E26E320EE66E070EC825E16E60
:100B6800000EC921E26E300EE66ECDC5CEF5080E38
:100B7800C825CF6F000EC921D06FFDDC0A0EC8252D
:0C0B8800E16E000EC921E26EE66A120068
:100B9400C6C5CCF5C7C5CDF5C8C5CEF5C9C5CFF515
:100BA400C6C5D0F5C7C5D1F5030E0501D26F000E39
:100BB400D36F94DC030ECC25006E000ECD21016EA4
:100BC40000C0CCF501C0CDF5CAC5CEF5CBC5CFF577
:100BD40000C0D0F501C0D1F5040ED26F000ED36F62
:040BE4007DDC1200A2
:100BE800C8C501F0010E006E015004E00036009007
:100BF800FF0FFBD700C0C0F0001E00C0C1F0C6C583
:100C0800E9FFC7C5EAFF0050EF16120E0501C62519
:100C1800E96E0050EF164EEC00F00001C051EF12E3
:100C28004EEC00F0120EE95EC051EF14006E005059
:100C38000008FF0ED8B0000E0501C96F63EC00F084
:080C480082DCC9C500F01200B6
:100C50009D909DEC00F0FF0E0301BE6F05017C51DD
:100C6000FF0AD8B492D09E6B9E51975DD8A08DD0CC
:100C7000BF0EE96E030EEA6E9E51E926D8B0EA2A4D
:100C8000EE50FF0A0AE1BF0EE16E030EE26E9E51C6
:100C9000E126D8B0E22A7CC5E6FFBF0EE96E030E5E
:100CA000EA6E9E51E926D8B0EA2AEECF99F5992B43
:100CB00099517C5DD8A0996B99C500F0000E016E2A
:100CC000280E046E000E056E75EC00F0E80E002490
:100CD000026E030E0120036E220E0224E96E000E46
:100CE0000320EA6EEECF03F003C098F5E80E00266D
:100CF000030E0122230E0024E96E000E0120EA6E8D
:100D0000EECF02F002C09AF50350040AFF0ED8A4F9
:100D1000000E016E02509E19FF0ED8A4000E006E48
:100D200000500116BF0ED96E030EDA6E9E51D92601
:100D3000D8B0DA2A9951DE18FF0ED8A4000E006E42
:100D40000150001201E1B3D79851040AFF0ED8A454
:100D5000000E016E9A519E19FF0ED8A4000E006E6F
:100D6000015000160DE0BF0EE16E030EE26E9E51C3
:100D7000E126D8B0E22A99C5E6FF99C5BEF305D0B1
:0E0D80009E51971902E09E2B6FD79D801200A6
:100D8E00C8C501F0010E006E015004E0003600905F
:100D9E00FF0FFBD700C0CCF5001E00C0CBF5C6C5BB
:100DAE00E9FF0050EF16120E0501C625E96ECA6B5B
:100DBE00CAC501F0C9C500F0015004E00032009E22
:100DCE00FF0FFBD7010E0014016ECB51EF16015031
:100DDE00000A02E0CC51EF129CEC02F0CC51EF1263
:100DEE00CA51070A02E0CA2BE3D7120EE95E63EC82
:080DFE0000F063EC00F01200AC
:100E0600C8C501F0010E006E015004E000360090E6
:100E1600FF0FFBD700C0CCF5001C0501CB6FC96BDB
:100E2600C6C5E9FFCA6BCB51EF16120EE926CB51A8
:100E3600EF164EEC00F0CC51EF124EEC00F0120E15
:100E4600E95ECC51EF14006E0CE0CAC501F0010E4C
:100E5600006E015004E000360090FF0FFBD70050F3
:100E6600C91363EC00F063EC00F0CA51070A02E014
:0A0E7600CA2BD9D7C9C500F012003D
:100E80000501BF6BBAAF06D0FF0EBF6FB91FBA1F07
:100E9000B94BBA2B300EBE6FB9A102D0350EBE6F62
:100EA000BA33B933BA9FBABDBA8FB9C5C6F5BBC597
:100EB000C7F5BCC5C8F528DDBBC5C6F5BCC5C7F5BB
:100EC00086DC0501BF5308E02D0EC66FBBC5C7F514
:100ED000BCC5C8F5F7EC02F0C06BC051BB25E96E8C
:100EE000000EBC21EA6EEE50000802E2C02BF5D7DE
:100EF000C051BB25E16E000EBC21E26EBDC5E6FF10
:100F0000C051010F006E0050BB25E16E000EBC21E8
:100F1000E26EBEC5E6FF020EC025006E0050BB2586
:0C0F2000E16E000EBC21E26EE66A1200D9
:100F2C00BB0E0501C66F050EC76F070EC86FC96BE8
:100F3C00BBDC7F0EBB177F0EBC173F0EBD17070E19
:100F4C00BE173F0EBF171F0EC017B9C5CEF5BAC5D9
:100F5C00CFF5BB0ED06F050ED16F070ED26F000E02
:080F6C00D36F70EC02F01200DB
:100F74000501BE6BBBC502F0010E006E025005E018
:100F8400003600900136FF0FFAD7B9C5E9FFBAC59C
:100F9400EAFF0050EE14026E016A0250000A02E0F9
:100FA400010E016E05010150BD1926E1BC51000876
:100FB40006E2B4EC02F0B4EC02F0BC07F7D7BBC510
:100FC40002F0010E006E025005E00036009001367A
:100FD400FF0FFAD7B9C5E9FFBAC5EAFF0050EE140E
:100FE400026E016A0250000A02E0010E016E015015
:0E0FF400BD1902E1FF0EBE6FBEC500F0120077
:10100200B9C5C6F5BAC5C7F5BBC5C8F5B4EC03F09A
:10101200B9C5C6F5BAC5C7F5BBC5C8F5CC0EC96F0B
:10102200B5DEB9C5C6F5BAC5C7F5BBC5C8F5BE0EAE
:10103200C96FACDEBE6BB70EBF6F000EC06FBE5184
:10104200BF27D8B0C02BB9C5C6F5BAC5C7F5BBC551
:10105200C8F5D8DEBFC5E1FFC0C5E2FF00C0E6FFAC
:10106200BE51080A02E0BE2BE6D7B7C0BCF5B8C035
:0C107200BDF5BCC500F0BDC501F01200CA
:10107E00B9C5C6F5BAC5C7F5BBC5C8F5B4EC03F01E
:10108E000050000AFF0ED8A4000EBD6FB9C5C6F5FC
:10109E00BAC5C7F5BBC5C8F5CC0EC96F71DEB9C5EB
:1010AE00C6F5BAC5C7F5BBC5C8F5440EC96F68DE2F
:1010BE00BC530BE00400B9C5C6F5BAC5C7F5BBC530
:1010CE00C8F58BDD005201E1F5D7BDC500F0120069
:1010DE000501B951010A03E1800EB96F14D0B9515F
:1010EE00020A03E1C00EB96F0ED0B951030A03E133
:1010FE00940EB96F08D0B951040A03E1D40EB96F3A
:10110E0002D0800EB96FBA05006EB951002600C02C
:10111E00B9F500C0CEF5AEEC01F012910501BD6B34
:10112E00BD51BB25E96E000EBC21EA6EEE50000AE1
:10113E000DE0BD51BB25E96E000EBC21EA6EEECF6F
:10114E00C6F5E0EC03F00501BD2BEAD703011281D1
:02115E0012007D
:10116000046A056A066A006A04B0002A0050000892
:10117000FF0ED8B0000E036EB70EE96E000EEA6ED9
:101180000550E926D8B0EA2A06C001F0010E006E2B
:10119000015004E000360090FF0FFBD70050EE1422
:1011A000026E016A0250000A02E0010E016E015057
:1011B0000008FF0ED8B0000E026E04C000F000322E
:1011C000009E00C004F00350021802E08C0E041AC6
:1011D0000650070A02E0062AC6D70550080A02E0B0
:0A11E000052AC0D704C000F0120079
:1011EA00BB0E0501CE6F050ECF6FB9C5D0F5BAC5D6
:1011FA00D1F5070ED26F000ED36F70EC02F000012A
:10120A00B65304E07F0E0501BB1702D00501BB8F60
:10121A00BB0EC66F050EC76F070EC86FC96B3CDCE5
:02122A001200B0
:10122C00B9C501F0BAC502F0BBC503F0BCC504F0EA
:10123C00BDC505F0BEC506F003C0E9FF04C0EAFF5A
:10124C00EE50000A0FE003C0E9FF04C0EAFF01C042
:10125C00E1FF02C0E2FFEECFE6FF014A022A034A99
:10126C00042AEAD705C0E9FF06C0EAFFEE50000ADF
:10127C000FE005C0E9FF06C0EAFF01C0E1FF02C0B4
:10128C00E2FFEECFE6FF014A022A054A062AEAD718
:0C129C0001C0E1FF02C0E2FFE66A1200A0
:1012A8000501B951FF0A01E1BAD09D909DEC00F00B
:1012B8009D80B9C500F0000E016E050E046E000E8B
:1012C800056E75EC00F07D0E0026050E0122010E5C
:1012D8000024E96E000E0120EA6EEECF01F0EECF99
:1012E80002F0000E006E0250005C02E1015000089E
:1012F80029E2B9C500F0000E016E050E046E000E5D
:10130800056E75EC00F07D0E0026050E0122010E1B
:101318000024026E000E0120036E02C0E9FF03C024
:10132800EAFFEECF00F0EECF01F0010E005E000EF6
:10133800015A02C0E1FF03C0E2FF00C0E6FF01C09E
:10134800E6FF6DD0000EF2BE010E0301E76FF29EBC
:10135800FDCFE4F3FECFE5F3FFCFE6F30DEC05F0A8
:10136800E7B102D0F29E01D0F28EBEC300F0000EAB
:10137800016E280E046E000E056E75EC00F0E80E86
:101388000026030E0122260E0024E16E000E012025
:10139800E26EB9C5E6FFBEC300F0000E016E280E6E
:1013A800046E000E056E75EC00F0E80E0026030EC4
:1013B8000122220E0024E16E000E0120E26E030ECF
:1013C800E66E42DC0301BE51FF0A01E1FAD7000EC6
:1013D800F2BE010EE76FF29EBEC300F0000E016E72
:1013E800280E046E000E056E75EC00F0E80E00265F
:1013F800030E0122220E0024E16E000E0120E26E8F
:10140800050EE66E15EC04F0E4C3FDFFE5C3FEFF30
:10141800E6C3FFFFE7B102D0F29E01D0F28E1200C0
:10142800000EF2BE010E0301E76FF29EFDCFE4F35A
:10143800FECFE5F3FFCFE6F30DEC05F0E7B102D000
:10144800F29E01D0F28EBEC300F0000E016E280E8F
:10145800046E000E056E75EC00F0E80E0026030E13
:101468000122220E0024E16E000E0120E26E020E1F
:10147800E66EBEC300F0000E016E280E046E000E6C
:10148800056E75EC00F0E80E0026030E0122240E0E
:101498000024E16E000E0120E26EB9C5E6FFBAC570
:1014A800E6FF28EC06F00301BE51FF0A01E1F9D777
:1014B800000EF2BE010EE76FF29EBEC300F0000EF2
:1014C800016E280E046E000E056E75EC00F0E80E35
:1014D8000026030E0122220E0024E16E000E0120D8
:1014E800E26E050EE66E15EC04F0E4C3FDFFE5C3FD
:1014F800FEFFE6C3FFFFE7B102D0F29E01D0F28EF5
:021508001200CF
:10150A00BB0EE16E050EE26EB9C5D9FFBAC5DAFFA8
:10151A00070E006E000E016E93EC02F0BDC5C6F513
:10152A008DEC03F000C0BDF5BCC5C6F58DEC03F02B
:10153A0000C0BCF5BBC5C6F58DEC03F000C0BBF519
:10154A00BFC5C6F58DEC03F000C0BFF5C0C5C6F532
:10155A008DEC03F000C0C0F5C1C5C6F58DEC03F0F3
:10156A0000C0C1F5B9C5E1FFBAC5E2FFBB0ED96E2D
:10157A00050EDA6E070E006E000E016E93EC02F095
:02158A0012004D
:10158C00BB0EE16E050EE26EB9C5D9FFBAC5DAFF26
:10159C00070E006E000E016E93EC02F0BDC5C6F591
:1015AC00F2EC04F000C0BDF5BCC5C6F5F2EC04F0DD
:1015BC0000C0BCF5BBC5C6F5F2EC04F000C0BBF531
:1015CC00BFC5C6F5F2EC04F000C0BFF5C0C5C6F54A
:1015DC00F2EC04F000C0C0F5C1C5C6F5F2EC04F0A5
:1015EC0000C0C1F5B9C5E1FFBAC5E2FFBB0ED96EAB
:1015FC00050EDA6E070E006E000E016E93EC02F013
:02160C001200CA
:10160E000501BA51800A02E1000EB91912E1BBC5FB
:10161E00E1FFBCC5E2FF2D0EE66E330EE66E320E16
:10162E00E66E370EE66E360EE66E380EE66EE66A3D
:10163E0061D0BF6B800EBA19006E800E005C02E1A5
:10164E00000EB95D08E2FF0EBF6FB9510008B96F09
:10165E00BA51000EBA57BBC5E1FFBCC5E2FF200E62
:10166E00E66E200EE66E200EE66E200EE66E200E64
:10167E00E66E300EE66EE66A050EBB25BD6F000EF9
:10168E00BC21BE6F000EBA1902E1000EB9192AE094
:10169E000A0E046E000E056EB9C500F0BAC501F053
:1016AE002AEC03F008C000F009C001F0300E00264D
:1016BE00BDC5E1FFBEC5E2FF00C0E6FF0A0E046E27
:1016CE00000E056EB9C500F0BAC501F02AEC03F0A4
:1016DE0000C0B9F501C0BAF5010E0501BD5F000EDF
:1016EE00BE5BD0D7BF5306E0BDC5E1FFBEC5E2FF6E
:0616FE002D0EE66E120045
:101704000501B951FF0A54E0B9C500F0000E016E9D
:10171400050E046E000E056E75EC00F07D0E0024BF
:10172400E96E050E0120EA6EEECF01F00150020AC7
:1017340019E1B9C500F0000E016E050E046E000E2D
:10174400056E75EC00F07D0E0026050E0122010EDB
:101754000024E16E000E0120E26E010EE66E000E22
:10176400E66E26D0B9C500F0000E016E050E046EBB
:10177400000E056E75EC00F07D0E0026050E0122AC
:10178400010E0024026E000E0120036E02C0E9FF68
:1017940003C0EAFFEECF00F0EECF01F0004A012AC9
:1017A40002C0E1FF03C0E2FF00C0E6FF01C0E6FFA4
:0217B400120021
:1017B600B9C5C6F5BAC5C7F5BF0E006E050E016EF2
:1017C60000C0C8F501C0C9F5C20E006E050E016E57
:1017D60000C0CAF501C0CBF5CAEC05F0BF0E006E1D
:1017E600050E016E00C0C6F501C0C7F5BBC5C8F53C
:1017F600BCC5C9F5B4EC04F0C20E006E050E016E50
:1018060000C0C6F501C0C7F5BDC5C8F5BEC5C9F55A
:061816007CEC05F012005D
:10181C00000EF2BE010E0301E76FF29EFDCFE4F362
:10182C00FECFE5F3FFCFE6F30DEC05F0E7B102D008
:10183C00F29E01D0F28EBEC300F0000E016E280E97
:10184C00046E000E056E75EC00F0E80E0026030E1B
:10185C000122220E0024E16E000E0120E26E040E25
:10186C00E66E28EC06F00301BE51FF0A01E1F9D740
:10187C00000EF2BE010EE76FF29EBEC300F0000E2A
:10188C00016E280E046E000E056E75EC00F0E80E6D
:10189C000026030E0122220E0024E16E000E012010
:1018AC00E26E050EE66E15EC04F0E4C3FDFFE5C335
:1018BC00FEFFE6C3FFFFE7B102D0F29E01D0F28E2D
:0218CC00120008
:1018CE00FF0E0501A86F7C51090A01E159D07C5128
:1018DE00FF0A02E17C6B01D07C2B7CC5A8F5A3C569
:1018EE0078F5A4C579F5A5C57AF5A6C57BF57CC5B1
:1018FE0000F0000E016E280E046E000E056E75ECE3
:10190E0000F0E80E0024026E030E0120036E220E7C
:10191E000224E16E000E0320E26E010EE66E030E4F
:10192E00A75D02E3020EA76FA751975D02E2A7C55E
:10193E0097F5230E0224E16E000E0320E26EA7C57A
:10194E00E6FF270E0224E16E000E0320E26EE66A29
:10195E001F0E0224E16E000E0320E26E78C5E6FF34
:10196E00200E0224E16E000E0320E26E79C5E6FF22
:10197E00210E0224E16E000E0320E26E7AC5E6FF10
:06198E00A8C500F01200E4
:101994000501A3517C5D01E22FD09D90A3C500F009
:1019A400000E016E280E046E000E056E75EC00F03C
:1019B400E80E0026030E0122220E0024E96E000E1A
:1019C4000120EA6EEE50010A16E1A3C500F0000EF4
:1019D400016E280E046E000E056E75EC00F0E80E24
:1019E4000026030E0122220E0024E16E000E0120C7
:0A19F400E26E040EE66E9D80120004
:1019FE009D900301C26BC2C300F0000E016E280E53
:101A0E00046E000E056E75EC00F0E80E0026030E57
:101A1E000122220E0024E16E000E0120E26EE66A23
:101A2E00C251090A02E0C22BE6D7C26BC2C300F054
:101A3E00000E016E050E046E000E056E75EC00F0C4
:101A4E007D0E0024E16E050E0120E26EE66AC251A3
:101A5E00040A02E0C22BEAD7FF0E0501966F0301BE
:101A6E00C26BBF0EE16E030EE26EC251E126D8B01C
:101A7E00E22AFF0EE66EC251020A02E0C22BF1D735
:101A8E000501976BFF0E0301BE6FFF0E05017C6F04
:021A9E00120034
:101AA0009D8028EC06F00301BE51FF0A01E1F9D741
:101AB000000EF2BE010EE76FF29EBEC300F0000EF4
:101AC000016E280E046E000E056E75EC00F0E80E37
:101AD0000026030E0122220E0024E16E000E0120DA
:101AE000E26E050EE66E15EC04F0E4C3FDFFE5C3FF
:101AF000FEFFE6C3FFFFE7B102D0F29E01D0F28EF7
:021B00001200D1
:101B0200FF0E0501A46F9651040A01E139D09651E6
:101B1200FF0A02E1966B01D0962B96C5A4F596C5F5
:101B220000F0000E016E050E046E000E056E75ECDF
:101B320000F07D0E0026050E012200C0E1FF01C06B
:101B4200E2FF020EE66EA3530BE0010E0024E16EEB
:101B5200000E0120E26E010EE66E000EE66E08D067
:101B6200010E0024E16E000E0120E26EE66AE66AD2
:101B7200030E0024E16E000E0120E26EE66AE66AC0
:061B8200A4C500F01200F2
:101B880005017C51FF0AD8B487D00301136B1351A8
:101B980005017C5DD8A080D013C300F0000E016E53
:101BA800280E046E000E056E75EC00F0E80E002697
:101BB800030E012200C014F301C015F3220E002405
:101BC800E96E000E0120EA6EEECF02F00250020A22
:101BD800FF0ED8A4000E016E0250030AFF0ED8A40F
:101BE800000E006E015000124FE0240E0301142570
:101BF800E96E000E1521EA6EEECF01F0EECF02F08D
:101C0800000E006E0250005C02E1015000083CE248
:101C1800240E1425026E000E1521036E02C0E9FF82
:101C280003C0EAFFEECF00F0EECF01F0010E005E38
:101C3800000E015A02C0E1FF03C0E2FF00C0E6FF48
:101C480001C0E6FF240E1425E96E000E1521EA6E88
:101C5800EECF01F0EECF02F0000E021802E1000E06
:101C6800011812E1220E1425E96E000E1521EA6E04
:101C7800EE50020A09E1220E1425E16E000E15212C
:101C8800E26E040EE66E00D00301135105017C19C3
:0A1C980003E00301132B7BD71200B9
:101CA200140E0501B96F000EBA6F14EC0AF0840E1F
:101CB2000501B96F0F0EBA6F020EBB6F010EBC6F3A
:101CC200010EBD6FBAEC07F0005203E0FF0E0301F4
:101CD2001B6F840E0501B96F0F0EBA6F020EBB6F38
:101CE200010EBC6FBD6BBAEC07F003011B5100166D
:101CF20008E0FF0E0001B56F03011B6BB4C0B9F51C
:101D020000DD810E0501B96F0F0EBA6F040EBB6FB5
:101D1200010EBC6F010EBD6FBAEC07F0005203E07A
:101D2200FF0E03011C6F810E0501B96F0F0EBA6F12
:101D3200040EBB6F010EBC6FBD6BBAEC07F0030162
:101D42001C51001606E0FF0E426E1C6BB4C0B9F5C2
:101D5200D8DC840E0501B96F0F0EBA6F010EBB6F8E
:101D6200010EBC6F010EBD6FBAEC07F0005203E02A
:101D7200FF0E03011D6F840E0501B96F0F0EBA6FBE
:101D8200010EBB6F010EBC6FBD6BBAEC07F0030115
:101D92001D51001606E0FF0E416E1D6BB4C0B9F571
:101DA200B0DC840E0501B96F0F0EBA6FBB6B010E6A
:101DB200BC6F010EBD6FBAEC07F0005203E0FF0EDC
:101DC20003018F6F840E0501B96F0F0EBA6FBB6BE3
:101DD200010EBC6FBD6BBAEC07F003018F51001608
:101DE20006E0FF0E216F8F6BB4C0B9F58ADC15DDFA
:041DF20057D71200AD
:101DF600F40E0501B96F010EBA6F14EC0AF0F26A1F
:101E06008B74830E0501B96F0F0EBA6F1AC3BBF53B
:101E1600FF0EBC6F3FEC08F0830EB96F0F0EBA6F62
:101E26001AC3BBF501EC08F000C007F301C008F3C4
:101E360003011A51010F026E0204056E05C002F07D
:101E4600000E036E023602900336090E0224D96E86
:101E5600030E0320DA6EDECF03F0DECF04F001506E
:101E6600041802E103500018D8B484D01A51010FA7
:101E7600006E0004036E03C000F0000E016E003613
:101E860000900136090E0024E16E030E0120E26E79
:101E960007C3E6FF08C3E6FFB0EC08F000C011F385
:101EA6000050000837E2020E0501B96F010EBA6F45
:101EB600540EA36F650EA46F6D0EA56F700EA66F00
:101EC600650EA76F720EA86F610EA96F740EAA6FCA
:101ED600750EAB6F720EAC6F650EAD6F200EAE6FEA
:101EE600430EAF6F520EB06F430EB16F200EB26F3E
:101EF600650EB36F720EB46F720EB56F6F0EB66F5E
:101F0600720EB76FB86BA30EBB6F050EBC6F6FEC8E
:101F160008F02CD003011A51010F006E0004036E65
:101F260003C000F0000E016E003600900136090E67
:101F36000024E96E030E0120EA6EEECFB9F5EECF6E
:101F4600BAF503C000F0000E016E070E046E000E17
:101F5600056E75EC00F0EB0E00240501BB6F020E5A
:101F66000120BC6F2C0EBD6F40EC07F01EC3B9F507
:101F760082EC0BF003011A2B030E1A17C00EF26E39
:061F86004ADC36D7120010
:101F8C00B4C0B9F554EC09F00001B551FF0AD8A45E
:101F9C0076D001011951010A02E11A0E1819FF0E2F
:101FAC00D8A4000E016E1951010A02E1440E181951
:101FBC00FF0ED8A4000E006E005001121951010A38
:101FCC0002E16E0E1819FF0ED8A4000E006E005020
:101FDC0001121951010A02E1980E1819FF0ED8A42A
:101FEC00000E006E015000120FE0175306E0FF0EBA
:101FFC000001C26F0101176B06D0FF0E176F0001B5
:10200C00C253D8A4C26B2ED001011951000A02E1AF
:10201C00C30E1819FF0ED8A4000E016E1951000A38
:10202C0002E1ED0E1819FF0ED8A4000E006E005040
:10203C0001121951000A02E15F0E1819FF0ED8A403
:10204C00000E006E005001121951000A02E1890EB7
:10205C001819FF0ED8A4000E006E0150001202E0F9
:10206C000001C26B280E01011825E96E000E192122
:10207C00EA6EEECF18F1EECF19F10001B56B4250BC
:10208C00FF0AD8A49CD001011951010A02E11A0ED1
:10209C001819FF0ED8A4000E016E1951010A02E1A5
:1020AC00440E1819FF0ED8A4000E006E0050011239
:1020BC001951010A02E16E0E1819FF0ED8A4000E78
:1020CC00006E005001121951010A02E1980E181904
:1020DC00FF0ED8A4000E006E0150001227E017531B
:1020EC000CE0176B1951010A02E11A0E181904E1E0
:1020FC0043C0B9F582EC0BF018D00001C25306E0D6
:10210C00FF0E0101176F0001C26B0FD0010E446E60
:10211C00000E456E220E01011825E96E000E1921E4
:10212C00EA6EEECF18F1EECF19F148D0010119513A
:10213C00000A02E1C30E1819FF0ED8A4000E016E9E
:10214C001951000A02E1ED0E1819FF0ED8A4000E69
:10215C00006E005001121951000A02E15F0E1819AD
:10216C00FF0ED8A4000E006E005001121951000A87
:10217C0002E1890E1819FF0ED8A4000E006E015052
:10218C0000120EE00001C26B220E01011825E96E4F
:10219C00000E1921EA6EEECF18F1EECF19F10ED028
:1021AC00010E446E000E456E220E1825E96E000ECF
:1021BC001921EA6EEECF18F1EECF19F1426A4150B7
:1021CC00FF0AD8A4C2D101011951010A02E11A0E69
:1021DC001819D8A49AD00001C253D8B47ED0250EB9
:1021EC000501B96F000EBA6FC6EC0AF0000E451867
:1021FC0002E1030E44180BE12B50630A02E12B6A37
:10220C0005D02B50010F006E00C02BF050D0000EEB
:10221C00451802E1020E44180CE12A500C0A03E1A5
:10222C00010E2A6E05D02A50010F006E00C02AF054
:10223C003ED0000E451802E1010E441816E12A04A6
:10224C00006E2C0ED96E000EDA6E0050D926D8B066
:10225C00DA2A2950DE1803E1010E296E05D0295027
:10226C00010F006E00C029F022D0000E451802E1CB
:10227C00040E44180BE12750170A02E1276A05D017
:10228C002750010F006E00C027F011D0000E45182A
:10229C0002E1050E44180BE126503B0A02E1266AC6
:1022AC0005D02650010F006E00C026F000D00501AD
:1022BC00250EB96F000EBA6F85EC0AF0250EB96FBA
:1022CC00000EBA6F380EBB6F000EBC6F4C0EBD6F9C
:1022DC00000EBE6FDBEC0BF017D00101175314E0AE
:1022EC00050E046E000E056E44C000F045C001F0F2
:1022FC002AEC03F008C000F009C001F0010E002424
:10230C00446E000E0120456E1FD101011951010AC6
:10231C0002E1440E18193EE10001C25317E04404D7
:10232C00006E570EE16E000EE26E0050E126D8B042
:10233C00E22A570EE96E000EEA6E0050E926D8B07C
:10234C00EA2AEE1C006E00C0E6FF23D001011753F1
:10235C0015E0070E046E000E056E44C000F045C07B
:10236C0001F02AEC03F008C000F009C001F0010EE6
:10237C000024446E000E0120456E0BD0240E01018A
:10238C001825E96E000E1921EA6EEECF18F1EECF8A
:10239C0019F1DAD001011951010A02E16E0E181976
:1023AC0045E10001C2531EE0000E451802E1010E8A
:1023BC0044180CE15E50010F006E180E046E9FEC79
:1023CC0001F008C000F000C05EF00BD04B50010FC4
:1023DC00006E180E046E9FEC01F008C000F000C0F7
:1023EC004BF023D00101175315E0020E046E000EC2
:1023FC00056E44C000F045C001F02AEC03F008C0A3
:10240C0000F009C001F0010E0024446E000E012002
:10241C00456E0BD0240E01011825E96E000E192112
:10242C00EA6EEECF18F1EECF19F18ED001011951F1
:10243C00010A02E1980E18194EE10001C25327E07F
:10244C00000E451802E1010E441811E1464A472AD4
:10245C00800E4918006E800E4718005C02E1465051
:10246C00485C04E248C046F049C047F00FD0484AE7
:10247C00492A800E006E800E4918005C02E148501B
:10248C00320804E2320E486E000E496E23D0010170
:10249C00175315E0020E046E000E056E44C000F0DA
:1024AC0045C001F02AEC03F008C000F009C001F0AF
:1024BC00010E0024446E000E0120456E0BD0240E3C
:1024CC0001011825E96E000E1921EA6EEECF18F104
:1024DC00EECF19F139D001011951000A02E1C30EF6
:1024EC00181902E14A1E30D01951000A02E1ED0E12
:1024FC00181902E1C21F28D01951000A02E15F0E1F
:10250C0018190DE10B0E046E1FC300F09FEC01F0C7
:10251C0008C000F00050010F03011F6F15D001011E
:10252C001951000A02E1890E181903E10301201F59
:10253C000BD0240E01011825E96E000E1921EA6E4C
:10254C00EECF18F1EECF19F1416A03012151FF0AC8
:10255C00D8A4A8D101011951010A02E11A0E1819C7
:10256C00D8A493D00001C253D8B47CD0250E050159
:10257C00B96F000EBA6FC6EC0AF0000E451802E1F6
:10258C00030E44180BE12B50000A03E1630E2B6E73
:10259C0004D02B04006E00C02BF04ED0000E45185A
:1025AC0002E1020E44180BE12A50010A03E10C0E61
:1025BC002A6E04D02A04006E00C02AF03DD0000E12
:1025CC00451802E1010E441815E12950010A0DE1EC
:1025DC002A04006E2C0EE96E000EEA6E0050E926FD
:1025EC00D8B0EA2AEECF29F004D02904006E00C03E
:1025FC0029F022D0000E451802E1040E44180BE11C
:10260C002750000A03E1170E276E04D02704006E32
:10261C0000C027F011D0000E451802E1050E441839
:10262C000BE12650000A03E13B0E266E04D0260473
:10263C00006E00C026F000D00501250EB96F000E0B
:10264C00BA6F85EC0AF0250EB96F000EBA6F380E12
:10265C00BB6F000EBC6F4C0EBD6F000EBE6FDBEC83
:10266C000BF012D0010117530FE0000E451802E1D8
:10267C00010E441805E1050E446E000E456E04D0A3
:10268C00010E445E000E455A0BD101011951010A8D
:10269C0002E1440E181939E10001C25317E0440459
:1026AC00006E570EE16E000EE26E0050E126D8B0BF
:1026BC00E22A570EE96E000EEA6E0050E926D8B0F9
:1026CC00EA2AEE1C006E00C0E6FF1ED00101175373
:1026DC0010E0000E451802E1010E441805E1070E4A
:1026EC00446E000E456E04D0010E445E000E455A39
:1026FC000BD00101260E1825E96E000E1921EA6E89
:10270C00EECF18F1EECF19F1CBD001011951010A1E
:10271C0002E16E0E18193DE10001C25316E0000EE5
:10272C00451802E1010E441808E15E50000A03E16D
:10273C00170E5E6E01D05E0607D04B50000A03E107
:10274C00170E4B6E01D04B0623D00101175315E029
:10275C00020E046E000E056E44C000F045C001F080
:10276C002AEC03F008C000F009C001F0010E0024AF
:10277C00446E000E0120456E0BD0260E010118256B
:10278C00E96E000E1921EA6EEECF18F1EECF19F1B9
:10279C0087D001011951010A02E1980E18194BE179
:1027AC000001C25329E0000E451802E1010E441845
:1027BC0010E1010E465E000E475A800E4718006E5F
:1027CC00800E005C02E1000E465C02E2466A476A3B
:1027DC0012D0010E485E000E495A800E4918006E48
:1027EC00800E4718005C02E14650485C04E246C08B
:1027FC0048F047C049F01ED00101175310E0000EFD
:10280C00451802E1010E441805E1020E446E000E5B
:10281C00456E04D0010E446E000E456E0BD00101C6
:10282C00260E1825E96E000E1921EA6EEECF18F16E
:10283C00EECF19F135D001011951000A02E1C30E96
:10284C00181902E14A1E2CD01951000A02E1ED0EB2
:10285C00181902E1C21F24D01951000A02E15F0EBF
:10286C00181909E103011F51010A03E10B0E1F6F37
:10287C0001D01F0715D001011951000A02E1890E80
:10288C00181903E10301201F0BD0260E0101182596
:10289C00E96E000E1921EA6EEECF18F1EECF19F1A8
:1028AC000301216B1EC3B9F582EC0BF00EEC0CF09E
:0628BC00C6EF0FF0120050
:1028C200A40E0501C66F050EC76F080EC86FC96B4F
:1028D2005AEC04F0BF0EA617100EAB6FA40EC66F13
:1028E200050EC76F080EC86FC96B51EC05F0016A7F
:1028F200A4BF012A0150000AFF0ED8A4000E006EE8
:1029020000C0B6F000C0A3F57F0EA4150001B36F9E
:06291200A3C500F0120055
:1029180043C0B9F554EC09F0250E0501B96F000E56
:0E292800BA6FF5EC08F00EEC0CF0F2D71200CE
:102936001EC3B9F554EC09F0010E0501CE6FAEECDD
:1029460001F00101175306E00E0E0501CE6FAEEC45
:1029560001F00ED00001C25306E00F0E0501CE6F46
:10296600AEEC01F005D00C0E0501CE6FAEEC01F019
:102976000001C25101011711006ED8B4A5D1195139
:10298600030A02E1900E181901E19ED11951010ABC
:1029960002E11A0E1819D8A483D0020E0501CE6FD3
:1029A600AEEC01F0000E451802E1010E441806E1F6
:1029B600800E0501CE6FAEEC01F071D0000E451809
:1029C60002E1020E441815E1800E0501CE6FAEEC51
:1029D60001F0140E0501CE6FAEEC01F0140E0501E8
:1029E600CE6FAEEC01F0140E0501CE6FAEEC01F029
:1029F60056D0000E451802E1030E441829E1800E58
:102A06000501CE6FAEEC01F0140E0501CE6FAEECF3
:102A160001F0140E0501CE6FAEEC01F0140E0501A7
:102A2600CE6FAEEC01F0140E0501CE6FAEEC01F0E8
:102A3600140E0501CE6FAEEC01F0140E0501CE6F3B
:102A4600AEEC01F0140E0501CE6FAEEC01F027D00E
:102A5600000E451802E1040E441806E1C00E0501F9
:102A6600CE6FAEEC01F01BD0000E451802E1050E4C
:102A7600441815E1C00E0501CE6FAEEC01F0140E40
:102A86000501CE6FAEEC01F0140E0501CE6FAEEC73
:102A960001F0140E0501CE6FAEEC01F000D014D19A
:102AA60001011951010A02E1440E18191DE1020E35
:102AB6000501CE6FAEEC01F0C00E0501CE6FAEEC97
:102AC60001F0010EBA6F000EBB6F140E0501CE6F3A
:102AD600AEEC01F0000EBB1902E10E0EBA1903E0CE
:102AE600BA4BBB2BF2D7F0D001011951010A02E112
:102AF6006E0E181936E1020E0501CE6FAEEC01F02E
:102B0600C00E0501CE6FAEEC01F0000E451802E1D5
:102B1600010E441813E1010EBA6F000EBB6F140EBE
:102B26000501CE6FAEEC01F0000EBB1902E1030EFB
:102B3600BA1903E0BA4BBB2BF2D712D0010EBA6F0B
:102B4600000EBB6F140E0501CE6FAEEC01F0000E49
:102B5600BB1902E10F0EBA1903E0BA4BBB2BF2D731
:102B6600B3D001011951010A02E1980E181936E194
:102B7600020E0501CE6FAEEC01F0C00E0501CE6F60
:102B8600AEEC01F0000E451802E1010E441813E107
:102B9600010EBA6F000EBB6F140E0501CE6FAEECC0
:102BA60001F0000EBB1902E1060EBA1903E0BA4B9A
:102BB600BB2BF2D712D0010EBA6F000EBB6F140EEC
:102BC6000501CE6FAEEC01F0000EBB1902E10F0E4F
:102BD600BA1903E0BA4BBB2BF2D776D001011951D3
:102BE600000A02E1C30E18191DE1020E0501CE6F9F
:102BF600AEEC01F0800E0501CE6FAEEC01F0010ED9
:102C0600BA6F000EBB6F140E0501CE6FAEEC01F06D
:102C1600000EBB1902E10E0EBA1903E0BA4BBB2B2C
:102C2600F2D752D001011951000A02E1ED0E18192E
:102C36001DE1020E0501CE6FAEEC01F0C00E0501DE
:102C4600CE6FAEEC01F0010EBA6F000EBB6F140E24
:102C56000501CE6FAEEC01F0000EBB1902E1080EC5
:102C6600BA1903E0BA4BBB2BF2D72ED0010119518A
:102C7600000A02E15F0E181910E1020E0501CE6F7F
:102C8600AEEC01F0C00E0501CE6FAEEC01F0140EF5
:102C96000501CE6FAEEC01F017D001011951000A03
:102CA60002E1890E181910E1020E0501CE6FAEEC95
:102CB60001F0C00E0501CE6FAEEC01F0140E050159
:102CC600CE6FAEEC01F000D001011951030A02E10A
:102CD600900E181901E1E2D31951010A02E11A0E08
:102CE600181901E1DBD31951010A02E1440E181942
:102CF6003AE14404006E570EE96E000EEA6E00508B
:102D0600E926D8B0EA2AEE50FF0A09E1200E0301AF
:102D16008B6F4F0E8C6F4E0E8D6F8E6B08D003012E
:102D26004F0E8B6F460E8C6F460E8D6F8E6B550E4B
:102D36000501B96F010EBA6F4404006E000E016EF4
:102D46000E0E046E000E056E75EC00F0220E0024C9
:102D5600BB6F030E0120BC6F8B0EBD6F030EBE6FE3
:102D660016EC09F09BD301011951010A02E16E0E1E
:102D7600181978E17F0E0501B96F010EBA6FA36BC2
:102D8600A30EBB6F050EBC6FA46BA40EBD6F050E24
:102D9600BE6F16EC09F07F0E0501B96F010EBA6F12
:102DA6007F0EBB6F010EBC6F530EA36F3A0EA46F5E
:102DB600200EA56FA66BA30EBD6F050EBE6F16EC9B
:102DC60009F05EC0C6F5840E0501C76F030EC86F15
:102DD60084EC04F07F0EB96F010EBA6F7F0EBB6FE5
:102DE600010EBC6F840EBD6F030EBE6F16EC09F0AC
:102DF6007F0E0501B96F010EBA6F7F0EBB6F010E14
:102E0600BC6F200EA36F200EA46F200EA56F200EA0
:102E1600A66F200EA76F450EA86F3A0EA96F200E5B
:102E2600AA6FAB6BA30EBD6F050EBE6F16EC09F055
:102E36004BC0B9F5000E0501BA6F840EBB6F030EC9
:102E4600BC6F07EC0BF07F0EB96F010EBA6F7F0EE9
:102E5600BB6F010EBC6F840EBD6F030EBE6F16EC0A
:102E660009F01CD301011951010A02E1980E181943
:102E7600D8A47ED07F0E0501B96F010EBA6FA36B81
:102E8600A30EBB6F050EBC6FA46BA40EBD6F050E23
:102E9600BE6F16EC09F07F0E0501B96F010EBA6F11
:102EA6007F0EBB6F010EBC6F4D0EA36F610EA46F3C
:102EB600780EA56F3A0EA66F200EA76FA86BA30E0D
:102EC600BD6F050EBE6F16EC09F046C0B9F547C0DA
:102ED600BAF5840E0501BB6F030EBC6F07EC0BF051
:102EE6007F0EB96F010EBA6F7F0EBB6F010EBC6FFE
:102EF600840EBD6F030EBE6F16EC09F07F0E050142
:102F0600B96F010EBA6F7F0EBB6F010EBC6F200E3C
:102F1600A36F200EA46F200EA56F4D0EA66F690E2F
:102F2600A76F6E0EA86F3A0EA96F200EAA6FAB6B35
:102F3600A30EBD6F050EBE6F16EC09F046C0B9F5BF
:102F460047C0BAF5840E0501BB6F030EBC6F07ECD4
:102F56000BF07F0EB96F010EBA6F7F0EBB6F010EBD
:102F6600BC6F840EBD6F030EBE6F16EC09F096D2D1
:102F760001011951000A02E1C30E181967E1C30ED7
:102F86000501B96F000EBA6FA36BA30EBB6F050EDA
:102F9600BC6FA46BA40EBD6F050EBE6F16EC09F0D8
:102FA600C30E0501B96F000EBA6FC30EBB6F000EDC
:102FB600BC6F4C0EA36F6F0EA46F630EA56F6B0EE6
:102FC600A66F650EA76F640EA86F3A0EA96F200E46
:102FD600AA6F200EAB6F200EAC6F200EAD6FAE6BDE
:102FE600A30EBD6F050EBE6F16EC09F04A5217E030
:102FF600C30E0501B96F000EBA6FC30EBB6F000E8C
:10300600BC6F200EA36F4F0EA46F4E0EA56FA66B5E
:10301600A30EBD6F050EBE6F16EC09F016D0C30EDB
:103026000501B96F000EBA6FC30EBB6F000EBC6F01
:103036004F0EA36F460EA46F460EA56FA66BA30E8A
:10304600BD6F050EBE6F16EC09F028D201011951AD
:10305600000A02E1ED0E181959E1FE0E0501B96FDD
:10306600000EBA6FA36BA30EBB6F050EBC6FA46BED
:10307600A40EBD6F050EBE6F16EC09F04A5223E092
:10308600FE0E0501B96F000EBA6FFE0EBB6F000E85
:10309600BC6F200EA36F200EA46F200EA56F200E0E
:1030A600A66F200EA76F200EA86F200EA96F4F0ED9
:1030B600AA6F4E0EAB6FAC6BA30EBD6F050EBE6F47
:1030C60016EC09F022D0FE0E0501B96F000EBA6F9C
:1030D600FE0EBB6F000EBC6F200EA36F200EA46FFA
:1030E600200EA56F200EA66F200EA76F200EA86FCC
:1030F6004F0EA96F460EAA6F460EAB6FAC6BA30EB2
:10310600BD6F050EBE6F16EC09F0C8D1010119514D
:10311600000A02E15F0E1819D8A498D103011F51C5
:10312600010A21E1410E0001706F6C0E716F6C0E89
:10313600726F200E736F660E746F6F0E756F750E5D
:10314600766F720E776F200E786F720E796F6F0E34
:103156007A6F6F0E7B6F6D0E7C6F730E7D6F200E18
:103166007E6F7F6B72D103011F51020A21E1520E5D
:103176000001706F6F0E716F6F0E726F6D0E736F51
:10318600310E746F200E756F2B0E766F200E776FD3
:10319600520E786F6F0E796F6F0E7A6F6D0E7B6FB2
:1031A600320E7C6F200E7D6F200E7E6F7F6B4DD1B1
:1031B60003011F51030A21E1520E0001706F6F0EC9
:1031C600716F6F0E726F6D0E736F310E746F200E0E
:1031D600756F2B0E766F200E776F520E786F6F0E0F
:1031E600796F6F0E7A6F6D0E7B6F330E7C6F200ECC
:1031F6007D6F200E7E6F7F6B28D103011F51040A5D
:1032060021E1520E0001706F6F0E716F6F0E726FBB
:103216006D0E736F310E746F200E756F2B0E766FF9
:10322600200E776F520E786F6F0E796F6F0E7A6F72
:103236006D0E7B6F340E7C6F200E7D6F200E7E6FC1
:103246007F6B03D103011F51050A21E1520E0001D4
:10325600706F6F0E716F6F0E726F6D0E736F320E31
:10326600746F200E756F2B0E766F200E776F520ED1
:10327600786F6F0E796F6F0E7A6F6D0E7B6F330EF0
:103286007C6F200E7D6F200E7E6F7F6BDED003017C
:103296001F51060A21E1520E0001706F6F0E716F09
:1032A6006F0E726F6D0E736F320E746F200E756F28
:1032B6002B0E766F200E776F520E786F6F0E796F2A
:1032C6006F0E7A6F6D0E7B6F340E7C6F200E7D6FE6
:1032D600200E7E6F7F6BB9D003011F51070A21E1D3
:1032E600520E0001706F6F0E716F6F0E726F6D0E62
:1032F600736F330E746F200E756F2B0E766F200E64
:10330600776F520E786F6F0E796F6F0E7A6F6D0E44
:103316007B6F340E7C6F200E7D6F200E7E6F7F6B71
:1033260094D003011F51080A21E1520E0001706F6B
:103336006F0E716F6F0E726F6D0E736F310E746F4D
:10334600200E756F6F0E766F6E0E776F6C0E786F40
:10335600790E796F200E7A6F200E7B6F200E7C6FB0
:10336600200E7D6F200E7E6F7F6B6FD003011F5185
:10337600090A21E1520E0001706F6F0E716F6F0E18
:10338600726F6D0E736F320E746F200E756F6F0E47
:10339600766F6E0E776F6C0E786F790E796F200EE2
:1033A6007A6F200E7B6F200E7C6F200E7D6F200EB5
:1033B6007E6F7F6B4AD003011F510A0A21E1520E2C
:1033C6000001706F6F0E716F6F0E726F6D0E736FFF
:1033D600330E746F200E756F6F0E766F6E0E776FED
:1033E6006C0E786F790E796F200E7A6F200E7B6FD8
:1033F600200E7C6F200E7D6F200E7E6F7F6B25D09A
:1034060003011F510B0A21E1520E0001706F6F0E6E
:10341600716F6F0E726F6D0E736F340E746F200EB8
:10342600756F6F0E766F6E0E776F6C0E786F790E06
:10343600796F200E7A6F200E7B6F200E7C6F200E28
:103446007D6F200E7E6F7F6B00D028D00101195151
:10345600000A02E1890E181921E1030120530FE049
:103466004D0E00019A6F6F0E9B6F640E9C6F650E7A
:103476009D6F200E9E6F310E9F6FA06B0ED00001C8
:103486004D0E9A6F6F0E9B6F640E9C6F650E9D6F4F
:10349600200E9E6F320E9F6FA06B00D0010E0501AD
:1034A600B96F010EBA6F18C1BBF519C1BCF56FEC47
:1034B60008F0020E0501B96F010EBA6F110E010177
:1034C60018250501BB6F000E010119210501BC6F0E
:0E34D6006FEC08F00EEC0CF09BEF14F01200FF
:1034E4001F0E2C6E1C0E2D6E1F0E2E6E1E0E2F6EBA
:1034F4001F0E306E1E0E316E1F0E326E1F0E336E97
:103504001E0E346E1F0E356E1E0E366E1F0E376E77
:10351400570E0301906F650E916F6C0E926F630EE0
:10352400936F6F0E946F6D0E956F650E966F2C0EE4
:10353400976F200E986F4C0E996F610E9A6F630E01
:103544009B6F690E9C6F210E9D6F9E6BC30EB86FAF
:10355400010EB96F900EB26F030EB36F900EB46F7D
:10356400030EB56F900EB66F030EB76F900E010188
:10357400186F030E196F010E0301BA6F000EBB6FB3
:10358400BA05006E000E016E2A0E046E000E056E62
:1035940075EC00F0C30E0026010E0122240E002457
:1035A4000501A36F000E0120A46F0301BA51010F9E
:1035B400006E0006000E016E2A0E046E000E056EEB
:1035C40075EC00F0C30E0026010E0122A3C5E1FF35
:1035D400A4C5E2FF00C0E6FF01C0E6FF000EBB1970
:1035E40002E1060EBA1903E0BA4BBB2BC9D7C30ECE
:1035F4000201E36F010EE46F070E0301BA6F000EC0
:10360400BB6FBA050501A56FA5C500F0000E016EDC
:103614002A0E046E000E056E75EC00F0C30E002633
:10362400010E0122260E0024A36F000E0120A46FB8
:10363400A505006E000E016E2A0E046E000E056EC6
:1036440075EC00F0C30E0026010E0122A3C5E1FFB4
:10365400A4C5E2FF00C0E6FF01C0E6FF000E0301BF
:10366400BB1902E1020EBA1905E0010EBA5F000EA1
:10367400BB5BC7D7BF0E0101E96F020EEA6F010EF3
:103684000301BA6F000EBB6FBA05006E000E016E27
:103694002A0E046E000E056E75EC00F0C30E0026B3
:1036A400010E0122220E0024E16E000E0120E26EC2
:1036B400900EE66E030EE66E000EBB1902E1070ED5
:1036C400BA1903E0BA4BBB2BDFD7010EBA6F000E59
:1036D400BB6FBA05006E000E016E2A0E046E000E5A
:1036E400056E75EC00F0C30E0024026E010E01207D
:1036F400036E280E0224E16E000E0320E26EC30E58
:103704000026010E012200C0E6FF01C0E6FF000E04
:10371400BB1902E1070EBA1903E0BA4BBB2BD9D788
:103724001A0E0101EB6F010EEC6F440E0201156FCE
:10373400010E166FC30E3F6F000E406FED0E696FE2
:10374400000E6A6F5F0E936F000E946FC30E01013B
:103754003C6F010E3D6F1A0E3E6F010E3F6F1A0E45
:10376400406F010E416F1A0E426F010E436F010E3E
:103774000301BA6F000EBB6FBA05006E000E016E36
:103784002A0E046E000E056E75EC00F0440E002641
:10379400010E0122220E0024E16E000E0120E26ED1
:1037A400ED0EE66E010EE66EBA05006E000E016EB9
:1037B4002A0E046E000E056E75EC00F0440E002413
:1037C400026E010E0120036E280E0224E16E000E2B
:1037D4000320E26E440E0026010E012200C0E6FF23
:1037E40001C0E6FF000EBB1902E1030EBA1903E0A3
:1037F400BA4BBB2BC1D7980E0101926F010E936F88
:10380400440E946F010E956F980E6A6F010E6B6FE4
:10381400440EBC6F010EBD6F6E0E686F010E696FB2
:103824006E0EBE6F010EBF6F170E0001E56F020E24
:10383400E66FC30EE76F000EE86FC30EE96F000E6C
:10384400EA6FC30EEB6F000EEC6F410E01010F6FB8
:10385400020E106FED0E116F000E126FED0E136F4E
:10386400000E146FED0E156F000E166F890E000119
:10387400836F000E846F5F0EAD6F000EAE6F890E06
:10388400856F000E866F5F0EAF6F000EB06F5F0E18
:10389400876F000E886F890EB16F000EB26F6B0ECA
:1038A400816F020E826F6B0EAB6F020EAC6F540E03
:1038B4000301906F310E916F3A0E926F200E936F49
:1038C400200E946F200E956F200E966F200E976F2A
:1038D400540E986F320E996F3A0E9A6F200E9B6FAA
:1038E400200E9C6F200E9D6F200E9E6F9F6B540EBA
:1038F400A16F330EA26F3A0EA36F200EA46F200E99
:10390400A56F200EA66F200EA76F200EA86F540E71
:10391400A96F340EAA6F3A0EAB6F200EAC6F200E57
:10392400AD6F200EAE6F200EAF6FB06B310E010184
:10393400C36F2E0EC46F200EC56F440EC66F610E8A
:10394400C76F740EC86F650EC96F2F0ECA6F540E01
:10395400CB6F690ECC6F6D0ECD6F650ECE6FCF6BD6
:10396400D46B320EED6F2E0EEE6F200EEF6F460EFF
:10397400F06F750EF16F6E0EF26F630EF36F740ECF
:10398400F46F690EF56F6F0EF66F6E0EF76F690EBA
:10399400F86F6E0EF96F670EFA6FFB6B200EFE6FF9
:1039A400200EFF6F200E0201006F200E016F200E0B
:1039B400026F490E036F6E0E046F740E056F650E71
:1039C400066F720E076F760E086F610E096F6C0E2C
:1039D4000A6F0B6B330E176F2E0E186F200E196FB4
:1039E4004C0E1A6F6F0E1B6F630E1C6F6B0E1D6FE8
:1039F400200E1E6F530E1F6F650E206F740E216F05
:103A0400740E226F690E236F6E0E246F670E256F7E
:103A1400730E266F276B286B340E416F2E0E426F88
:103A2400200E436F530E446F740E456F610E466F44
:103A3400740E476F750E486F730E496F200E4A6FF0
:103A44004C0E4B6F450E4C6F440E4D6F4E6B526BCC
:103A5400350E6B6F2E0E6C6F200E6D6F530E6E6FE6
:103A6400740E6F6F610E706F6E0E716F640E726FF5
:103A7400620E736F790E746F200E756F440E766F3D
:103A8400690E776F730E786F700E796F7A6B200EF4
:103A94007C6F200E7D6F200E7E6F200E7F6F530E85
:103AA400806F650E816F740E826F740E836F690E62
:103AB400846F6E0E856F670E866F730E876F886BCB
:103AC400360E956F2E0E966F200E976F4C0E986FD4
:103AD4006F0E996F670E9A6F9B6BA66B370EBF6F55
:103AE4002E0EC06F200EC16F4D0EC26F650EC36FD8
:103AF4006E0EC46F750EC56FC66BD06B640E01017C
:103B04001A6F610E1B6F740E1C6F650E1D6F1E6B9A
:103B1400740E2B6F690E2C6F6D0E2D6F650E2E6F4C
:103B24002F6B320E446F2E0E456F310E466F200EF2
:103B3400476F440E486F610E496F790E4A6F730EDA
:103B44004B6F4C6B550E0501B96F010EBA6F220E07
:103B5400BB6F030EBC6F8B0EBD6F030EBE6F16ECF6
:103B640009F0320E01016E6F2E0E6F6F320E706F00
:103B7400200E716F480E726F6F0E736F750E746F37
:103B8400720E756F730E766F776B530E7F6F3A0EEE
:103B9400806F200E816F320E826F310E836F3B0E69
:103BA400846F200E856F200E866F200E876F200E87
:103BB400886F200E896F450E8A6F3A0E8B6F200E28
:103BC4008C6F200E8D6F370E8E6F8F6B320E986F49
:103BD4002E0E996F330E9A6F200E9B6F540E9C6FAE
:103BE400650E9D6F6D0E9E6F700E9F6F2E0EA06FF3
:103BF400200EA16F4C0EA26F690EA36F6D0EA46F01
:103C0400690EA56F740EA66F730EA76FA86B4D0E89
:103C1400A96F690EAA6F6E0EAB6F3A0EAC6F200ED1
:103C2400AD6F310EAE6F390EAF6F3B0EB06F200E1D
:103C3400B16F4D0EB26F610EB36F780EB46F3A0E62
:103C4400B56F200EB66F320EB76F320EB86FB96B08
:103C54004C0E0001C36F6F0EC46F630EC56F6B0E05
:103C6400C66F650EC76F640EC86F3A0EC96F200E1B
:103C7400CA6F200ECB6F200ECC6F200ECD6F200E9E
:103C8400CE6F4F0ECF6F460ED06F460ED16FD26BF4
:103C9400D46B530EED6F740EEE6F610EEF6F740EF6
:103CA400F06F750EF16F730EF26F200EF36F4C0E02
:103CB400F46F450EF56F440EF66F3A0EF76FF86B1E
:103CC400200EFE6F200EFF6F200E0101006F200EEC
:103CD400016F200E026F200E036F200E046F200E62
:103CE400056F4F0E066F4E0E076F086B360E5F6E34
:103CF4002E0E0001606F310E616F200E626F520E46
:103D0400636F6F0E646F6F0E656F6D0E666F200EBE
:103D1400676F440E686F690E696F730E6A6F700E79
:103D24006B6F6C0E6C6F610E6D6F790E6E6F6F6BD7
:103D3400410E706F6C0E716F6C0E726F200E736F8C
:103D4400660E746F6F0E756F750E766F720E776FE9
:103D5400200E786F720E796F6F0E7A6F6F0E7B6F15
:103D64006D0E7C6F730E7D6F7E6B360E896F2E0E1B
:103D74008A6F320E8B6F200E8C6F440E8D6F690E1E
:103D84008E6F730E8F6F700E906F6C0E916F610E4D
:103D9400926F790E936F200E946F4D0E956F6F0E88
:103DA400966F640E976F650E986F996B4D0E9A6FB0
:103DB4006F0E9B6F640E9C6F650E9D6F200E9E6F41
:083DC400310E9F6FA06B12008D
:103DCC00320E0501B96F000EBA6F14EC0AF0250E15
:103DDC000501B96F000EBA6F96EC07F0250EB96F9E
:103DEC00000EBA6F380EBB6F000EBC6F4C0EBD6F61
:103DFC00000EBE6FDBEC0BF00EEC0CF0E1D71200FA
:103E0C00939093928A908A9293809382C79EC79C38
:063E1C00380EC66E120014
:103E2200949294909598959A959C959E8B928B904E
:103E32008C9E8C9C8C9A8C986AEC00F06AEC00F058
:103E42006AEC00F08C8A8C888B824EEC00F08B92AC
:103E52006AEC00F08B824EEC00F08B926AEC00F080
:103E62008B824EEC00F08B926AEC00F08C988B8285
:103E72004EEC00F08B926AEC00F08B824EEC00F07C
:103E82008B928C9A8C8E8B824EEC00F08B926AEC29
:103E920000F08C9E8C888B824EEC00F08B928C987A
:103EA2008B824EEC00F08B926AEC00F08B824EEC2F
:103EB20000F08B928C888B824EEC00F08B926AEC35
:103EC20000F08C988B824EEC00F08B928C8E8C8C56
:103ED2008C8A8C888B824EEC00F08B926AEC00F01C
:063EE20003011281120031
:103EE800070E0B6E170E0C6E6A0E0D6E0D2EFED79A
:103EF8000C2EFCD70B2EFAD70000FF0E8B6EFF0E90
:103F0800946EFF0E8C6EFF0E956E9494939A938820
:103F180096809682968495809582958495867DDF95
:103F2800010E0501CE6FAEEC01F00C0E0501CE6F4F
:103F3800AEEC01F0010EBA6F000EBB6FBA05036E4E
:103F480003C000F0000E016E003600900136090E25
:103F58000024E16E030E0120E26EE66AE66A000EB6
:103F6800BB1902E1040EBA1903E0BA4BBB2BE6D722
:103F78001A6B010EBA6F000EBB6FBA05006E570EB2
:103F8800E16E000EE26E0050E126D8B0E22AE66A41
:103F9800000EBB1902E1070EBA1903E0BA4BBB2B9E
:103FA800ECD74D0E226F6F0E236F6E0E246F640ECA
:103FB800256F610E266F790E276F200E286F200E51
:103FC800296F200E2A6F200E2B6F200E2C6F200ECB
:103FD8002D6F200E2E6F2F6B540E306F750E316FB4
:103FE800650E326F730E336F640E346F610E356F6A
:103FF800790E366F200E376F200E386F200E396F0E
:10400800200E3A6F200E3B6F200E3C6F3D6B570E13
:104018003E6F650E3F6F640E406F6E0E416F730EFC
:10402800426F640E436F610E446F790E456F200E28
:10403800466F200E476F200E486F200E496F200EE6
:104048004A6F4B6B540E4C6F680E4D6F750E4E6F6A
:10405800720E4F6F730E506F640E516F610E526F78
:10406800790E536F200E546F200E556F200E566F29
:10407800200E576F200E586F596B460E5A6F720EEE
:104088005B6F690E5C6F640E5D6F610E5E6F790E1B
:104098005F6F200E606F200E616F200E626F200E22
:1040A800636F200E646F200E656F200E666F676B5E
:1040B800530E686F610E696F740E6A6F750E6B6FC1
:1040C800720E6C6F640E6D6F610E6E6F790E6F6F8E
:1040D800200E706F200E716F200E726F200E736F9E
:1040E800200E746F756B530E766F750E776F6E0EAC
:1040F800786F640E796F610E7A6F790E7B6F200E80
:104108007C6F200E7D6F200E7E6F200E7F6F200E3D
:10411800806F200E816F200E826F836B4F0E8B6F26
:10412800460E8C6F460E8D6F8E6B130E466E000E0C
:10413800476E160E486E000E496E070E5E6E150E1F
:104148004B6E4A6AFF0E0101C26F010E03011F6F19
:10415800FF0E206F0001C26B0101176B010E446E48
:10416800000E456E3F0EC16E780EC86E4BDE61ECD8
:1041780014F01F0E0B6E710E0C6E1E0E0D6E0D2EB2
:10418800FED70C2EFCD70B2EFAD70000250E050102
:10419800B96F000EBA6F380EBB6F000EBC6F4C0EB5
:1041A800BD6F000EBE6FDBEC0BF072EC1AF0010E67
:1041B8000501B96F010EBA6F640E9F6F640EA06F90
:1041C800640EA16FA26B9F0EBB6F050EBC6F6FECE8
:1041D80008F0FFEC0CF0F60EA36F1D0EA46F000E96
:1041E800A56F000EA66F020EA76F67EC0CF000C05B
:1041F800E9F2CC0EA36F3D0EA46F000EA56F000E62
:10420800A66F010EA76F67EC0CF000C0EAF2360E3D
:10421800A36F290EA46F000EA56F000EA66F010EE6
:10422800A76F67EC0CF000C017F3A20EA36F1C0E6B
:10423800A46F000EA56F000EA66FA76B67EC0CF0BD
:1042480000C018F38C0EA36F1F0EA46F000EA56F8D
:10425800000EA66F030EA76F67EC0CF000C019F3F1
:10426800180EA36F290EA46F000EA56F000EA66F7F
:10427800030EA76F67EC0CF000C016F3A36B81EC7C
:104288000DF000C01EF3A36B81EC0DF000C0B4F07C
:10429800A36B81EC0DF000C043F0E9C2A3F5CAECB2
:1042A8000CF0EAC2A3F5CAEC0CF017C3A3F5CAECEC
:1042B8000CF018C3A3F5CAEC0CF019C3A3F5CAECAB
:1042C8000CF016C3A3F5CAEC0CF0CD88CD9ACD92AC
:1042D800400ECE6EA20ECF6E9D90CD809E90C00EE9
:0C42E800F26E8B748B7450EC0DF0FFD75D
:020000040030CA
:0E000000240E3E1EFF8181FF0FC00FE00F4057
:00000001FF
