:04000000D1EF26F026
:1000080000C01EF001C01DF002C01CF003C01BF0B0
:1000180004C01AF005C019F008C018F009C017F09C
:100028000AC016F00BC015F0E1CF23F0E2CF24F0A0
:10003800E9CF21F0EACF22F0F3CF1FF0F4CF20F080
:100048009EA007D09E90A20ECF6E400ECE6E9CEC66
:1000580012F01FC0F3FF20C0F4FF1EC000F01DC047
:1000680001F01CC002F01BC003F01AC004F019C054
:1000780005F018C008F017C009F016C00AF015C03E
:100088000BF021C0E9FF22C0EAFF23C0E1FF24C032
:04009800E2FF110072
:10009C00560E0C6EB50E0D6E0D2EFED70C2EFCD71B
:0600AC000000000012003C
:0E00B200C70E0D6E0D2EFED7000000001200CE
:1000C000026AC7B408D01F0EC514016E0150000AA1
:0C00D00002E1FF0E026E02C000F0120000
:0E00DC00030E0D6E0D2EFED700000000120068
:1000EA000B6A0A6A096A00500402F4CF09F0F3CFD6
:1000FA0008F001500502F4CF0BF0F3CF0AF00050DC
:10010A000502F3500926F4500A22E86A0B2201502C
:10011A000402F3500926F4500A22E86A0B2208C0A6
:10012A0000F009C001F00AC002F00BC003F012008F
:10013A000134083609360450085E0550D8A0053C3B
:10014A00095E003601360F0E0C6E01340836093688
:10015A00045000A006D0085E0550D8A0053C095EF0
:10016A0005D008260550D8B0053C092600360136C8
:10017A000C2EEBD700B006D0045008260550D8B094
:08018A00053C092600001200EB
:100192000501DC6BDD6B93DF0050000A01E00AD041
:1001A2000501DD51120A02E18E0EDC1903E0DC4B7F
:1001B200DD2BF1D70501120EDD5D02E18F0EDC5D54
:1001C20003E37B0EDB6F06D0C580C5A002D0000022
:0A01D200FCD7DB6BDBC500F0120068
:1001DC009E96DBC5C9FFC7A402D00000FCD79EB613
:1001EC0002D00000FCD7C5BC02D0016A03D0C58484
:0A01FC00020E016E01C000F01200B7
:100206009E96C5869EB602D00000FCD7C9CF01F0E7
:10021600C59A0501DB51000AD8B4C58A9E96C588E1
:0E0226009EB602D00000FCD701C000F012000E
:0C023400C582C5A202D00000FCD7120059
:10024000086A080E0C6E003408360450085ED8B0F8
:0E02500002D00826D89000360C2EF5D71200EA
:10025E00DBC500F00032009E0032009E0032009E90
:10026E000032009EDCC5E1FFDDC5E2FF300E00244A
:10027E00E66E0501DC4BDD2B0F0EDB15006EDCC5CB
:0E028E00E1FFDDC5E2FF300E0024E66E120037
:10029C00000E0006015ADECFE6FF0006015AFBE213
:0202AC0012003E
:1002AE00DBC501F0DCC502F0DDC503F0DEC504F0F0
:1002BE00000E0501E01902E1000EDF1913E0010E38
:1002CE00DF5F000EE05B03C0E9FF04C0EAFF01C080
:1002DE00E1FF02C0E2FFEECFE6FF014A022A034A27
:0602EE00042AE6D712000D
:1002F40005019951FF0AD8B478D0A96BA951995D29
:10030400D8A073D0A9C500F0000E016E050E046ECE
:10031400000E056EE8DE800E0026050E012200C0E8
:100324009CF501C09DF5000EF2BE010E0301BE6FE7
:10033400F29E030E0024E96E000E0120EA6EEECF59
:1003440001F0EECF02F0000E006E0250005C02E1FC
:10035400015000083EE29CC5E9FF9DC5EAFFEECFCF
:1003640001F00150020A0CE1010E05019C25E16E29
:10037400000E9D21E26E010EE66E000EE66E21D0A7
:100384000501010E9C25026E000E9D21036E030ED5
:100394009C25D96E000E9D21DA6E02C0E9FF03C0D0
:1003A400EAFFEECF00F0EECF01F0DE500026DE5083
:1003B400012202C0E1FF03C0E2FF00C0E6FF01C06A
:1003C400E6FF030E9C25E16E000E9D21E26EE66AB7
:1003D400E66A0301BEB102D0F29E01D0F28E05019D
:1003E400A951991902E0A92B89D77D51FF0AD8B4E4
:1003F4007ED0A96BA9517D5DD8A079D0A9C500F0A4
:10040400000E016E280E046E000E056E6CDEE90E01
:100414000026030E012200C09AF501C09BF5220EAE
:100424000024E96E000E0120EA6EEE50030A5AE140
:10043400260E9A25D96E000E9B21DA6EDECF00F0CF
:10044400000E016E050E046E000E056E4CDE800E6D
:100454000026050E0122010E0024E96E000E012083
:10046400EA6EEECF01F0EECF02F0000E006E025005
:10047400005C02E10150000835E2260E9A25D96E8F
:10048400000E9B21DA6EDECF00F0000E016E050E29
:10049400046E000E056E27DE800E0026050E012276
:1004A400010E0024026E000E0120036E02C0E9FF5B
:1004B40003C0EAFFEECF00F0EECF01F0010E005EC4
:1004C400000E015A02C0E1FF03C0E2FF00C0E6FFD4
:1004D40001C0E6FF220E9A25E16E000E9B21E26E1A
:1004E400040EE66EA9517D1902E0A92B83D71200F0
:0E04F400270E0D6E0D2EFED700000000120028
:10050200020E0C6E350E0D6E0D2EFED70C2EFCD784
:06051200000000001200D1
:10051800080E0C6EC10E0D6E0D2EFED70C2EFCD7DC
:06052800000000001200BB
:10052E00DBC504F0DCC505F004C0E9FF05C0EAFF39
:10053E00EE50000A03E0044A052AF6D70501DB5106
:10054E00045C026EDC510558036E02C000F003C05D
:04055E0001F0120096
:100562000501DBBF02D08C9E01D08C8EDBBD02D098
:100572008C9C01D08C8CDBBB02D08C9A01D08C8AF3
:10058200DBB902D08C9801D08C880201EEB102D086
:100592008B8001D08B908B82A0DD8B920501DBB723
:1005A20002D08C9E01D08C8EDBB502D08C9C01D007
:1005B2008C8CDBB302D08C9A01D08C8ADBB102D056
:1005C2008C9801D08C880201EEB102D08B8001D0D0
:1005D2008B908B8282DD8B92EEA102D05EDD01D008
:0405E20067DD1200BF
:0405E600C5841200B6
:1005EA009D9083DEFF0E0301BF6F05017D51FF0A57
:1005FA00D8B49BD00301E66BE65105017E5DD8A015
:10060A0094D0C00EE96E030EEA6E0301E651E926A4
:10061A00D8B0EA2AEE50FF0A0AE1C00EE16E030ED4
:10062A00E26EE651E126D8B0E22A7DC5E6FFC00EA9
:10063A00E96E030EEA6EE651E926D8B0EA2AEECF51
:10064A00E5F3E52BE55105017D5D02E20301E56B6A
:10065A000301E5C300F0000E016E280E046E000EC1
:10066A00056E3EDDE90E0024026E030E0120036EC4
:10067A00220E0224E96E000E0320EA6EEECF03F08A
:10068A0003C0AAF5E90E0026030E0122230E002458
:10069A00E96E000E0120EA6EEECF02F002C0ABF561
:1006AA000350040AFF0ED8A4000E016E0250E61988
:1006BA00FF0ED8A4000E006E00500116C00ED96EAF
:1006CA00030EDA6EE651D926D8B0DA2AE551DE18D9
:1006DA00FF0ED8A4000E006E0150001201E1B1D73E
:1006EA000501AA51040AFF0ED8A4000E016EAB51EF
:1006FA000301E619FF0ED8A4000E006E0150001681
:10070A000DE0C00EE16E030EE26EE651E126D8B0AE
:10071A00E22AE5C3E6FFE5C3BFF307D0E6510501C8
:0E072A007E1903E00301E62B67D79D801200C5
:10073800BFC300F0000E016E280E046E000E056E99
:10074800D0DCE90E00240301E76F030E0120E86FF7
:10075800C30EE8CFE9FF030EE8CFEAFFE7C3E1FFE6
:10076800E8C3E2FF220EE6CFEEFFE806FCE1000E4A
:10077800E8CFE9FF000EE8CFEAFFC30EE8CFE1FFBC
:10078800030EE8CFE2FF150EE6CFEEFFE806FCE128
:10079800D8C3F8FFD9C3F7FFDAC3F6FFDBC3F4FF0A
:1007A800DCC3F3FFDDC3EAFFDEC3E9FFDFC3E2FF1B
:0A07B800E0C3E1FFE1C3E0FF12001F
:1007C200E7DCD00EDB6F09DDD6C5DBF506DD050102
:1007D200D76BD551D75D1DE2D3C5E9FFD4C5EAFF7A
:1007E200EECFD8F5D751D625016E0150000A09E1A6
:1007F2000101A05304E07F0E0501D81702D00501C4
:10080200D88FD8C5DBF5E9DC0501D34BD42BD72B28
:06081200E0D7E8DE120051
:100818000450000A08E10550000A05E1FF0E006EC9
:100828007F0E016E57D00D6A096A086A01500010E0
:10083800D8B4000C015005180A6E0ABE0D1E0B6ACA
:1008480005AE05D0041E051E042AD8B4052A01AE3B
:1008580005D0001E011E002AD8B4012A0150051037
:100868000A6E0ABE10D065DC0BB020D00DAE000CAD
:10087800001E011E002AD8B4012A081E091E082AD3
:10088800D8B4092A000C05AE0DD001BE07D001501E
:10089800096E0050086E016A006AE8D7016A006AAA
:1008A800002A000C011E001E0B2ADDD7082AD8B426
:1008B800092A0450085CD8A4D9D70550095CD8A4E3
:1008C800D5D7096A086A002AD8B4012A01AECED75A
:0608D8000000FF0C1200FD
:1008DE00D5C501F0010E006E015004E00036009007
:1008EE00FF0FFBD700C0D9F5001C0501D86FD66BE2
:1008FE00D3C5E9FFD76BD851EF16120EE926D851A2
:10090E00EF166EEC00F0D951EF126EEC00F0120EF5
:10091E00E95ED951EF14006E0CE0D7C501F0010E5F
:10092E00006E015004E000360090FF0FFBD7005020
:10093E00D61359EC00F059EC00F0D751070A02E03B
:0A094E00D72BD9D7D6C500F0120050
:0E0958000201EE91D3C5DBF500DEEE81120048
:100966000F0E0501D315026ED3C500F00032009EAE
:100976000032009E0032009E0032009E0A0E0002E7
:10098600F3CF00F00250002600C0D3F500C0D4F526
:06099600D4C500F01200C0
:10099C00D4C5DBF5D5C5DCF5C4DD00C0D6F501C08A
:1009AC00D7F5002A0050D425E16E000ED521E26E59
:1009BC00E66AD651D425E16ED751D521E26ED60523
:1009CC00006E0050D425E96E000ED521EA6EEECFF4
:1009DC00E6FF010ED65F000ED75B000ED71902E1C1
:1009EC00000ED61901E0E5D7D4C5E1FFD5C5E2FF6D
:0609FC00D3C5E6FF120066
:100A0200D5C501F0010E006E015004E000360090E1
:100A1200FF0FFBD700C0D7F5001ED3C5E9FFD4C531
:100A2200EAFF0050EF16120EE9260050EF1673DDB2
:100A32000501D751EF12120EE95E62DDD751EF14B4
:100A4200016E0150000A03E0010ED66F01D0D66B91
:080A520062DDD6C500F01200C0
:100A5A00D3C501F0D4C502F0D3C503F0D4C504F060
:100A6A0003C0E9FF04C0EAFFEE50200A03E1034A8B
:100A7A00042AF6D703C0E9FF04C0EAFF01C0E1FF78
:100A8A0002C0E2FFEECFE6FF014A022A034A042A25
:100A9A0003C0E9FF04C0EAFFEE50000A01E0EAD70A
:0C0AAA0001C0E1FF02C0E2FFE66A12009A
:100AB600D4C5E1FFD5C5E2FF200EE66E200EE66E38
:100AC600300EE66EE66A020E0501D425D66F000EDC
:100AD600D521D76FD351000A1CE00A0E046ED3C588
:100AE60000F020EC01F008C000F0D6C5E1FFD7C544
:100AF600E2FF300E0024E66E0A0E046ED3C500F047
:100B060020EC01F000C0D3F5010ED65F000ED75BD6
:040B1600E1D7120011
:100B1A00D70EE16E050EE26ED3C5D9FFD4C5DAFF52
:100B2A00030E006E000E016E4EEC01F0D9C5DBF526
:100B3A00D5C5DCF5D6C5DDF52FEC01F0020ED525BD
:100B4A00E16E000ED621E26E3A0EE66ED8C5DBF5EE
:100B5A00030ED525DC6F000ED621DD6F2FEC01F0D8
:100B6A00050ED525E16E000ED621E26E3A0EE66E2E
:100B7A00D7C5DBF5060ED525DC6F000ED621DD6F55
:100B8A002FEC01F0080ED525E16E000ED621E26E9B
:040B9A00E66A1200F5
:100B9E000501D56BD35109081DE20A0E046ED3C5AB
:100BAE0000F020EC01F000C0D5F500C0D5F5D5372A
:100BBE00D591D537D591D537D591D537D5910A0E53
:100BCE00046ED3C500F020EC01F008C000F0005018
:100BDE00D51302D0D3C5D5F5D5C5D4F5D4C500F0FF
:020BEE001200F3
:100BF000D70EE16E050EE26ED3C5D9FFD4C5DAFF7C
:100C0000040E006E000E016E4EEC01F0D8C5DBF54F
:100C1000D5C5DCF5D6C5DDF52FEC01F0020ED525E6
:100C2000E16E000ED621E26E2F0EE66ED9C5DBF521
:100C3000030ED525DC6F000ED621DD6F2FEC01F001
:100C4000050ED525E16E000ED621E26E2F0EE66E62
:100C5000060ED525E16E000ED621E26E320EE66E4E
:100C6000070ED525E16E000ED621E26E300EE66E3F
:100C7000DAC5DBF5080ED525DC6F000ED621DD6F59
:100C80002FEC01F00A0ED525E16E000ED621E26EA2
:040C9000E66A1200FE
:100C9400D3C5D9F5D4C5DAF5D5C5DBF5D6C5DCF5AC
:100CA400D3C5DDF5D4C5DEF5030E0501DF6F000EF7
:100CB400E06F57EC01F0030ED925006E000EDA2127
:100CC400016E00C0D9F501C0DAF5D7C5DBF5D8C58A
:100CD400DCF500C0DDF501C0DEF5040EDF6F000EAB
:080CE400E06F57EC01F0120073
:100CEC00C9EC00F0D00EDB6FEEEC00F0D6C5DBF5F6
:100CFC00EEEC00F01AEC01F0D10E0501DB6FEEEC1E
:100D0C0000F00501D76BD551D75D18E2D505016E02
:100D1C00D751011802E1D86B02D0010ED86FD8C59B
:100D2C00DBF503EC01F0D3C5E1FFD4C5E2FF00C055
:100D3C00E6FF0501D34BD42BD72BE5D74EDC1200A5
:100D4C00D5C501F0010E006E015004E00036009094
:100D5C00FF0FFBD700C0A8F5001E00C0A7F5D3C538
:100D6C00E9FFD4C5EAFF0050EF16120E0501D3259A
:100D7C00E96E0050EF166EEC00F0A851EF126EEC1D
:100D8C0000F0120EE95EA851EF14006E005000083E
:100D9C00FF0ED8B0000ED66F59EC00F07AEC02F0D2
:060DAC00D6C500F01200A4
:100DB200D5C501F0010E006E015004E0003600902E
:100DC200FF0FFBD700C0D9F5001E00C0D8F5D3C570
:100DD200E9FF0050EF16120E0501D325E96ED76B1D
:100DE200D7C501F0D6C500F0015004E00032009EE4
:100DF200FF0FFBD7010E0014016ED851EF16015000
:100E0200000A02E0D951EF1281EC02F0D951EF123F
:100E1200D751070A02E0D72BE3D7120EE95E59EC4D
:080E220000F059EC00F0120091
:100E2A00EACFDDF3E9CFDEF3E2CFDFF3E1CFE0F3A0
:100E3A00000EE8CFE9FF000EE8CFEAFFC30EE8CFC5
:100E4A00E1FF030EE8CFE2FF150EE806FEE1F8CF58
:100E5A00D8F3F7CFD9F3F6CFDAF3F4CFDBF3F3CF46
:100E6A00DCF3E0CFE1F3BFC300F0000E016E280E01
:100E7A00046E000E056E75EC00F0E90E0024030105
:100E8A00E76F030E0120E86FC30EE8CFE9FF030EF8
:100E9A00E8CFEAFFE7C3E1FFE8C3E2FF220EEECFA5
:080EAA00E6FFE806FCE112007E
:100EB200C80E0501D36F050ED46F070ED56FD66B22
:100EC20014DF7F0EC8177F0EC9173F0ECA17070E11
:100ED200CB173F0ECC171F0ECD17C6C5DBF5C7C506
:100EE200DCF5C80EDD6F050EDE6F070EDF6F000E3C
:080EF200E06F57EC01F0120063
:100EFA00C80EE16E050EE26EC6C5D9FFC7C5DAFF98
:100F0A00070E006E000E016E4EEC01F0CAC5D3F555
:100F1A0025DD00C0CAF5C9C5D3F520DD00C0C9F575
:100F2A00C8C5D3F51BDD00C0C8F5CCC5D3F516DDA1
:100F3A0000C0CCF5CDC5D3F511DD00C0CDF5CEC5C9
:100F4A00D3F50CDD00C0CEF5C6C5E1FFC7C5E2FF8B
:100F5A00C80ED96E050EDA6E070E006E000E016E0F
:060F6A004EEC01F0120044
:100F70000501CC6BC7AF06D0FF0ECC6FC61FC71FD5
:100F8000C64BC72B300ECB6FC6A102D0350ECB6F30
:100F9000C733C633C79FC7BDC78FC6C5D3F5C8C53E
:100FA000D4F5C9C5D5F587DDC8C5D3F5C9C5D4F510
:100FB00054DD0501CC5307E02D0ED36FC8C5D4F521
:100FC000C9C5D5F5EBDCCD6BCD51C825E96E000E5A
:100FD000C921EA6EEE50000802E2CD2BF5D7CD51C3
:100FE000C825E16E000EC921E26ECAC5E6FFCD51EB
:100FF000010F006E0050C825E16E000EC921E26E9F
:10100000CBC5E6FF020ECD25006E0050C825E16E6F
:0A101000000EC921E26EE66A12002C
:10101A000501CB6BC8C502F0010E006E025005E057
:10102A00003600900136FF0FFAD7C6C5E9FFC7C5DB
:10103A00EAFF0050EE14026E016A0250000A02E052
:10104A00010E016E05010150CA1926E1C9510008B5
:10105A0006E28CEC02F08CEC02F0C907F7D7C8C59F
:10106A0002F0010E006E025005E0003600900136D3
:10107A00FF0FFAD7C6C5E9FFC7C5EAFF0050EE144D
:10108A00026E016A0250000A02E0010E016E01506E
:0E109A00CA1902E1FF0ECB6FCBC500F01200A9
:1010A800C80EE16E050EE26EC6C5D9FFC7C5DAFFE8
:1010B800070E006E000E016E4EEC01F0CAC5D3F5A6
:1010C8006ADD00C0CAF5C9C5D3F565DD00C0C9F53C
:1010D800C8C5D3F560DD00C0C8F5CCC5D3F55BDD68
:1010E80000C0CCF5CDC5D3F556DD00C0CDF5CEC5D5
:1010F800D3F551DD00C0CEF5C6C5E1FFC7C5E2FF97
:10110800C80ED96E050EDA6E070E006E000E016E5F
:061118004EEC01F0120094
:10111E00C6C5D3F5C7C5D4F5C8C5D5F56BDCC6C5F0
:10112E00D3F5C7C5D4F5C8C5D5F5CC0ED66F3ADE06
:10113E00C6C5D3F5C7C5D4F5C8C5D5F5BE0ED66F91
:10114E0031DECB6B9E0ECC6F050ECD6FCB51CC2707
:10115E00D8B0CD2BC6C5D3F5C7C5D4F5C8C5D5F502
:10116E006FEC04F0CCC5E1FFCDC5E2FF00C0E6FF99
:10117E00CB51080A02E0CB2BE5D79EC5C9F59FC51A
:0C118E00CAF5C9C500F0CAC501F0120086
:10119A00046A056A066A006A04B0002A0050000858
:1011AA00FF0ED8B0000E036E9E0EE96E050EEA6EB3
:1011BA000550E926D8B0EA2A06C001F0010E006EF1
:1011CA00015004E000360090FF0FFBD70050EE14E8
:1011DA00026E016A0250000A02E0010E016E01501D
:1011EA000008FF0ED8B0000E026E04C000F00032F4
:1011FA00009E00C004F00350021802E08C0E041A8C
:10120A000650070A02E0062AC6D70550080A02E075
:0A121A00052AC0D704C000F012003E
:10122400C80E0501DB6F050EDC6FC6C5DDF5C7C54D
:10123400DEF5070EDF6F000EE06F57EC01F00101E1
:10124400A05304E07F0E0501C81702D00501C88F22
:10125400C80ED36F050ED46F070ED56FD66BE1ECB5
:0412640003F0120081
:101268000501C651010A03E1800EC66F14D0C651AC
:10127800020A03E1C00EC66F0ED0C651030A03E18D
:10128800940EC66F08D0C651040A03E1D40EC66F87
:1012980002D0800EC66FC705006EC651002600C07A
:1012A800C6F500C0DBF5B1EC02F0EE910501CA6BA2
:1012B800CA51C825E96E000EC921EA6EEE50000A2F
:1012C8000DE0CA51C825E96E000EC921EA6EEECFBD
:1012D800D3F5ACEC04F00501CA2BEAD70201EE8184
:0212E8001200F2
:0C12EA00DE5003E0E66E75EF09F0120024
:1012F600000EF2BE010E0301BE6FF29EFDCFE2F3B9
:10130600FECFE3F3FFCFE4F38DDDBEB102D0F29E54
:1013160001D0F28EBFC300F0000E016E280E046EDF
:10132600000E056E75EC00F0E90E0026030E012294
:10133600220E0024E16E000E0120E26E020EE66E21
:10134600BFC300F0000E016E280E046E000E056E7F
:1013560075EC00F0E90E0026030E0122240E00248F
:10136600E16E000E0120E26EC6C5E6FFC7C5E6FFC8
:10137600F5EC02F00301BF51FF0A01E1F9D7000EB7
:10138600F2BE010EBE6FF29EBFC300F0000E016EEC
:10139600280E046E000E056E75EC00F0E90E0026B0
:1013A600030E0122220E0024E16E000E0120E26EE1
:1013B600050EE66E9CEC03F0E2C3FDFFE3C3FEFF01
:1013C600E4C3FFFFBEB102D0F29E01D0F28E12003E
:1013D6000501C751800A02E1000EC61912E1C8C50F
:1013E600E1FFC9C5E2FF2D0EE66E330EE66E320E44
:1013F600E66E370EE66E360EE66E380EE66EE66A78
:1014060061D0CC6B800EC719006E800E005C02E1C5
:10141600000EC65D08E2FF0ECC6FC6510008C66F0F
:10142600C751000EC757C8C5E1FFC9C5E2FF200E68
:10143600E66E200EE66E200EE66E200EE66E200E9E
:10144600E66E300EE66EE66A050EC825CA6F000E19
:10145600C921CB6F000EC71902E1000EC6192AE09A
:101466000A0E046E000E056EC6C500F0C7C501F073
:101476000CEC04F008C000F009C001F0300E0026A4
:10148600CAC5E1FFCBC5E2FF00C0E6FF0A0E046E47
:10149600000E056EC6C500F0C7C501F00CEC04F0E1
:1014A60000C0C6F501C0C7F5010E0501CA5F000EF2
:1014B600CB5BD0D7CC5306E0CAC5E1FFCBC5E2FF74
:0614C6002D0EE66E12007F
:1014CC000501C651FF0A01E1BAD09D907AEC01F0FA
:1014DC009D80C6C500F0000E016E050E046E000E58
:1014EC00056E75EC00F0800E0026050E0122010E33
:1014FC000024E96E000E0120EA6EEECF01F0EECF73
:10150C0002F0000E006E0250005C02E10150000877
:10151C0029E2C6C500F0000E016E050E046E000E29
:10152C00056E75EC00F0800E0026050E0122010EF2
:10153C000024026E000E0120036E02C0E9FF03C0FE
:10154C00EAFFEECF00F0EECF01F0010E005E000ED0
:10155C00015A02C0E1FF03C0E2FF00C0E6FF01C078
:10156C00E6FF6DD0000EF2BE010E0301BE6FF29EBF
:10157C00FDCFE2F3FECFE3F3FFCFE4F350DCBEB1DB
:10158C0002D0F29E01D0F28EBFC300F0000E016EAD
:10159C00280E046E000E056E75EC00F0E90E0026A8
:1015AC00030E0122260E0024E16E000E0120E26ED5
:1015BC00C6C5E6FFBFC300F0000E016E280E046E18
:1015CC00000E056E75EC00F0E90E0026030E0122EC
:1015DC00220E0024E16E000E0120E26E030EE66E78
:1015EC00F5EC02F00301BF51FF0A01E1F9D7000E3F
:1015FC00F2BE010EBE6FF29EBFC300F0000E016E74
:10160C00280E046E000E056E75EC00F0E90E002637
:10161C00030E0122220E0024E16E000E0120E26E68
:10162C00050EE66E9CEC03F0E2C3FDFFE3C3FEFF88
:10163C00E4C3FFFFBEB102D0F29E01D0F28E1200C5
:10164C00C6C501F0C7C502F0C8C503F0C9C504F092
:10165C00CAC505F0CBC506F003C0E9FF04C0EAFF1C
:10166C00EE50000A0FE003C0E9FF04C0EAFF01C01E
:10167C00E1FF02C0E2FFEECFE6FF014A022A034A75
:10168C00042AEAD705C0E9FF06C0EAFFEE50000ABB
:10169C000FE005C0E9FF06C0EAFF01C0E1FF02C090
:1016AC00E2FFEECFE6FF014A022A054A062AEAD7F4
:0C16BC0001C0E1FF02C0E2FFE66A12007C
:1016C800000EF2BE010E0301BE6FF29EFDCFE2F3E3
:1016D800FECFE3F3FFCFE4F315EC07F0BEB102D081
:1016E800F29E01D0F28EBFC300F0000E016E280EEC
:1016F800046E000E056E75EC00F0E90E0026030E70
:101708000122220E0024E16E000E0120E26E040E7A
:10171800E66EF5EC02F00301BF51FF0A01E1F9D7CB
:10172800000EF2BE010EBE6FF29EBFC300F0000EA7
:10173800016E280E046E000E056E75EC00F0E90EC1
:101748000026030E0122220E0024E16E000E012065
:10175800E26E050EE66E9CEC03F0E2C3FDFFE3C308
:10176800FEFFE4C3FFFFBEB102D0F29E01D0F28EAD
:0217780012005D
:10177A00C6C5D3F5C7C5D4F5C8C5D5F501EC05F07E
:10178A000050000AFF0ED8A4000ECA6FC6C5D3F5D2
:10179A00C7C5D4F5C8C5D5F5CC0ED66FD9EC06F0B9
:1017AA00C6C5D3F5C7C5D4F5C8C5D5F5440ED66F99
:1017BA00D9EC06F0C9530CE00400C6C5D3F5C7C579
:1017CA00D4F5C8C5D5F5A6EC06F0005201E1F4D768
:0617DA00CAC500F0120078
:1017E000C6C5D3F5C7C5D4F5CC0E006E050E016E87
:1017F00000C0D5F501C0D6F5CF0E006E050E016E06
:1018000000C0D7F501C0D8F54AEC06F0CC0E006E4A
:10181000050E016E00C0D3F501C0D4F5C8C5D5F5DD
:10182000C9C5D6F58DEC05F0CF0E006E050E016E24
:1018300000C0D3F501C0D4F5CAC5D5F5CBC5D6F5E2
:06184000F8EC05F01200B7
:101846000501C651FF0A54E0C6C500F0000E016E40
:10185600050E046E000E056E75EC00F0800E002479
:10186600E96E050E0120EA6EEECF01F00150020A84
:1018760019E1C6C500F0000E016E050E046E000EDD
:10188600056E75EC00F0800E0026050E0122010E95
:101896000024E16E000E0120E26E010EE66E000EDF
:1018A600E66E26D0C6C500F0000E016E050E046E6B
:1018B600000E056E75EC00F0800E0026050E012266
:1018C600010E0024026E000E0120036E02C0E9FF25
:1018D60003C0EAFFEECF00F0EECF01F0004A012A86
:1018E60002C0E1FF03C0E2FF00C0E6FF01C0E6FF61
:0218F6001200DE
:1018F800FF0E0501B56F7D51090A01E159D07D51EF
:10190800FF0A02E17D6B01D07D2B7DC5B5F5B0C521
:1019180079F5B1C57AF5B2C57BF5B3C57CF57DC55A
:1019280000F0000E016E280E046E000E056E75ECB8
:1019380000F0E90E0024026E030E0120036E220E51
:101948000224E16E000E0320E26E010EE66E030E25
:10195800B45D02E3020EB46FB4517E5D02E2B4C519
:101968007EF5230E0224E16E000E0320E26EB4C55C
:10197800E6FF270E0224E16E000E0320E26EE66AFF
:101988001F0E0224E16E000E0320E26E79C5E6FF09
:10199800200E0224E16E000E0320E26E7AC5E6FFF7
:1019A800210E0224E16E000E0320E26E7BC5E6FFE5
:0619B800B5C500F01200AD
:1019BE001F0E0101006F1C0E016F1F0E026F1E0E17
:1019CE00036F1F0E046F1E0E056F1F0E066F1F0E88
:1019DE00076F1E0E086F1F0E096F1E0E0A6F1F0E69
:1019EE000B6F570E0301916F650E926F6C0E936F16
:1019FE00630E946F6F0E956F6D0E966F650E976FEB
:101A0E002C0E986F200E996F4C0E9A6F610E9B6F75
:101A1E00630E9C6F690E9D6F210E9E6F9F6BC10EA4
:101A2E00B96F010EBA6F910EB36F030EB46F910EB4
:101A3E00B56F030EB66F910EB76F030EB86F910EA2
:101A4E000001D16F030ED26F010E0101A26F000EC5
:101A5E00A36FA205006E000E016E2A0E046E000E1C
:101A6E00056E75EC00F0C10E0026010E0122240E4B
:101A7E0000240501B06F000E0120B16F0101A251CB
:101A8E00010F006E0006000E016E2A0E046E000E8F
:101A9E00056E75EC00F0C10E0026010E0122B0C5D8
:101AAE00E1FFB1C5E2FF00C0E6FF01C0E6FF000E98
:101ABE00A31902E1060EA21903E0A24BA32BC9D76C
:101ACE00C10E0201E16F010EE26F070E0101A26F5E
:101ADE00000EA36FA2050501B26FB2C500F0000E95
:101AEE00016E2A0E046E000E056E75EC00F0C10E2E
:101AFE000026010E0122260E0024B06F000E0120DA
:101B0E00B16FB205006E000E016E2A0E046E000E4D
:101B1E00056E75EC00F0C10E0026010E0122B0C557
:101B2E00E1FFB1C5E2FF00C0E6FF01C0E6FF000E17
:101B3E000101A31902E1020EA21905E0010EA25F36
:101B4E00000EA35BC7D7BD0EE76F020EE86F010E46
:101B5E00A26F000EA36FA205006E000E016E2A0E7C
:101B6E00046E000E056E75EC00F0C10E0026010E1F
:101B7E000122220E0024E16E000E0120E26E910E73
:101B8E00E66E030EE66E000EA31902E1070EA21911
:101B9E0003E0A24BA32BDFD7010EA26F000EA36FA3
:101BAE00A205006E000E016E2A0E046E000E056E6A
:101BBE0075EC00F0C10E0024026E010E0120036EC2
:101BCE00280E0224E16E000E0320E26EC10E0026E6
:101BDE00010E012200C0E6FF01C0E6FF000EA319B0
:101BEE0002E1070EA21903E0A24BA32BD9D7A50E33
:101BFE00E96F000EEA6F250E0201136F000E146FCF
:101C0E00D30E3D6F000E3E6F0D0E676F010E686FA7
:101C1E00370E916F010E926FC10E0001C76F010E4C
:101C2E00C86FA50EC96F000ECA6FA50ECB6F000E42
:101C3E00CC6FA50ECD6F000ECE6F010E0101A26FFF
:101C4E00000EA36FA205006E000E016E2A0E046E2A
:101C5E00000E056E75EC00F0250E0026000E01221A
:101C6E00220E0024E16E000E0120E26EEB0EE66EF7
:101C7E00010EE66EA205006E000E016E2A0E046EB7
:101C8E00000E056E75EC00F0250E0024026E000E9F
:101C9E000120036E280E0224E16E000E0320E26E78
:101CAE00250E0026000E012200C0E6FF01C0E6FF51
:101CBE00000EA31902E1030EA21903E0A24BA32BFF
:101CCE00C1D7790E0001736F000E746F250E756FFC
:101CDE00000E766F790E4B6E000E4C6E250E9D6FBC
:101CEE00000E9E6F4F0E496E000E4A6E4F0E9F6F86
:101CFE00000EA06F150EF56F020EF66FD30EF76F76
:101D0E00000EF86FD30EF96F000EFA6FD30EFB6F45
:101D1E00000EFC6F3F0E01012F6F020E306F0D0E85
:101D2E00316F010E326F0D0E336F010E346F0D0ECB
:101D3E00356F010E366F610E5B6F010E5C6F370EE5
:101D4E00856F010E866F610E5D6F010E5E6F370E31
:101D5E00876F010E886F370E5F6F010E606F610E19
:101D6E00896F010E8A6F690E596F020E5A6F690ED6
:101D7E00836F020E846F540E0301916F310E926FBA
:101D8E003A0E936F200E946F200E956F200E966F65
:101D9E00200E976F200E986F540E996F320E9A6F19
:101DAE003A0E9B6F200E9C6F200E9D6F200E9E6F25
:101DBE00200E9F6FA06B540EA26F330EA36F3A0EC0
:101DCE00A46F200EA56F200EA66F200EA76F200EFB
:101DDE00A86F200EA96F540EAA6F340EAB6F3A0E79
:101DEE00AC6F200EAD6F200EAE6F200EAF6F200EBB
:101DFE00B06FB16B310E0101C16F2E0EC26F200E8E
:101E0E00C36F440EC46F610EC56F740EC66F650E40
:101E1E00C76F2F0EC86F540EC96F690ECA6F6D0E45
:101E2E00CB6F650ECC6FCD6BD26B320EEB6F2E0E71
:101E3E00EC6F200EED6F460EEE6F750EEF6F6E0EA1
:101E4E00F06F630EF16F740EF26F690EF36F6F0E1B
:101E5E00F46F6E0EF56F690EF66F6E0EF76F670EFE
:101E6E00F86FF96B200EFC6F200EFD6F200EFE6FCB
:101E7E00200EFF6F200E0201006F490E016F6E0ED5
:101E8E00026F740E036F650E046F720E056F760E81
:101E9E00066F610E076F6C0E086F096B330E156FB0
:101EAE002E0E166F200E176F4C0E186F6F0E196FC9
:101EBE00630E1A6F6B0E1B6F200E1C6F530E1D6F71
:101ECE00650E1E6F740E1F6F740E206F690E216FDC
:101EDE006E0E226F670E236F730E246F256B266BAB
:101EEE00340E3F6F2E0E406F200E416F530E426F19
:101EFE00740E436F610E446F740E456F750E466F10
:101F0E00730E476F200E486F4C0E496F450E4A6F89
:101F1E00440E4B6F4C6B506B350E696F2E0E6A6F05
:101F2E00200E6B6F530E6C6F740E6D6F610E6E6FB5
:101F3E006E0E6F6F640E706F620E716F790E726F30
:101F4E00200E736F440E746F690E756F730E766F7D
:101F5E00700E776F786B200E7A6F200E7B6F200ECF
:101F6E007C6F200E7D6F530E7E6F650E7F6F740E2D
:101F7E00806F740E816F690E826F6E0E836F670EA7
:101F8E00846F730E856F866B360E936F2E0E946F65
:101F9E00200E956F4C0E966F6F0E976F670E986FA3
:101FAE00996BA46B370EBD6F2E0EBE6F200EBF6FDA
:101FBE004D0EC06F650EC16F6E0EC26F750EC36F84
:101FCE00C46BCE6B640E0001A56F610EA66F740E0E
:101FDE00A76F650EA86FA96B740EB66F690EB76FFB
:101FEE006D0EB86F650EB96FBA6B320E256E2E0E72
:101FFE00266E310E276E200E286E440E296E610E4F
:10200E002A6E790E2B6E730E2C6E2D6A360E05010E
:10201E00C66F000EC76F2F0EC86F030EC96F2B0E43
:10202E00CA6F030ECB6F26EC0BF0320E4F6E2E0ED8
:10203E00506E320E516E200E526E480E536E6F0E53
:10204E00546E750E556E720E566E730E576E586A2E
:10205E00530E0001606F3A0E616F200E626F320EEA
:10206E00636F310E646F3B0E656F200E666F200E30
:10207E00676F200E686F200E696F200E6A6F450E17
:10208E006B6F3A0E6C6F200E6D6F200E6E6F370EEB
:10209E006F6F706B320E796F2E0E7A6F330E7B6F01
:1020AE00200E7C6F540E7D6F650E7E6F6D0E7F6FF2
:1020BE00700E806F2E0E816F200E826F4C0E836F0E
:1020CE00690E846F6D0E856F690E866F740E876F45
:1020DE00730E886F896B4D0E8A6F690E8B6F6E0E45
:1020EE008C6F3A0E8D6F200E8E6F310E8F6F390EF4
:1020FE00906F3B0E916F200E926F4D0E936F610E8F
:10210E00946F780E956F3A0E966F200E976F320E73
:10211E00986F320E996F9A6B4C0ED36F6F0ED46F01
:10212E00630ED56F6B0ED66F650ED76F640ED86FBC
:10213E003A0ED96F200EDA6F200EDB6F200EDC6F99
:10214E00200EDD6F200EDE6F4F0EDF6F460EE06F3E
:10215E00460EE16FE26BE46B530E01010D6F740ED0
:10216E000E6F610E0F6F740E106F750E116F730E72
:10217E00126F200E136F4C0E146F450E156F440E1A
:10218E00166F3A0E176F186B200E1E6F200E1F6FF4
:10219E00200E206F200E216F200E226F200E236F37
:1021AE00200E246F200E256F4F0E266F4E0E276FBA
:1021BE00286B360E376F2E0E386F310E396F200E9C
:1021CE003A6F520E3B6F6F0E3C6F6F0E3D6F6D0E82
:1021DE003E6F200E3F6F440E406F690E416F730EBF
:1021EE00426F700E436F6C0E446F610E456F790E29
:1021FE00466F476B410E486F6C0E496F6C0E4A6FFF
:10220E00200E4B6F660E4C6F6F0E4D6F750E4E6F30
:10221E00720E4F6F200E506F720E516F6F0E526F07
:10222E006F0E536F6D0E546F730E556F566B360ED9
:10223E00616F2E0E626F320E636F200E646F440E4E
:10224E00656F690E666F730E676F700E686F6C0E3A
:10225E00696F610E6A6F790E6B6F200E6C6F4D0E8B
:10226E006D6F6F0E6E6F640E6F6F650E706F716BAC
:10227E004D0E726F6F0E736F640E746F650E756F09
:0C228E00200E766F310E776F786B120017
:10229A00F40E0501C66F010EC76F7BEC09F0F26AF6
:1022AA008B74830E0501C66F0F0EC76FEAC2C8F59D
:1022BA00FF0EC96FBDEC0BF0830EC66F0F0EC76F12
:1022CA00EAC2C8F58FEC08F000C0EBF201C0ECF2EC
:1022DA000201EA51010F026E0204056E05C002F006
:1022EA00000E036E023602900336980E0224D96E4F
:1022FA00010E0320DA6EDECF03F0DECF04F00150C8
:10230A00041802E103500018D8B484D0EA51010F2E
:10231A00006E0004036E03C000F0000E016E00366A
:10232A0000900136980E0024E16E010E0120E26E43
:10233A00EBC2E6FFECC2E6FFCDEC08F000C0E9F222
:10234A000050000837E2020E0501C66F010EC76F82
:10235A00540EB06F650EB16F6D0EB26F700EB36F23
:10236A00650EB46F720EB56F610EB66F740EB76FED
:10237A00750EB86F720EB96F650EBA6F200EBB6F0D
:10238A00430EBC6F520EBD6F430EBE6F200EBF6F61
:10239A00650EC06F720EC16F720EC26F6F0EC36F81
:1023AA00720EC46FC56BB00EC86F050EC96F34ECE0
:1023BA0009F02CD00201EA51010F006E0004036EED
:1023CA0003C000F0000E016E003600900136980E30
:1023DA000024E96E010E0120EA6EEECFC6F5EECFBB
:1023EA00C7F503C000F0000E016E070E046E000E62
:1023FA00056E75EC00F00F0E00240501C86F030E80
:10240A000120C96F2C0ECA6FB8EC07F0FFC2C6F5DF
:10241A0023EC0CF00201EA2B030EEA17C00EF26E4F
:08242A0064EC0BF035D7120041
:102432009D9005017F6B7FC500F0000E016E280E96
:10244200046E000E056E75EC00F0E90E0026030E18
:102452000122220E0024E16E000E0120E26EE66AE5
:102462007F51090A02E07F2BE6D77F6B7FC500F020
:10247200000E016E050E046E000E056E75EC00F086
:10248200800E0024E16E050E0120E26EE66A7F51A5
:10249200040A02E07F2BEAD7FF0E996F7F6BC00E12
:1024A200E16E030EE26E7F51E126D8B0E22AFF0E02
:1024B200E66E7F51020A02E07F2BF1D77E6BFF0EA0
:0C24C2000301BF6FFF0E05017D6F1200CB
:1024CE000501B0517D5D01E22FD09D90B0C500F0A9
:1024DE00000E016E280E046E000E056E75EC00F0F7
:1024EE00E90E0026030E0122220E0024E96E000ED4
:1024FE000120EA6EEE50010A16E1B0C500F0000EA2
:10250E00016E280E046E000E056E75EC00F0E90EDD
:10251E000026030E0122220E0024E16E000E012081
:0A252E00E26E040EE66E9D801200BE
:1025380005017D51FF0AD8B487D00201EF6BEF5136
:1025480005017D5DD8A080D0EFC200F0000E016EBD
:10255800280E046E000E056E75EC00F0E90E0026DC
:10256800030E012200C0F0F201C0F1F2220E002495
:10257800E96E000E0120EA6EEECF02F00250020A68
:10258800FF0ED8A4000E016E0250030AFF0ED8A455
:10259800000E006E015000124FE0240E0201F025DB
:1025A800E96E000EF121EA6EEECF01F0EECF02F0F7
:1025B800000E006E0250005C02E1015000083CE28F
:1025C800240EF025026E000EF121036E02C0E9FF11
:1025D80003C0EAFFEECF00F0EECF01F0010E005E7F
:1025E800000E015A02C0E1FF03C0E2FF00C0E6FF8F
:1025F80001C0E6FF240EF025E96E000EF121EA6E17
:10260800EECF01F0EECF02F0000E021802E1000E4C
:10261800011812E1220EF025E96E000EF121EA6E92
:10262800EE50020A09E1220EF025E16E000EF121BA
:10263800E26E040EE66E00D00201EF5105017D192D
:0A26480003E00201EF2B7BD7120024
:10265200140E0501C66F000EC76F7BEC09F0840EE5
:102662000501C66F0F0EC76F020EC86F010EC96F4C
:10267200010ECA6F0DEC08F0005203E0FF0E0301D9
:102682000E6F840E0501C66F0F0EC76F020EC86F64
:10269200010EC96FCA6B0DEC08F003010E51001652
:1026A20009E0FF0E0001D06F03010E6BCFC0C6F52B
:1026B20023EC0CF0810E0501C66F0F0EC76F040EDE
:1026C200C86F010EC96F010ECA6F0DEC08F00052FF
:1026D20003E0FF0E0301BB6F810E0501C66F0F0EF3
:1026E200C76F040EC86F010EC96FCA6B0DEC08F0FC
:1026F2000301BB51001609E0FF0E01018B6F0301BC
:10270200BB6BCFC0C6F523EC0CF0840E0501C66F7F
:102712000F0EC76F010EC86F010EC96F010ECA6F8F
:102722000DEC08F0005203E0FF0E0301BC6F840EB3
:102732000501C66F0F0EC76F010EC86F010EC96F7C
:10274200CA6B0DEC08F00301BC51001609E0FF0E44
:102752000001FF6F0301BC6BCFC0C6F523EC0CF088
:10276200840E0501C66F0F0EC76FC86B010EC96FCD
:10277200010ECA6F0DEC08F0005203E0FF0E0301D8
:10278200BD6F840E0501C66F0F0EC76FC86B010EB9
:10279200C96FCA6B0DEC08F00301BD51001609E0C8
:1027A200FF0E0201FE6F0301BD6BCFC0C6F523EC25
:0A27B2000CF064EC0BF04CD71200A1
:1027BC00FF0E0501B16F9951040A01E139D099510D
:1027CC00FF0A02E1996B01D0992B99C5B1F599C516
:1027DC0000F0000E016E050E046E000E056E75EC19
:1027EC0000F0800E0026050E012200C0E1FF01C0A2
:1027FC00E2FF020EE66EB0530BE0010E0024E16E18
:10280C00000E0120E26E010EE66E000EE66E08D0A0
:10281C00010E0024E16E000E0120E26EE66AE66A0B
:10282C00030E0024E16E000E0120E26EE66AE66AF9
:06283C00B1C500F012001E
:102842009D80F5EC02F00301BF51FF0A01E1F9D7C7
:10285200000EF2BE010EBE6FF29EBFC300F0000E6C
:10286200016E280E046E000E056E75EC00F0E90E86
:102872000026030E0122220E0024E16E000E01202A
:10288200E26E050EE66E9CEC03F0E2C3FDFFE3C3CD
:10289200FEFFE4C3FFFFBEB102D0F29E01D0F28E72
:0228A200120022
:1028A400320E0501C66F000EC76F7BEC09F0AF0E48
:1028B4000501C66F010EC76F59EC07F0AF0EC66F66
:1028C400010EC76FB80EC86F010EC96F010ECA6F33
:1028D400030ECB6FF0EC0BF064EC0BF0E1D71200BD
:1028E400CFC0C6F566EC0AF00001D051FF0AD8A4A7
:1028F4006ED0D251000A02E1A50ED119FF0ED8A460
:10290400000E016ED251000A02E1250ED119FF0E0C
:10291400D8A4000E006E00500112D251000A02E148
:102924004F0ED119FF0ED8A4000E006E00500112F4
:10293400D251000A02E1790ED119FF0ED8A4000E7B
:10294400006E015000120CE0A35304E0FF0EA46FCC
:10295400A36B05D0FF0EA36FA453D8A4A46B2CD0F3
:10296400D251000A02E1D30ED119FF0ED8A4000EF1
:10297400016ED251010A02E10D0ED119FF0ED8A445
:10298400000E006E00500112D251010A02E1370E0E
:10299400D119FF0ED8A4000E006E00500112D251BE
:1029A400010A02E1610ED119FF0ED8A4000E006ED7
:1029B40001500012D8A4A46B280ED125E96E000E94
:1029C400D221EA6EEECFD1F0EECFD2F0D06B01017E
:1029D4008B51FF0AD8A498D00001D251000A02E119
:1029E400A50ED119FF0ED8A4000E016ED251000A13
:1029F40002E1250ED119FF0ED8A4000E006E00507E
:102A04000112D251000A02E14F0ED119FF0ED8A4CF
:102A1400000E006E00500112D251000A02E1790E3C
:102A2400D119FF0ED8A4000E006E0150001224E04C
:102A3400A3530CE0A36BD251000A02E1A50ED119F5
:102A440004E10CC1C6F523EC0CF015D00001A4532D
:102A540004E0FF0EA36FA46B0ED0010EFD6F000EF9
:102A6400FE6F220ED125E96E000ED221EA6EEECF62
:102A7400D1F0EECFD2F046D00001D251000A02E1EB
:102A8400D30ED119FF0ED8A4000E016ED251010A43
:102A940002E10D0ED119FF0ED8A4000E006E0050F5
:102AA4000112D251010A02E1370ED119FF0ED8A446
:102AB400000E006E00500112D251010A02E1610EB3
:102AC400D119FF0ED8A4000E006E015000120CE0C4
:102AD400A46B220ED125E96E000ED221EA6EEECF50
:102AE400D1F0EECFD2F00ED0010EFD6F000EFE6FCE
:102AF400220ED125E96E000ED221EA6EEECFD1F07E
:102B0400EECFD2F001018B6B0001FF51FF0AD8A474
:102B1400CFD1D251000A02E1A50ED119D8A4A4D074
:102B2400A453D8B488D0AF0E0501C66F010EC76F89
:102B34007DEC07F0000E0001FE1902E1030EFD1901
:102B44000CE10101B551630A02E1B56B05D0B55141
:102B5400010F006E00C0B5F158D0000E0001FE193F
:102B640002E1020EFD190DE10101B4510C0A03E169
:102B7400010EB46F05D0B451010F006E00C0B4F162
:102B840044D0000E0001FE1902E1010EFD1917E107
:102B94000101B405006E000ED96E010EDA6E00500C
:102BA400D926D8B0DA2AB351DE1803E1010EB36F87
:102BB40005D0B351010F006E00C0B3F126D0000E52
:102BC4000001FE1902E1040EFD190CE10101B151ED
:102BD400170A02E1B16B05D0B151010F006E00C0BC
:102BE400B1F113D0000E0001FE1902E1050EFD192A
:102BF4000CE10101B0513B0A02E1B06B05D0B051C8
:102C0400010F006E00C0B0F100D0AF0E0501C66F19
:102C1400010EC76F54EC08F0AF0EC66F010EC76FFC
:102C2400B80EC86F010EC96F010ECA6F030ECB6FC9
:102C3400F0EC0BF018D00001A35315E0050E046E60
:102C4400000E056EFDC000F0FEC001F00CEC04F0B7
:102C540008C000F009C001F0010E00240001FD6F5E
:102C6400000E0120FE6F22D10001D251000A02E1C0
:102C7400250ED1193CE1A45317E0FD05006EA80E02
:102C8400E16E010EE26E0050E126D8B0E22AA80EF1
:102C9400E96E010EEA6E0050E926D8B0EA2AEE1C6D
:102CA400006E00C0E6FF22D0A35316E0070E046EA8
:102CB400000E056EFDC000F0FEC001F00CEC04F047
:102CC40008C000F009C001F0010E00240001FD6FEE
:102CD400000E0120FE6F0AD0240ED125E96E000EED
:102CE400D221EA6EEECFD1F0EECFD2F0DFD0D251C6
:102CF400000A02E14F0ED11946E1A45320E0000E70
:102D0400FE1902E1010EFD190DE10101B651010F99
:102D1400006E180E046E20EC01F008C000F000C034
:102D2400B6F10CD00101B751010F006E180E046EFC
:102D340020EC01F008C000F000C0B7F123D000017E
:102D4400A35316E0020E046E000E056EFDC000F0E3
:102D5400FEC001F00CEC04F008C000F009C001F062
:102D6400010E00240001FD6F000E0120FE6F0AD049
:102D7400240ED125E96E000ED221EA6EEECFD1F0F9
:102D8400EECFD2F093D00001D251000A02E1790EC5
:102D9400D1194FE1A45329E0000EFE1902E1010EFE
:102DA400FD1912E101018C4B8D2B800E9719006ED9
:102DB400800E8D19005C02E18C51965D04E296C18F
:102DC4008CF197C18DF110D00101964B972B800E99
:102DD400006E800E9719005C02E19651320804E2FD
:102DE400320E966F000E976F23D00001A35316E0A6
:102DF400020E046E000E056EFDC000F0FEC001F070
:102E04000CEC04F008C000F009C001F0010E00242D
:102E14000001FD6F000E0120FE6F0AD0240ED125A3
:102E2400E96E000ED221EA6EEECFD1F0EECFD2F0F1
:102E34003DD00001D251000A02E1D30ED11903E1C1
:102E440003010C1F33D00001D251010A02E10D0E1F
:102E5400D11903E103010D1F29D00001D251010A48
:102E640002E1370ED1190DE10B0E046E00C300F020
:102E740020EC01F008C000F00050010F0301006FC6
:102E840015D00001D251010A02E1610ED11903E10A
:102E94000201FD1F0BD0240E0001D125E96E000EA6
:102EA400D221EA6EEECFD1F0EECFD2F00001FF6B6B
:102EB4000201FE51FF0AD8A4B2D10001D251000A86
:102EC40002E1A50ED119D8A49CD0A453D8B486D0BD
:102ED400AF0E0501C66F010EC76F7DEC07F0000E43
:102EE4000001FE1902E1030EFD190CE10101B551C7
:102EF400000A03E1630EB56F04D0B505006E00C08F
:102F0400B5F156D0000E0001FE1902E1020EFD19C2
:102F14000CE10101B451010A03E10C0EB46F04D0B9
:102F2400B405006E00C0B4F143D0000E0001FE19D8
:102F340002E1010EFD1916E10101B351010A0DE18F
:102F4400B405006E000EE96E010EEA6E0050E9262B
:102F5400D8B0EA2AEECFB3F104D0B305006E00C0B6
:102F6400B3F126D0000E0001FE1902E1040EFD1992
:102F74000CE10101B151000A03E1170EB16F04D055
:102F8400B105006E00C0B1F113D0000E0001FE19AE
:102F940002E1050EFD190CE10101B051000A03E143
:102FA4003B0EB06F04D0B005006E00C0B0F100D08D
:102FB400AF0E0501C66F010EC76F54EC08F0AF0EDB
:102FC400C66F010EC76FB80EC86F010EC96F010E30
:102FD400CA6F030ECB6FF0EC0BF012D00001A353B9
:102FE4000FE0000EFE1902E1010EFD1905E1050EC8
:102FF400FD6F000EFE6F04D0010EFD5F000EFE5B40
:103004000CD10001D251000A02E1250ED11936E19A
:10301400A45317E0FD05006EA80EE16E010EE26EEA
:103024000050E126D8B0E22AA80EE96E010EEA6E3D
:103034000050E926D8B0EA2AEE1C006E00C0E6FF74
:103044001CD0A35310E0000EFE1902E1010EFD197D
:1030540005E1070EFD6F000EFE6F04D0010EFD5F4B
:10306400000EFE5B0AD0260ED125E96E000ED22199
:10307400EA6EEECFD1F0EECFD2F0CFD0D251000A2B
:1030840002E14F0ED1193EE1A45318E0000EFE19DF
:1030940002E1010EFD1909E10101B651000A03E143
:1030A400170EB66F01D0B60708D00101B751000A58
:1030B40003E1170EB76F01D0B70723D00001A35364
:1030C40016E0020E046E000E056EFDC000F0FEC098
:1030D40001F00CEC04F008C000F009C001F0010E8E
:1030E40000240001FD6F000E0120FE6F0AD0260EA1
:1030F400D125E96E000ED221EA6EEECFD1F0EECFEB
:10310400D2F08BD00001D251000A02E1790ED1191C
:103114004BE1A4532BE0000EFE1902E1010EFD1950
:1031240011E1010E01018C5F000E8D5B800E8D1983
:10313400006E800E005C02E1000E8C5D02E28C6B7E
:103144008D6B13D00101010E965F000E975B800E0C
:103154009719006E800E8D19005C02E18C51965D0A
:1031640004E28CC196F18DC197F11DD00001A353E7
:1031740010E0000EFE1902E1010EFD1905E1020E38
:10318400FD6F000EFE6F04D0010EFD6F000EFE6F8A
:103194000AD0260ED125E96E000ED221EA6EEECFBA
:1031A400D1F0EECFD2F039D00001D251000A02E1C1
:1031B400D30ED11903E103010C1F2FD00001D2510A
:1031C400010A02E10D0ED11903E103010D1F25D0FF
:1031D4000001D251010A02E1370ED11909E10301BC
:1031E4000051010A03E10B0E006F01D0000715D056
:1031F4000001D251010A02E1610ED11903E1020179
:10320400FD1F0BD0260E0001D125E96E000ED22140
:10321400EA6EEECFD1F0EECFD2F00201FE6BFFC228
:10322400C6F523EC0CF064EC0BF072EF14F0120012
:10323400FFC2C6F566EC0AF0010E0501DB6FB1ECC6
:1032440002F00001A35306E00E0E0501DB6FB1ECA2
:1032540002F00ED00001A45306E00F0E0501DB6F4F
:10326400B1EC02F005D00C0E0501DB6FB1EC02F0FD
:103274000001A451A311006ED8B4BAD1D251030AEB
:1032840002E1910ED11901E1B3D1D251000A02E158
:10329400A50ED119D8A488D0020E0501DB6FB1ECBC
:1032A40002F0000E0001FE1902E1010EFD1906E113
:1032B400800E0501DB6FB1EC02F075D0000E000149
:1032C400FE1902E1020EFD1915E1800E0501DB6F06
:1032D400B1EC02F0140E0501DB6FB1EC02F0140E38
:1032E4000501DB6FB1EC02F0140E0501DB6FB1ECEC
:1032F40002F059D0000E0001FE1902E1030EFD197F
:1033040029E1800E0501DB6FB1EC02F0140E05011A
:10331400DB6FB1EC02F0140E0501DB6FB1EC02F0CF
:10332400140E0501DB6FB1EC02F0140E0501DB6F26
:10333400B1EC02F0140E0501DB6FB1EC02F0140ED7
:103344000501DB6FB1EC02F0140E0501DB6FB1EC8B
:1033540002F029D0000E0001FE1902E1040EFD194D
:1033640006E1C00E0501DB6FB1EC02F01CD0000ECB
:103374000001FE1902E1050EFD1915E1C00E05015B
:10338400DB6FB1EC02F0140E0501DB6FB1EC02F05F
:10339400140E0501DB6FB1EC02F0140E0501DB6FB6
:1033A400B1EC02F000D024D10001D251000A02E1B4
:1033B400250ED1191FE1020E0501DB6FB1EC02F0FD
:1033C400C00E0501DB6FB1EC02F0010E0101A26F2A
:1033D400000EA36F140E0501DB6FB1EC02F0000EBA
:1033E4000101A31902E10E0EA21903E0A24BA32BC3
:1033F400F1D7FED00001D251000A02E14F0ED119DB
:103404003BE1020E0501DB6FB1EC02F0C00E0501D9
:10341400DB6FB1EC02F0000E0001FE1902E1010EB7
:10342400FD1915E1010E0101A26F000EA36F140E28
:103434000501DB6FB1EC02F0000E0101A31902E1FA
:10344400030EA21903E0A24BA32BF1D714D0010160
:10345400010EA26F000EA36F140E0501DB6FB1EC19
:1034640002F0000E0101A31902E10F0EA21903E0FC
:10347400A24BA32BF1D7BCD00001D251000A02E128
:10348400790ED1193BE1020E0501DB6FB1EC02F0BC
:10349400C00E0501DB6FB1EC02F0000E0001FE1955
:1034A40002E1010EFD1915E1010E0101A26F000EEA
:1034B400A36F140E0501DB6FB1EC02F0000E0101E5
:1034C400A31902E1060EA21903E0A24BA32BF1D724
:1034D40014D00101010EA26F000EA36F140E05019A
:1034E400DB6FB1EC02F0000E0101A31902E10F0E33
:1034F400A21903E0A24BA32BF1D77AD00001D25139
:10350400000A02E1D30ED1191FE1020E0501DB6F9F
:10351400B1EC02F0800E0501DB6FB1EC02F0010E9C
:103524000101A26F000EA36F140E0501DB6FB1EC55
:1035340002F0000E0101A31902E10E0EA21903E02C
:10354400A24BA32BF1D754D00001D251010A02E1BE
:103554000D0ED1191FE1020E0501DB6FB1EC02F073
:10356400C00E0501DB6FB1EC02F0010E0101A26F88
:10357400000EA36F140E0501DB6FB1EC02F0000E18
:103584000101A31902E1080EA21903E0A24BA32B27
:10359400F1D72ED00001D251010A02E1370ED11920
:1035A40010E1020E0501DB6FB1EC02F0C00E050163
:1035B400DB6FB1EC02F0140E0501DB6FB1EC02F02D
:1035C40017D00001D251010A02E1610ED11910E1B4
:1035D400020E0501DB6FB1EC02F0C00E0501DB6FDA
:1035E400B1EC02F0140E0501DB6FB1EC02F000D077
:1035F4000001D251030A02E1910ED119D8A4E7EFD8
:103604001FF003010051010A78E1910E0501C66F14
:10361400030EC76F540EB06F310EB16F3A0EB26F16
:10362400B36BB00EC86F050EC96F0F0ECA6F030ED1
:10363400CB6F26EC0BF0910E0501C66F030EC76F1E
:10364400910EC86F030EC96F540EB06F320EB16F76
:103654003A0EB26FB36BB00ECA6F050ECB6F26EC89
:103664000BF0910E0501C66F030EC76F910EC86F64
:10367400030EC96F160ECA6F030ECB6F26EC0BF048
:10368400A20E0501C66F030EC76F540EB06F330E42
:10369400B16F3A0EB26FB36BB00EC86F050EC96F3F
:1036A4001D0ECA6F030ECB6F26EC0BF0A20E0501A4
:1036B400C66F030EC76FA20EC86F030EC96F540EF8
:1036C400B06F340EB16F3A0EB26FB36BB00ECA6FF7
:1036D400050ECB6F26EC0BF0A20E0501C66F030E90
:1036E400C76FA20EC86F030EC96F240ECA6F030EF4
:1036F400CB6F26EC0BF0E6EF1FF003010051020A3A
:103704006DE1910E0501C66F030EC76F540EB06FC5
:10371400310EB16F3A0EB26FB36BB00EC86F050EB7
:10372400C96F0F0ECA6F030ECB6F26EC0BF0910E10
:103734000501C66F030EC76F910EC86F030EC96FE4
:10374400540EB06F320EB16F3A0EB26FB36BB00E4F
:10375400CA6F050ECB6F26EC0BF0910E0501C66FF8
:10376400030EC76F910EC86F030EC96F160ECA6F92
:10377400030ECB6F26EC0BF0A20E0501C66F030EF1
:10378400C76F410EB06F3A0EB16F200EB26F200EAC
:10379400B36F200EB46F200EB56F200EB66F200EDF
:1037A400B76F4D0EB86F410EB96F4E0EBA6F200E43
:1037B400BB6F200EBC6F4F0EBD6F460EBE6F460E24
:1037C400BF6FC06BB00EC86F050EC96FC16BC10E61
:1037D400CA6F050ECB6F26EC0BF0F6D30301005134
:1037E400030AD8A48DD0520E0101486F6F0E496FA1
:1037F4006F0E4A6F6D0E4B6F310E4C6F200E4D6F76
:103804002B0E4E6F200E4F6F520E506F6F0E516F76
:103814006F0E526F6D0E536F330E546F200E556F33
:10382400200E566F576B910E0501C66F030EC76FBE
:10383400540EB06F310EB16F3A0EB26FB36BB00E5F
:10384400C86F050EC96F0F0ECA6F030ECB6F26EC3F
:103854000BF0910E0501C66F030EC76F910EC86F72
:10386400030EC96F540EB06F330EB16F3A0EB26FC0
:10387400B36BB00ECA6F050ECB6F26EC0BF0910E36
:103884000501C66F030EC76F910EC86F030EC96F93
:103894001D0ECA6F030ECB6F26EC0BF0A20E0501B2
:1038A400C66F030EC76F410EB06F3A0EB16F200E94
:1038B400B26F200EB36F200EB46F200EB56F200EC2
:1038C400B66F200EB76F4D0EB86F410EB96F4E0E26
:1038D400BA6F200EBB6F200EBC6F4F0EBD6F460E2D
:1038E400BE6F460EBF6FC06BB00EC86F050EC96FBA
:1038F400C16BC10ECA6F050ECB6F26EC0BF064D3FF
:1039040003010051040A6DE1910E0501C66F030E17
:10391400C76F540EB06F310EB16F3A0EB26FB36B06
:10392400B00EC86F050EC96F0F0ECA6F030ECB6FB2
:1039340026EC0BF0910E0501C66F030EC76F910EB6
:10394400C86F030EC96F540EB06F340EB16F3A0EC8
:10395400B26FB36BB00ECA6F050ECB6F26EC0BF0D3
:10396400910E0501C66F030EC76F910EC86F030E4B
:10397400C96F240ECA6F030ECB6F26EC0BF0A20E98
:103984000501C66F030EC76F410EB06F3A0EB16FDB
:10399400200EB26F200EB36F200EB46F200EB56FE1
:1039A400200EB66F200EB76F4D0EB86F410EB96F73
:1039B4004E0EBA6F200EBB6F200EBC6F4F0EBD6F44
:1039C400460EBE6F460EBF6FC06BB00EC86F050EBD
:1039D400C96FC16BC10ECA6F050ECB6F26EC0BF01D
:1039E400F3D203010051050A6DE1910E0501C66F82
:1039F400030EC76F540EB06F320EB16F3A0EB26F32
:103A0400B36BB00EC86F050EC96F160ECA6F030EE6
:103A1400CB6F26EC0BF0910E0501C66F030EC76F3A
:103A2400910EC86F030EC96F540EB06F330EB16F91
:103A34003A0EB26FB36BB00ECA6F050ECB6F26ECA5
:103A44000BF0910E0501C66F030EC76F910EC86F80
:103A5400030EC96F1D0ECA6F030ECB6F26EC0BF05D
:103A6400A20E0501C66F030EC76F410EB06F3A0E6A
:103A7400B16F200EB26F200EB36F200EB46F200E04
:103A8400B56F200EB66F200EB76F4D0EB86F410E96
:103A9400B96F4E0EBA6F200EBB6F200EBC6F4F0E67
:103AA400BD6F460EBE6F460EBF6FC06BB00EC86FC3
:103AB400050EC96FC16BC10ECA6F050ECB6F26EC24
:103AC4000BF082D203010051060A6DE1910E05014B
:103AD400C66F030EC76F540EB06F320EB16F3A0E3D
:103AE400B26FB36BB00EC86F050EC96F160ECA6FF6
:103AF400030ECB6F26EC0BF0910E0501C66F030E7F
:103B0400C76F910EC86F030EC96F540EB06F340E99
:103B1400B16F3A0EB26FB36BB00ECA6F050ECB6FB6
:103B240026EC0BF0910E0501C66F030EC76F910EC4
:103B3400C86F030EC96F240ECA6F030ECB6F26EC39
:103B44000BF0A20E0501C66F030EC76F410EB06FD6
:103B54003A0EB16F200EB26F200EB36F200EB46F09
:103B6400200EB56F200EB66F200EB76F4D0EB86FD6
:103B7400410EB96F4E0EBA6F200EBB6F200EBC6F94
:103B84004F0EBD6F460EBE6F460EBF6FC06BB00EBC
:103B9400C86F050EC96FC16BC10ECA6F050ECB6F1E
:103BA40026EC0BF011D203010051070A6DE1910ECE
:103BB4000501C66F030EC76F540EB06F330EB16F9D
:103BC4003A0EB26FB36BB00EC86F050EC96F1D0EFF
:103BD400CA6F030ECB6F26EC0BF0910E0501C66F76
:103BE400030EC76F910EC86F030EC96F540EB06FEA
:103BF400340EB16F3A0EB26FB36BB00ECA6F050ECE
:103C0400CB6F26EC0BF0910E0501C66F030EC76F48
:103C1400910EC86F030EC96F240ECA6F030ECB6FCB
:103C240026EC0BF0A20E0501C66F030EC76F410E02
:103C3400B06F3A0EB16F200EB26F200EB36F200E2C
:103C4400B46F200EB56F200EB66F200EB76F4D0EF9
:103C5400B86F410EB96F4E0EBA6F200EBB6F200EB7
:103C6400BC6F4F0EBD6F460EBE6F460EBF6FC06B6E
:103C7400B00EC86F050EC96FC16BC10ECA6F050EB9
:103C8400CB6F26EC0BF0A0D103010051080A64E1CC
:103C9400910E0501C66F030EC76F540EB06F310E3F
:103CA400B16F3A0EB26FB36BB00EC86F050EC96F29
:103CB4000F0ECA6F030ECB6F26EC0BF0910E0501AD
:103CC400C66F030EC76F910EC86F030EC96F410E06
:103CD400B06F3A0EB16F200EB26F200EB36F200E8C
:103CE400B46F200EB56FB66BB00ECA6F050ECB6FF6
:103CF40026EC0BF0A20E0501C66F030EC76F410E32
:103D0400B06F3A0EB16F200EB26F200EB36F200E5B
:103D1400B46F200EB56F200EB66F200EB76F4D0E28
:103D2400B86F410EB96F4E0EBA6F200EBB6F200EE6
:103D3400BC6F4F0EBD6F460EBE6F460EBF6FC06B9D
:103D4400B00EC86F050EC96FC16BC10ECA6F050EE8
:103D5400CB6F26EC0BF038D103010051090A64E162
:103D6400910E0501C66F030EC76F540EB06F320E6D
:103D7400B16F3A0EB26FB36BB00EC86F050EC96F58
:103D8400160ECA6F030ECB6F26EC0BF0910E0501D5
:103D9400C66F030EC76F910EC86F030EC96F410E35
:103DA400B06F3A0EB16F200EB26F200EB36F200EBB
:103DB400B46F200EB56FB66BB00ECA6F050ECB6F25
:103DC40026EC0BF0A20E0501C66F030EC76F410E61
:103DD400B06F3A0EB16F200EB26F200EB36F200E8B
:103DE400B46F200EB56F200EB66F200EB76F4D0E58
:103DF400B86F410EB96F4E0EBA6F200EBB6F200E16
:103E0400BC6F4F0EBD6F460EBE6F460EBF6FC06BCC
:103E1400B00EC86F050EC96FC16BC10ECA6F050E17
:103E2400CB6F26EC0BF0D0D0030100510A0A64E1F9
:103E3400910E0501C66F030EC76F540EB06F330E9B
:103E4400B16F3A0EB26FB36BB00EC86F050EC96F87
:103E54001D0ECA6F030ECB6F26EC0BF0910E0501FD
:103E6400C66F030EC76F910EC86F030EC96F410E64
:103E7400B06F3A0EB16F200EB26F200EB36F200EEA
:103E8400B46F200EB56FB66BB00ECA6F050ECB6F54
:103E940026EC0BF0A20E0501C66F030EC76F410E90
:103EA400B06F3A0EB16F200EB26F200EB36F200EBA
:103EB400B46F200EB56F200EB66F200EB76F4D0E87
:103EC400B86F410EB96F4E0EBA6F200EBB6F200E45
:103ED400BC6F4F0EBD6F460EBE6F460EBF6FC06BFC
:103EE400B00EC86F050EC96FC16BC10ECA6F050E47
:103EF400CB6F26EC0BF068D0030100510B0A64E190
:103F0400910E0501C66F030EC76F540EB06F340EC9
:103F1400B16F3A0EB26FB36BB00EC86F050EC96FB6
:103F2400240ECA6F030ECB6F26EC0BF0910E050125
:103F3400C66F030EC76F910EC86F030EC96F410E93
:103F4400B06F3A0EB16F200EB26F200EB36F200E19
:103F5400B46F200EB56FB66BB00ECA6F050ECB6F83
:103F640026EC0BF0A20E0501C66F030EC76F410EBF
:103F7400B06F3A0EB16F200EB26F200EB36F200EE9
:103F8400B46F200EB56F200EB66F200EB76F4D0EB6
:103F9400B86F410EB96F4E0EBA6F200EBB6F200E74
:103FA400BC6F4F0EBD6F460EBE6F460EBF6FC06B2B
:103FB400B00EC86F050EC96FC16BC10ECA6F050E76
:103FC400CB6F26EC0BF000D0FDD30001D251000AD8
:103FD40002E1A50ED11917E1A50EE16E000EE26E05
:103FE400010ED96E030EDA6E75EC09F0E66AB60EB0
:103FF400E16E000EE26EB80ED96E010EDA6E75EC4B
:1040040009F0E66ADFD3D251000A02E1250ED11984
:104014003CE1FD05006EA80EE96E010EEA6E00504B
:10402400E926D8B0EA2AEE50FF0A09E1200E03017E
:104034002B6F4F0E2C6F4E0E2D6F2E6B08D003017D
:104044004F0E2B6F460E2C6F460E2D6F2E6B360EB9
:104054000501C66F000EC76F0001FD05006E000E5E
:10406400016E0E0E046E000E056E75EC00F02F0E40
:1040740000240501C86F030E0120C96F2B0ECA6FFF
:10408400030ECB6F26EC0BF09DD30001D251000A36
:1040940002E14F0ED11978E1600E0501C66F000EE2
:1040A400C76FB06BB00EC86F050EC96FB16BB10EA0
:1040B400CA6F050ECB6F26EC0BF0600E0501C66FC0
:1040C400000EC76F600EC86F000EC96F530EB06F3D
:1040D4003A0EB16F200EB26FB36BB00ECA6F050EFD
:1040E400CB6F26EC0BF0B6C1D3F5F60E0501D46FF9
:1040F400020ED56F5BEC05F0600EC66F000EC76F45
:10410400600EC86F000EC96FF60ECA6F020ECB6F39
:1041140026EC0BF0600E0501C66F000EC76F600E33
:10412400C86F000EC96F200EB06F200EB16F200E45
:10413400B26F200EB36F200EB46F450EB56F3A0EFA
:10414400B66F200EB76FB86BB00ECA6F050ECB6F8B
:1041540026EC0BF0B7C1C6F5000E0501C76FF60ECD
:10416400C86F020EC96FEBEC09F0600EC66F000E4B
:10417400C76F600EC86F000EC96FF60ECA6F020ECD
:10418400CB6F26EC0BF01ED30001D251000A02E1E2
:10419400790ED119D8A47ED0600E0501C66F000E29
:1041A400C76FB06BB00EC86F050EC96FB16BB10E9F
:1041B400CA6F050ECB6F26EC0BF0600E0501C66FBF
:1041C400000EC76F600EC86F000EC96F4D0EB06F42
:1041D400610EB16F780EB26F3A0EB36F200EB46FEA
:1041E400B56BB00ECA6F050ECB6F26EC0BF08CC10D
:1041F400C6F58DC1C7F5F60E0501C86F020EC96F6D
:10420400EBEC09F0600EC66F000EC76F600EC86F4E
:10421400000EC96FF60ECA6F020ECB6F26EC0BF0C0
:10422400600E0501C66F000EC76F600EC86F000EEA
:10423400C96F200EB06F200EB16F200EB26F4D0EFD
:10424400B36F690EB46F6E0EB56F3A0EB66F200E73
:10425400B76FB86BB00ECA6F050ECB6F26EC0BF0C0
:104264008CC1C6F58DC1C7F5F60E0501C86F020EE7
:10427400C96FEBEC09F0600EC66F000EC76F600EDD
:10428400C86F000EC96FF60ECA6F020ECB6F26EC14
:104294000BF098D20001D251000A02E1D30ED119D9
:1042A40068E1D30E0501C66F000EC76FB06BB00E88
:1042B400C86F050EC96FB16BB10ECA6F050ECB6F17
:1042C40026EC0BF0D30E0501C66F000EC76FD30E9C
:1042D400C86F000EC96F4C0EB06F6F0EB16F630ED6
:1042E400B26F6B0EB36F650EB46F640EB56F3A0E9A
:1042F400B66F200EB76F200EB86F200EB96F200E68
:10430400BA6FBB6BB00ECA6F050ECB6F26EC0BF009
:1043140003010C5317E0D30E0501C66F000EC76FDF
:10432400D30EC86F000EC96F200EB06F4F0EB16F61
:104334004E0EB26FB36BB00ECA6F050ECB6F26EC88
:104344000BF016D0D30E0501C66F000EC76FD30E47
:10435400C86F000EC96F4F0EB06F460EB16F460E98
:10436400B26FB36BB00ECA6F050ECB6F26EC0BF0B9
:1043740029D20001D251010A02E10D0ED1195AE1EC
:104384001E0E0501C66F010EC76FB06BB00EC86F6D
:10439400050EC96FB16BB10ECA6F050ECB6F26EC5B
:1043A4000BF003010C5323E01E0E0501C66F010E32
:1043B400C76F1E0EC86F010EC96F200EB06F200E9E
:1043C400B16F200EB26F200EB36F200EB46F200EAB
:1043D400B56F200EB66F4F0EB76F4E0EB86FB96B38
:1043E400B00ECA6F050ECB6F26EC0BF022D01E0E5A
:1043F4000501C66F010EC76F1E0EC86F010EC96F8F
:10440400200EB06F200EB16F200EB26F200EB36F6E
:10441400200EB46F200EB56F4F0EB66F460EB76FF9
:10442400460EB86FB96BB00ECA6F050ECB6F26EC93
:104434000BF0C8D10001D251010A02E1370ED119A3
:10444400D8A498D103010051010A21E1410E0101D0
:10445400486F6C0E496F6C0E4A6F200E4B6F660EE0
:104464004C6F6F0E4D6F750E4E6F720E4F6F200EA8
:10447400506F720E516F6F0E526F6F0E536F6D0E41
:10448400546F730E556F200E566F576B72D1030124
:104494000051020A21E1520E0101486F6F0E496F6B
:1044A4006F0E4A6F6D0E4B6F310E4C6F200E4D6FB9
:1044B4002B0E4E6F200E4F6F520E506F6F0E516FBA
:1044C4006F0E526F6D0E536F320E546F200E556F78
:1044D400200E566F576B4DD103010051030A21E1A1
:1044E400520E0101486F6F0E496F6F0E4A6F6D0EC9
:1044F4004B6F310E4C6F200E4D6F2B0E4E6F200EF6
:104504004F6F520E506F6F0E516F6F0E526F6D0ED4
:10451400536F330E546F200E556F200E566F576B2A
:1045240028D103010051040A21E1520E0101486F10
:104534006F0E496F6F0E4A6F6D0E4B6F310E4C6FDD
:10454400200E4D6F2B0E4E6F200E4F6F520E506F7C
:104554006F0E516F6F0E526F6D0E536F340E546F9A
:10456400200E556F200E566F576B03D10301005177
:10457400050A21E1520E0101486F6F0E496F6F0E5B
:104584004A6F6D0E4B6F320E4C6F200E4D6F2B0E1B
:104594004E6F200E4F6F520E506F6F0E516F6F0E95
:1045A400526F6D0E536F330E546F200E556F200EE5
:1045B400566F576BDED003010051060A21E1520EFB
:1045C4000101486F6F0E496F6F0E4A6F6D0E4B6F8E
:1045D400320E4C6F200E4D6F2B0E4E6F200E4F6F10
:1045E400520E506F6F0E516F6F0E526F6D0E536FF0
:1045F400340E546F200E556F200E566F576BB9D082
:1046040003010051070A21E1520E0101486F6F0EA8
:10461400496F6F0E4A6F6D0E4B6F330E4C6F200E49
:104624004D6F2B0E4E6F200E4F6F520E506F6F0E4C
:10463400516F6F0E526F6D0E536F340E546F200E08
:10464400556F200E566F576B94D003010051080A22
:1046540021E1520E0101486F6F0E496F6F0E4A6FD0
:104664006D0E4B6F310E4C6F200E4D6F6F0E4E6FF3
:104674006E0E4F6F6C0E506F790E516F200E526F8D
:10468400200E536F200E546F200E556F200E566F60
:10469400576B6FD003010051090A21E1520E010149
:1046A400486F6F0E496F6F0E4A6F6D0E4B6F320E6F
:1046B4004C6F200E4D6F6F0E4E6F6E0E4F6F6C0E63
:1046C400506F790E516F200E526F200E536F200ED3
:1046D400546F200E556F200E566F576B4AD003014E
:1046E40000510A0A21E1520E0101486F6F0E496F11
:1046F4006F0E4A6F6D0E4B6F330E4C6F200E4D6F65
:104704006F0E4E6F6E0E4F6F6C0E506F790E516FB1
:10471400200E526F200E536F200E546F200E556FD3
:10472400200E566F576B25D0030100510B0A21E16F
:10473400520E0101486F6F0E496F6F0E4A6F6D0E76
:104744004B6F340E4C6F200E4D6F6F0E4E6F6E0E0E
:104754004F6F6C0E506F790E516F200E526F200EFA
:10476400536F200E546F200E556F200E566F576BEB
:1047740000D028D00001D251010A02E1610ED11902
:1047840021E10201FD530FE04D0E0101726F6F0E26
:10479400736F640E746F650E756F200E766F310E35
:1047A400776F786B0ED001014D0E726F6F0E736FC1
:1047B400640E746F650E756F200E766F320E776F10
:1047C400786B00D0010E0501C66F010EC76FD1C012
:1047D400C8F5D2C0C9F534EC09F0020E0501C66F64
:1047E400010EC76F110E0001D1250501C86F000E1F
:1047F4000001D2210501C96F34EC09F064EC0BF01F
:064804001AEF19F012008A
:10480A000CC1C6F566EC0AF0AF0E0501C66F010EC3
:0E481A00C76F12EC09F064EC0BF0F2D712003D
:10482800939093928A908A9293809382C79EC79C12
:06483800380EC66E1200EE
:10483E00B10E0501D36F050ED46F080ED56FD66B72
:10484E0076EC06F0BF0EB317100EB86FB10ED36F25
:10485E00050ED46F080ED56FD66BE1EC03F0016A2E
:10486E00B1BF012A0150000AFF0ED8A4000E006E3F
:10487E0000C0A0F100C0B0F57F0EB1150101A16F0F
:06488E00B0C500F01200AD
:10489400F40E0501C66F010EC76F7BEC09F0010E23
:1048A4000101A26F000EA36FA205036E03C000F006
:1048B400000E016E003600900136980E0024E96E59
:1048C400010E0120EA6EEECF01F0EECF02F0800E71
:1048D4000218006E800E8D19005C02E18C51015C9F
:1048E4003CE2A205036E03C000F0000E016E003628
:1048F400009001368E0E0024E96E010E0120EA6E4E
:10490400EECF01F0EECF02F0800E0218006E800EA2
:10491400020A005C02E1580E015C1FE2A205036E6C
:1049240003C000F0000E016E0036009001368E0EBA
:104934000024E16E010E0120E26E8E0E0024E96E69
:10494400010E0120EA6E010EEE24006E000EEE2030
:10495400016E00C0E6FF01C0E6FFA205016E01C0C2
:1049640002F0000E036E023602900336980E022403
:10497400E96E010E0320EA6EEECF00F0EECF01F0F7
:10498400800E9719046E800E0118045C02E1005039
:10499400965DFF0ED8B0000E046E8E0E0224E96EF2
:1049A400010E0320EA6EEECF01F0EECF02F00250CA
:1049B400020A02E1580E0118FF0ED8A4000E006E80
:1049C4000450001611E0A205036E03C000F0000EAF
:1049D400016E0036009001368E0E0024E16E010E49
:1049E4000120E26EE66AE66AA205016E01C004F0E7
:1049F400000E056E043604900536980E0424E96E04
:104A0400010E0520EA6EEECF00F0EECF01F0800E2D
:104A14008D19036E800E0118035C02E100508C5D59
:104A2400FF0ED8B0000E036E8E0E0424E96E010E44
:104A34000520EA6EEECF01F0EECF02F0800E006E9C
:104A4400800E0218005C02E101506408FF0ED8B029
:104A5400000E006E005003168E0E0424E96E010E43
:104A64000520EA6EEECF01F0EECF02F0800E0218C0
:104A7400006E800E020A005C02E1580E015CFF0E1B
:104A8400D8B0000E006E0350001611E0A205036EAC
:104A940003C000F0000E016E0036009001368E0E49
:104AA4000024E16E010E0120E26EE66AE66A000E61
:104AB400A31902E1040EA21903E0A24BA32BF4D61E
:104AC400A453D8B405D1AF0E0501C66F010EC76F4C
:104AD4007DEC07F00101B151B65DFF0ED8B0000EB8
:104AE400016EB751B15DFF0ED8B0000E006E0050DC
:104AF4000112B205006EA80EE96E010EEA6E0050B6
:104B0400E926D8B0EA2AEE50FF0AFF0ED8A4000E18
:104B1400006E01500016D8B4D4D0A56BA66B010E5C
:104B2400A26F000EA36FA205036E03C000F0000E77
:104B3400016E0036009001368E0E0024E96E010EDF
:104B44000120EA6EEECF01F0EECF02F00250020A2D
:104B540002E1580E0118D8B4A52BA205036E03C0B8
:104B640000F0000E016E003600900136980E00240D
:104B7400E96E010E0120EA6EEECF01F0EECF02F0F5
:104B8400800E9719006E800E0218005C02E101503D
:104B9400965DD8A0A62B000EA31902E1040EA2195B
:104BA40003E0A24BA32BBFD7A5510008FF0ED8B03A
:104BB400000E016EA6510008FF0ED8B0000E006E64
:104BC40001500016D8B477D0A76B010EA26F000E67
:104BD400A36FA205036E03C000F0000E016E003641
:104BE40000900136980E0024E96E010E0120EA6E51
:104BF40096518C25016E97518D21026E01C003F0F0
:104C040002C004F004320332049E04BC048EEECFCE
:104C140001F0EECF02F0800E0218006E800E041830
:104C2400005C02E10350015C02E2010EA76F000E7A
:104C3400A31902E1040EA21903E0A24BA32BC9D7C6
:104C4400A751000A38E1010EA26F000EA36FA2055E
:104C5400036E03C000F0000E016E003600900136B2
:104C64008E0E0024E96E010E0120EA6EEECF01F0F3
:104C7400EECF02F00250020A02E1580E011811E1CF
:104C8400A205036E03C000F0000E016E0036009012
:104C940001368E0E0024E16E010E0120E26EE66AFA
:104CA400E66A000EA31902E1040EA21903E0A24B66
:104CB400A32BCDD7A56BA551000802E28A8A01D0A7
:104CC4008A9AAF0E0501C66F010EC76F54EC08F047
:084CD40064EC0BF0DDD51200C9
:104CDC00949294909598959A959C959E8B928B9086
:104CEC008C9E8C9C8C9A8C984EEC00F04EEC00F0C8
:104CFC004EEC00F08C8A8C888B826EEC00F08B92E0
:104D0C004EEC00F08B826EEC00F08B924EEC00F0CF
:104D1C008B826EEC00F08B924EEC00F08C988B82B8
:104D2C006EEC00F08B924EEC00F08B826EEC00F08F
:104D3C008B928C9A8C8E8B826EEC00F08B924EEC5C
:104D4C0000F08C9E8C888B826EEC00F08B928C9891
:104D5C008B826EEC00F08B924EEC00F08B826EEC42
:104D6C0000F08B928C888B826EEC00F08B924EEC68
:104D7C0000F08C988B826EEC00F08B928C8E8C8C6D
:104D8C008C8A8C888B826EEC00F08B924EEC00F04F
:064D9C000201EE8112008D
:104DA200070E0B6E170E0C6E6A0E0D6E0D2EFED7D1
:104DB2000C2EFCD70B2EFAD70000FF0E8B6EFF0EC7
:104DC200946EFF0E8C6EFF0E956E9494939A938858
:104DD20096809682968495809582958495867DDFCD
:104DE200010E0501DB6FB1EC02F00C0E0501DB6F69
:104DF200B1EC02F0010E0101A26F000EA36FA20539
:104E0200036E03C000F0000E016E00360090013602
:104E1200980E0024E16E010E0120E26EE66AE66A57
:104E2200000EA31902E1040EA21903E0A24BA32B68
:104E3200E6D70201EA6B010E0101A26F000EA36F19
:104E4200A205006EA80EE16E010EE26E0050E12690
:104E5200D8B0E22AE66A000EA31902E1070EA219EF
:104E620003E0A24BA32BECD74D0E03012F6F6F0E65
:104E7200306F6E0E316F640E326F610E336F790ECA
:104E8200346F200E356F200E366F200E376F200ED6
:104E9200386F200E396F200E3A6F200E3B6F3C6B3D
:104EA200540E3D6F750E3E6F650E3F6F730E406F71
:104EB200640E416F610E426F790E436F200E446F94
:104EC200200E456F200E466F200E476F200E486F52
:104ED200200E496F4A6B570E4B6F650E4C6F640E76
:104EE2004D6F6E0E4E6F730E4F6F640E506F610EEC
:104EF200516F790E526F200E536F200E546F200E99
:104F0200556F200E566F200E576F586B540E596F07
:104F1200680E5A6F750E5B6F720E5C6F730E5D6F6B
:104F2200640E5E6F610E5F6F790E606F200E616FAF
:104F3200200E626F200E636F200E646F200E656F6D
:104F4200666B460E676F720E686F690E696F640E4C
:104F52006A6F610E6B6F790E6C6F200E6D6F200E93
:104F62006E6F200E6F6F200E706F200E716F200E0D
:104F7200726F200E736F746B530E756F610E766FC6
:104F8200740E776F750E786F720E796F640E7A6F8A
:104F9200610E7B6F790E7C6F200E7D6F200E7E6F0F
:104FA200200E7F6F200E806F200E816F826B530E5A
:104FB200836F750E846F6E0E856F640E866F610E41
:104FC200876F790E886F200E896F200E8A6F200EF0
:104FD2008B6F200E8C6F200E8D6F200E8E6F200E29
:104FE2008F6F906B4F0E2B6F460E2C6F460E2D6FF0
:104FF2002E6B130E01018C6F000E8D6F160E966FC5
:10500200000E976F070EB66F150EB76F03010C6B8C
:10501200FF0E0D6F010E006FFF0E0201FD6F010EFC
:105022000101A26F000EA36FA205036E03C000F080
:10503200000E016E0036009001368E0E0024E16EE5
:10504200010E0120E26EE66AE66A000EA31902E191
:10505200040EA21903E0A24BA32BE6D7FF0EA46F06
:105062000001A46BA36B010EFD6F000EFE6F3F0EDD
:10507200C16E780EC86E14EC24F01FEC24F01F0EE3
:105082000B6E710E0C6E1E0E0D6E0D2EFED70C2EBB
:10509200FCD70B2EFAD70000AF0E0501C66F010E2A
:1050A200C76FB80EC86F010EC96F010ECA6F030E2B
:1050B200CB6FF0EC0BF0DFEC0CF0010E0501C66FCC
:1050C200010EC76F640EAC6F640EAD6F640EAE6FEF
:1050D200AF6BAC0EC86F050EC96F34EC09F019EC5A
:1050E20012F09A0EB06F220EB16F000EB26F000E68
:1050F200B36F020EB46F7CEC0CF000C0E7F2A40EAA
:10510200B06F280EB16F000EB26F000EB36F010EBA
:10511200B46F7CEC0CF000C0E8F2340EB06F320ECB
:10512200B16F000EB26F000EB36F010EB46F7CEC64
:105132000CF000C0EDF2520EB06F260EB16F000EF1
:10514200B26F000EB36FB46B7CEC0CF000C0F3F2E4
:10515200E40EB06F280EB16F000EB26F000EB36F87
:10516200030EB46F7CEC0CF000C0F4F20A0EB06FC8
:10517200480EB16F000EB26F000EB36F030EB46F24
:105182007CEC0CF000C0F5F2940EB06F480EB16FDB
:10519200000EB26F000EB36F030EB46F7CEC0CF016
:1051A20000C0F2F2B06BDEEC13F000C0FFF2B06BA5
:1051B200DEEC13F000C0CFF0B06BDEEC13F000C0F9
:1051C2000CF1E7C2B0F567EC12F0E8C2B0F567EC9B
:1051D20012F0EDC2B0F567EC12F0F3C2B0F567EC75
:1051E20012F0F4C2B0F567EC12F0F5C2B0F567EC5C
:1051F20012F0F2C2B0F567EC12F0CD88CD9ACD92E2
:10520200400ECE6EA20ECF6E9D90CD809E90C00EAF
:0C521200F26E8B748B7421EC14F0FFD74B
:020000040030CA
:0E000000240E3E1EFF8181FF0FC00FE00F4057
:00000001FF
