:04000000F1EF1AF012
:1000080000C01EF001C01DF002C01CF003C01BF0B0
:1000180004C01AF005C019F008C018F009C017F09C
:100028000AC016F00BC015F0E1CF23F0E2CF24F0A0
:10003800E9CF21F0EACF22F0F3CF1FF0F4CF20F080
:100048009EA007D09E90A20ECF6E400ECE6E11ECF1
:100058000FF01FC0F3FF20C0F4FF1EC000F01DC04A
:1000680001F01CC002F01BC003F01AC004F019C054
:1000780005F018C008F017C009F016C00AF015C03E
:100088000BF021C0E9FF22C0EAFF23C0E1FF24C032
:04009800E2FF110072
:0E009C00030E0D6E0D2EFED7000000001200A8
:1000AA00026AC7B408D01F0EC514016E0150000AB7
:0C00BA0002E1FF0E026E02C000F0120016
:0E00C600C70E0D6E0D2EFED7000000001200BA
:1000D400560E0C6EB50E0D6E0D2EFED70C2EFCD7E3
:0600E40000000000120004
:1000EA000B6A0A6A096A00500402F4CF09F0F3CFD6
:1000FA0008F001500502F4CF0BF0F3CF0AF00050DC
:10010A000502F3500926F4500A22E86A0B2201502C
:10011A000402F3500926F4500A22E86A0B2208C0A6
:10012A0000F009C001F00AC002F00BC003F012008F
:10013A000401C351FF0AD8B47CD00101006B0051FD
:10014A000401C35DD8A075D000C100F0000E016E95
:10015A00050E046E000E056EC3DF100E0026030E98
:10016A00012200C003F101C004F1000EF2BE010E2B
:10017A0003012C6FF29E030E0024E96E000E01208B
:10018A00EA6EEECF01F0EECF02F0000E006E0250E2
:10019A00005C02E1015000083EE203C1E9FF04C12C
:1001AA00EAFFEECF01F00150020A0CE1010E010153
:1001BA000325E16E000E0421E26E010EE66E000ECA
:1001CA00E66E21D00101010E0325026E000E042104
:1001DA00036E030E0325D96E000E0421DA6E02C0E7
:1001EA00E9FF03C0EAFFEECF00F0EECF01F0DE50E8
:1001FA000026DE50012202C0E1FF03C0E2FF00C078
:10020A00E6FF01C0E6FF030E0325E16E000E04219E
:10021A00E26EE66AE66A03012CB102D0F29E01D0D0
:10022A00F28E010100510401C31903E00101002B00
:10023A0086D703013251FF0AD8B484D00101006B7A
:10024A0000510301325DD8A07DD000C100F0000E3C
:10025A00016E280E046E000E056E42DF330E002674
:10026A00030E012200C001F101C002F1220E002496
:10027A00E96E000E0120EA6EEE50030A5BE1260EDB
:10028A0001010125D96E000E0221DA6EDECF00F0DF
:10029A00000E016E050E046E000E056E21DF100EB3
:1002AA000026030E0122010E0024E96E000E012031
:1002BA00EA6EEECF01F0EECF02F0000E006E0250B1
:1002CA00005C02E10150000835E2260E0125D96ED4
:1002DA00000E0221DA6EDECF00F0000E016E050E6E
:1002EA00046E000E056EFCDE100E0026030E0122BF
:1002FA00010E0024026E000E0120036E02C0E9FF07
:10030A0003C0EAFFEECF00F0EECF01F0010E005E6F
:10031A00000E015A02C0E1FF03C0E2FF00C0E6FF7F
:10032A0001C0E6FF220E0125E16E000E0221E26EF7
:10033A00040EE66E010100510301321903E00101C6
:06034A00002B7ED712001B
:10035000086A080E0C6E003408360450085ED8B0E7
:0E03600002D00826D89000360C2EF5D71200D9
:10036E0005011BBF02D08C9E01D08C8E1BBD02D00E
:10037E008C9C01D08C8C1BBB02D08C9A01D08C8AA9
:10038E001BB902D08C9801D08C8801017DB102D0AE
:10039E008B8001D08B908B827ADE8B9205011BB7FE
:1003AE0002D08C9E01D08C8E1BB502D08C9C01D0BD
:1003BE008C8C1BB302D08C9A01D08C8A1BB102D0CC
:1003CE008C9801D08C8801017DB102D08B8001D038
:1003DE008B908B825CDE8B927DA102D074DE01D07D
:0403EE006BDE1200B0
:1003F2009E961BC5C9FFC7A402D00000FCD79EB6BB
:1004020002D00000FCD7C5BC02D0016A03D0C5846B
:0A041200020E016E01C000F012009E
:10041C0005011C6B1D6B43DE0050000A01E00AD085
:10042C0005011D51120A02E18E0E1C1903E01C4B32
:10043C001D2BF1D70501120E1D5D02E18F0E1C5D07
:10044C0003E37B0E1B6F06D0C580C5A002D0000055
:0A045C00FCD71B6B1BC500F012005B
:100466001BC504F01CC505F004C0E9FF05C0EAFF82
:10047600EE50000A03E0044A052AF6D705011B518F
:10048600045C026E1C510558036E02C000F003C0E6
:0404960001F012005F
:10049A000134083609360450085E0550D8A0053CD8
:1004AA00095E003601360F0E0C6E01340836093625
:1004BA00045000A006D0085E0550D8A0053C095E8D
:1004CA0005D008260550D8B0053C09260036013665
:1004DA000C2EEBD700B006D0045008260550D8B031
:0804EA00053C09260000120088
:1004F2001BC501F01CC502F01DC503F01EC504F0AA
:10050200000E0501201902E1000E1F1913E0010E71
:100512001F5F000E205B03C0E9FF04C0EAFF01C0B9
:10052200E1FF02C0E2FFEECFE6FF014A022A034AE0
:06053200042AE6D71200C6
:10053800000E0006015ADECFE6FF0006015AFBE274
:0205480012009F
:10054A00020E0C6E350E0D6E0D2EFED70C2EFCD73C
:06055A0000000000120089
:0E056000270E0D6E0D2EFED7000000001200BB
:0C056E00C582C5A202D00000FCD712001C
:10057A00080E0C6EC10E0D6E0D2EFED70C2EFCD77A
:06058A0000000000120059
:100590001BC500F00032009E0032009E0032009E1B
:1005A0000032009E1CC5E1FF1DC5E2FF300E002495
:1005B000E66E05011C4B1D2B0F0E1B15006E1CC596
:0E05C000E1FF1DC5E2FF300E0024E66E1200C2
:0405CE00C5841200CE
:1005D2009E96C5869EB602D00000FCD7C9CF01F018
:1005E200C59A05011B51000AD8B4C58A9E96C588D2
:0E05F2009EB602D00000FCD701C000F012003F
:1006000014C51BF515C51CF52EDF00C016F501C07D
:1006100017F5002A00501425E16E000E1521E26E38
:10062000E66A16511425E16E17511521E26E160582
:10063000006E00501425E96E000E1521EA6EEECF13
:10064000E6FF010E165F000E175B000E171902E1A0
:10065000000E161901E0E5D714C5E1FF15C5E2FF4C
:0606600013C5E6FF1200C5
:1006660015C501F0010E006E015004E00036009041
:10067600FF0FFBD700C017F5001E13C5E9FF14C511
:10068600EAFF0050EF16120EE9260050EF1672DF51
:1006960005011751EF12120EE95E54DF1751EF14E0
:1006A600016E0150000A03E0010E166F01D0166BB1
:0806B60061DF16C500F012001F
:1006BE00AEDED00E1B6F96DE16C51BF593DE050162
:1006CE00176B1551175D1DE213C5E9FF14C5EAFF3F
:1006DE00EECF18F517511625016E0150000A09E1EB
:1006EE000101095304E07F0E0501181702D0050120
:1006FE00188F18C51BF576DE0501134B142B172B1F
:06070E00E0D75EDF1200DF
:100714000450000A08E10550000A05E1FF0E006ECE
:100724007F0E016E57D00D6A096A086A01500010E5
:10073400D8B4000C015005180A6E0ABE0D1E0B6ACF
:1007440005AE05D0041E051E042AD8B4052A01AE40
:1007540005D0001E011E002AD8B4012A015005103C
:100764000A6E0ABE10D097DE0BB020D00DAE000C7E
:10077400001E011E002AD8B4012A081E091E082AD8
:10078400D8B4092A000C05AE0DD001BE07D0015023
:10079400096E0050086E016A006AE8D7016A006AAF
:1007A400002A000C011E001E0B2ADDD7082AD8B42B
:1007B400092A0450085CD8A4D9D70550095CD8A4E8
:1007C400D5D7096A086A002AD8B4012A01AECED75F
:0607D4000000FF0C120002
:0E07DA0001017D9113C51BF5C5DD7D81120067
:1007E80015C501F0010E006E015004E000360090BE
:1007F800FF0FFBD700C0FDF0001E00C0FEF013C5C0
:10080800E9FF14C5EAFF0050EF16120E0501132583
:10081800E96E0050EF163EDC0001FD51EF123ADCA4
:10082800120EE95EFD51EF14006E00500008FF0E35
:10083800D8B0000E0501166F42DC8EDE16C500F03A
:0208480012009C
:10084A002DC300F0000E016E280E046E000E056E18
:10085A0047DC330E00240401C56F030E0120C66F66
:10086A00C70EE8CFE9FF040EE8CFEAFFC5C4E1FFEF
:10087A00C6C4E2FF220EE6CFEEFFE806FCE1000E58
:10088A00E8CFE9FF000EE8CFEAFFC70EE8CFE1FFA5
:10089A00040EE8CFE2FF150EE6CFEEFFE806FCE114
:1008AA00DCC4F8FFDDC4F7FFDEC4F6FFDFC4F4FFE3
:1008BA00E0C4F3FFE1C4EAFFE2C4E9FFE3C4E2FFF4
:0A08CA00E4C4E1FFE5C4E0FF120002
:1008D40013C501F014C502F013C503F014C504F0E8
:1008E40003C0E9FF04C0EAFFEE50200A03E1034A13
:1008F400042AF6D703C0E9FF04C0EAFF01C0E1FF00
:1009040002C0E2FFEECFE6FF014A022A034A042AAC
:1009140003C0E9FF04C0EAFFEE50000A01E0EAD791
:0C09240001C0E1FF02C0E2FFE66A120021
:1009300014C5E1FF15C5E2FF200EE66E200EE66E3F
:10094000300EE66EE66A020E05011425166F000EE3
:100950001521176F1351000A1AE00A0E046E13C511
:1009600000F0F6DC08C000F016C5E1FF17C5E2FF95
:10097000300E0024E66E0A0E046E13C500F0E8DCAB
:1009800000C013F5010E165F000E175BE3D71200CF
:10099000EACFE1F4E9CFE2F4E2CFE3F4E1CFE4F42B
:1009A000000EE8CFE9FF000EE8CFEAFFC70EE8CF60
:1009B000E1FF040EE8CFE2FF150EE806FEE1F8CFF6
:1009C000DCF4F7CFDDF4F6CFDEF4F4CFDFF4F3CFD1
:1009D000E0F4E0CFE5F42DC300F0000E016E280E28
:1009E000046E000E056E75EC00F0330E0024040159
:1009F000C56F030E0120C66FC70EE8CFE9FF040ED6
:100A0000E8CFEAFFC5C4E1FFC6C4E2FF220EEECF85
:080A1000E6FFE806FCE112001C
:100A18000F0E05011315026E13C500F00032009E7B
:100A28000032009E0032009E0032009E0A0E000234
:100A3800F3CF00F00250002600C013F500C014F5F3
:060A480014C500F01200CD
:100A4E00170EE16E050EE26E13C5D9FF14C5DAFF5F
:100A5E00030E006E000E016E68DD19C51BF515C57F
:100A6E001CF516C51DF58DDD020E1525E16E000E69
:100A7E001621E26E3A0EE66E18C51BF5030E15250D
:100A8E001C6F000E16211D6F7CDD050E1525E16E07
:100A9E00000E1621E26E3A0EE66E17C51BF5060E17
:100AAE0015251C6F000E16211D6F6BDD080E15250A
:0C0ABE00E16E000E1621E26EE66A1200E6
:100ACA000501156B135109081BE20A0E046E13C5C2
:100ADA0000F039DC00C015F500C015F51537159181
:100AEA001537159115371591153715910A0E046E9C
:100AFA0013C500F028DC08C000F00050151302D01E
:0E0B0A0013C515F515C514F514C500F012003D
:100B1800170EE16E050EE26E13C5D9FF14C5DAFF94
:100B2800040E006E000E016E03DD18C51BF515C519
:100B38001CF516C51DF528DD020E1525E16E000E03
:100B48001621E26E2F0EE66E19C51BF5030E15254C
:100B58001C6F000E16211D6F17DD050E1525E16EA1
:100B6800000E1621E26E2F0EE66E060E1525E16EBA
:100B7800000E1621E26E320EE66E070E1525E16EA6
:100B8800000E1621E26E300EE66E1AC51BF5080E31
:100B980015251C6F000E16211D6FF6DC0A0E152593
:0C0BA800E16E000E1621E26EE66A1200FB
:100BB40013C519F514C51AF515C51BF516C51CF58D
:100BC40013C51DF514C51EF5030E05011F6F000E98
:100BD400206F8DDC030E1925006E000E1A21016EA4
:100BE40000C019F501C01AF517C51BF518C51CF589
:100BF40000C01DF501C01EF5040E1F6F000E206F0E
:040C040076DC120088
:100C080009DCD00E1B6FF9EC01F016C51BF5F9ECE9
:100C180001F0A9DCD10E05011B6FF9EC01F005010B
:100C2800176B1551175D17E21505016E175101185D
:100C380002E1186B02D0010E186F18C51BF5C5DC50
:100C480013C5E1FF14C5E2FF00C0E6FF0501134B21
:0A0C5800142B172BE6D7B7DC1200AF
:100C62009D909DEC00F0FF0E03012D6F3251FF0AA3
:100C7200D8B498D00401E96BE951C45DD8A092D0F0
:100C8200290EE96E030EEA6EE951E926D8B0EA2A86
:100C9200EE50FF0A0AE1290EE16E030EE26EE951FF
:100CA200E126D8B0E22A32C3E6FF290EE96E030E2E
:100CB200EA6EE951E926D8B0EA2AEECFEBF4EB2B43
:100CC200EB510301325D02E20401EB6B0401EBC460
:100CD20000F0000E016E280E046E000E056E75EC1B
:100CE20000F0330E0024026E030E0120036E220E6A
:100CF2000224E96E000E0320EA6EEECF03F003C079
:100D0200EAF4330E0026030E0122230E0024E96EBC
:100D1200000E0120EA6EEECF02F002C0FFF0035097
:100D2200040AFF0ED8A4000E016E0250E919FF0E4C
:100D3200D8A4000E006E00500116290ED96E030EC3
:100D4200DA6EE951D926D8B0DA2AEB51DE18FF0E55
:100D5200D8A4000E006E0150001201E1B0D7EA5192
:100D6200040AFF0ED8A4000E016E0001FF51040117
:100D7200E919FF0ED8A4000E006E015000160DE016
:100D8200290EE16E030EE26EE951E126D8B0E22AA5
:100D9200EBC4E6FFEBC42DF305D0E951C41902E020
:080DA200E92B6AD79D801200C5
:100DAA0015C501F0010E006E015004E000360090F6
:100DBA00FF0FFBD700C019F5001E00C018F513C5B8
:100DCA00E9FF0050EF16120E05011325E96E176BA5
:100DDA0017C501F016C500F0015004E00032009E6C
:100DEA00FF0FFBD7010E0014016E1851EF160150C8
:100DFA00000A02E01951EF12A5EC02F01951EF12A4
:100E0A001751070A02E0172BE3D7120EE95E63ECCB
:080E1A0000F063EC00F012008F
:100E220015C501F0010E006E015004E0003600907D
:100E3200FF0FFBD700C019F5001C0501186F166BD8
:100E420013C5E9FF176B1851EF16120EE926185158
:100E5200EF164EEC00F01951EF124EEC00F0120EAC
:100E6200E95E1951EF14006E0CE017C501F0010E96
:100E7200006E015004E000360090FF0FFBD70050D7
:100E8200161363EC00F063EC00F01751070A02E05E
:0A0E9200172BD9D716C500F0120087
:100E9C0005010651010A03E1800E066F14D00651BC
:100EAC00020A03E1C00E066F0ED00651030A03E1DD
:100EBC00940E066F08D00651040A03E1D40E066F97
:100ECC0002D0800E066F0705006E0651002600C08A
:100EDC0006F500C01BF5B7EC01F07D9105010A6B1E
:100EEC000A510825E96E000E0921EA6EEE50000A3F
:100EFC000CE00A510825E96E000E0921EA6EEECFCE
:100F0C0013F565DC05010A2BEBD701017D8112007D
:100F1C00046A056A066A006A04B0002A00500008D8
:100F2C00FF0ED8B0000E036EF40EE96E000EEA6EE2
:100F3C000550E926D8B0EA2A06C001F0010E006E71
:100F4C00015004E000360090FF0FFBD70050EE1468
:100F5C00026E016A0250000A02E0010E016E01509D
:100F6C000008FF0ED8B0000E026E04C000F0003274
:100F7C00009E00C004F00350021802E08C0E041A0C
:100F8C000650070A02E0062AC6D70550080A02E0F6
:0A0F9C00052AC0D704C000F01200BF
:100FA60005010B6B08C502F0010E006E025005E04C
:100FB600003600900136FF0FFAD706C5E9FF07C5D0
:100FC600EAFF0050EE14026E016A0250000A02E0C7
:100FD600010E016E050101500A1926E109510008AA
:100FE60006E2BDEC02F0BDEC02F00907F7D708C532
:100FF60002F0010E006E025005E000360090013648
:10100600FF0FFAD706C5E9FF07C5EAFF0050EE1441
:10101600026E016A0250000A02E0010E016E0150E2
:0E1026000A1902E1FF0E0B6F0BC500F012005D
:10103400080E0501136F050E146F070E156F166B5E
:10104400E1DD7F0E08177F0E09173F0E0A17070E02
:101054000B173F0E0C171F0E0D1706C51BF507C502
:101064001CF5080E1D6F050E1E6F070E1F6F000E78
:08107400206F79EC02F012007C
:0C107C00DE5003E0E66E3EEF08F01200CC
:1010880006C513F507C514F508C515F533EC03F0C7
:101098000050000AFF0ED8A4000E0A6F06C513F50B
:1010A80007C514F508C515F5CC0E166F7ADE06C50A
:1010B80013F507C514F508C515F5440E166F71DE4E
:1010C80009530CE0040006C513F507C514F508C557
:1010D80015F5F4EC03F0005201E1F4D70AC500F06D
:0210E8001200F4
:1010EA00000EF2BE010E03012C6FF29EFDCFE6F454
:1010FA00FECFE7F4FFCFE8F446DC03012CB102D0BF
:10110A00F29E01D0F28E2DC300F0000E016E280E61
:10111A00046E000E056E75EC00F0330E0026030E09
:10112A000122220E0024E16E000E0120E26E020E60
:10113A00E66E2DC300F0000E016E280E046E000E3E
:10114A00056E75EC00F0330E0026030E0122240E04
:10115A000024E16E000E0120E26E06C5E6FF07C517
:10116A00E6FF7ADD03012D51FF0A01E1FAD7000EED
:10117A00F2BE010E2C6FF29E2DC300F0000E016E1E
:10118A00280E046E000E056E75EC00F0330E002674
:10119A00030E0122220E0024E16E000E0120E26EEF
:1011AA00050EE66E25EC04F0E6C4FDFFE7C4FEFF7B
:1011BA00E8C4FFFF03012CB102D0F29E01D0F28EE7
:0211CA00120011
:1011CC00080E05011B6F050E1C6F06C51DF507C526
:1011DC001EF5070E1F6F000E206F79EC02F0010157
:1011EC00095304E07F0E0501081702D00501088F92
:1011FC00080E136F050E146F070E156F166B5FEC50
:04120C0003F01200D9
:1012100006C513F507C514F508C515F533EC03F03D
:1012200006C513F507C514F508C515F5CC0E166FE0
:10123000BCDD06C513F507C514F508C515F5BE0ECA
:10124000166FB3DD0B6BF40E0C6F000E0D6F0B51B0
:101250000C27D8B00D2B06C513F507C514F508C526
:1012600015F5DFDD0CC5E1FF0DC5E2FF00C0E6FFAF
:101270000B51080A02E00B2BE6D7F4C009F5F5C0C4
:0C1280000AF509C500F00AC501F01200D3
:10128C00080EE16E050EE26E06C5D9FF07C5DAFF42
:10129C00070E006E000E016E9CEC02F00AC513F5F1
:1012AC000CEC05F000C00AF509C513F50CEC05F0C3
:1012BC0000C009F508C513F50CEC05F000C008F5E5
:1012CC000CC513F50CEC05F000C00CF50DC513F5B1
:1012DC000CEC05F000C00DF50EC513F50CEC05F08B
:1012EC0000C00EF506C5E1FF07C5E2FF080ED96E7A
:1012FC00050EDA6E070E006E000E016E9CEC02F00D
:02130C001200CD
:10130E0005010651FF0A54E006C500F0000E016EFD
:10131E00050E046E000E056E75EC00F0100E002426
:10132E00E96E030E0120EA6EEECF01F00150020AC3
:10133E0019E106C500F0000E016E050E046E000EDA
:10134E00056E75EC00F0100E0026030E0122010E44
:10135E000024E16E000E0120E26E010EE66E000E1C
:10136E00E66E26D006C500F0000E016E050E046E68
:10137E00000E056E75EC00F0100E0026030E012215
:10138E00010E0024026E000E0120036E02C0E9FF62
:10139E0003C0EAFFEECF00F0EECF01F0004A012AC3
:1013AE0002C0E1FF03C0E2FF00C0E6FF01C0E6FF9E
:0213BE0012001B
:1013C000000EF2BE010E03012C6FF29EFDCFE6F47B
:1013D000FECFE7F4FFCFE8F4C8EC04F003012CB132
:1013E00002D0F29E01D0F28E2DC300F0000E016EED
:1013F000280E046E000E056E75EC00F0330E00260C
:10140000030E0122220E0024E16E000E0120E26E86
:10141000040EE66E26DC03012D51FF0A01E1FAD726
:10142000000EF2BE010E2C6FF29E2DC300F0000ED6
:10143000016E280E046E000E056E75EC00F0330E82
:101440000026030E0122220E0024E16E000E012070
:10145000E26E050EE66E25EC04F0E6C4FDFFE7C47F
:10146000FEFFE8C4FFFF03012CB102D0F29E01D0C1
:04147000F28E1200E6
:1014740006C513F507C514F50C0E006E050E016EB6
:1014840000C015F501C016F50F0E006E050E016EB5
:1014940000C017F501C018F5DAEC05F00C0E006E6B
:1014A400050E016E00C013F501C014F508C515F54D
:1014B40009C516F527EC05F00F0E006E050E016E3A
:1014C40000C013F501C014F50AC515F50BC516F5D2
:0614D4008CEC05F0120093
:1014DA0005010751800A02E1000E061912E108C54A
:1014EA00E1FF09C5E2FF2D0EE66E330EE66E320EFF
:1014FA00E66E370EE66E360EE66E380EE66EE66A73
:10150A0061D00C6B800E0719006E800E005C02E140
:10151A00000E065D08E2FF0E0C6F06510008066F0A
:10152A000751000E075708C5E1FF09C5E2FF200E63
:10153A00E66E200EE66E200EE66E200EE66E200E99
:10154A00E66E300EE66EE66A050E08250A6F000E94
:10155A0009210B6F000E071902E1000E06192AE095
:10156A000A0E046E000E056E06C500F007C501F0EE
:10157A008AEC03F008C000F009C001F0300E002622
:10158A000AC5E1FF0BC5E2FF00C0E6FF0A0E046EC2
:10159A00000E056E06C500F007C501F08AEC03F0DF
:1015AA0000C006F501C007F5010E05010A5F000E2D
:1015BA000B5BD0D70C5306E00AC5E1FF0BC5E2FF6F
:0615CA002D0EE66E12007A
:1015D00005010651FF0A01E1BDD09D909DEC00F090
:1015E0009D8006C500F0000E016E050E046E000E13
:1015F000056E75EC00F0100E0026030E0122010EA0
:101600000024E96E000E0120EA6EEECF01F0EECF6D
:1016100002F0000E006E0250005C02E10150000872
:1016200029E206C500F0000E016E050E046E000EE4
:10163000056E75EC00F0100E0026030E0122010E5F
:101640000024026E000E0120036E02C0E9FF03C0F9
:10165000EAFFEECF00F0EECF01F0010E005E000ECB
:10166000015A02C0E1FF03C0E2FF00C0E6FF01C073
:10167000E6FF70D0000EF2BE010E03012C6FF29E49
:10168000FDCFE6F4FECFE7F4FFCFE8F4C8EC04F0BA
:1016900003012CB102D0F29E01D0F28E2DC300F0D6
:1016A000000E016E280E046E000E056E75EC00F043
:1016B000330E0026030E0122260E0024E16E000EDA
:1016C0000120E26E06C5E6FF2DC300F0000E016E9C
:1016D000280E046E000E056E75EC00F0330E002629
:1016E000030E0122220E0024E16E000E0120E26EA4
:1016F000030EE66E31EC06F003012D51FF0A01E105
:10170000F9D7000EF2BE010E2C6FF29E2DC300F031
:10171000000E016E280E046E000E056E75EC00F0D2
:10172000330E0026030E0122220E0024E16E000E6D
:101730000120E26E050EE66E25EC04F0E6C4FDFF26
:10174000E7C4FEFFE8C4FFFF03012CB102D0F29E04
:0617500001D0F28E120030
:1017560006C501F007C502F008C503F009C504F087
:101766000AC505F00BC506F003C0E9FF04C0EAFF91
:10177600EE50000A0FE003C0E9FF04C0EAFF01C013
:10178600E1FF02C0E2FFEECFE6FF014A022A034A6A
:10179600042AEAD705C0E9FF06C0EAFFEE50000AB0
:1017A6000FE005C0E9FF06C0EAFF01C0E1FF02C085
:1017B600E2FFEECFE6FF014A022A054A062AEAD7E9
:0C17C60001C0E1FF02C0E2FFE66A120071
:1017D20005010C6B07AF06D0FF0E0C6F061F071F2B
:1017E200064B072B300E0B6F06A102D0350E0B6F86
:1017F20007330633079F07BD078F06C513F508C5D4
:1018020014F509C515F598EC04F008C513F509C5DA
:1018120014F56AEC04F005010C5308E02D0E136F69
:1018220008C514F509C515F500EC03F00D6B0D5153
:101832000825E96E000E0921EA6EEE50000802E268
:101842000D2BF5D70D510825E16E000E0921E26E30
:101852000AC5E6FF0D51010F006E00500825E16E2A
:10186200000E0921E26E0BC5E6FF020E0D25006E89
:1018720000500825E16E000E0921E26EE66A1200B0
:10188200080EE16E050EE26E06C5D9FF07C5DAFF46
:10189200070E006E000E016E9CEC02F00AC513F5F5
:1018A20065EC05F000C00AF509C513F565EC05F015
:1018B20000C009F508C513F565EC05F000C008F590
:1018C2000CC513F565EC05F000C00CF50DC513F55C
:1018D20065EC05F000C00DF50EC513F565EC05F0DD
:1018E20000C00EF506C5E1FF07C5E2FF080ED96E7E
:1018F200050EDA6E070E006E000E016E9CEC02F011
:021902001200D1
:10190400FF0E0401F56F03013251090A01E15AD0B7
:101914003251FF0A02E1326B01D0322B32C3F5F4AB
:10192400F0C42EF3F1C42FF3F2C430F3F3C431F353
:1019340032C300F0000E016E280E046E000E056E18
:1019440075EC00F0330E0024026E030E0120036ECA
:10195400220E0224E16E000E0320E26E010EE66EFA
:10196400030E0401F45D02E3020EF46FF451C45D4E
:1019740002E2F4C4C4F4230E0224E16E000E032038
:10198400E26EF4C4E6FF270E0224E16E000E03208B
:10199400E26EE66A1F0E0224E16E000E0320E26E80
:1019A4002EC3E6FF200E0224E16E000E0320E26E39
:1019B4002FC3E6FF210E0224E16E000E0320E26E27
:0A19C40030C3E6FFF5C400F0120086
:1019CE000401F0510301325D01E22FD09D90F0C46D
:1019DE0000F0000E016E280E046E000E056E75EC02
:1019EE0000F0330E0026030E0122220E0024E96EB3
:1019FE00000E0120EA6EEE50010A16E1F0C400F06E
:101A0E00000E016E280E046E000E056E75EC00F0D1
:101A1E00330E0026030E0122220E0024E16E000E6C
:0C1A2E000120E26E040EE66E9D801200A6
:101A3A00F40E0501066F010E076F75EC08F0F26AE5
:101A4A008B74830E0501066F0F0E076F86C108F5AA
:101A5A00FF0E096F44EC08F0830E066F0F0E076F36
:101A6A0086C108F508EC09F000C004F301C005F3CB
:101A7A0001018651010F026E0204056E05C002F0D3
:101A8A00000E036E023602900336060E0224D96E49
:101A9A00030E0320DA6EDECF03F0DECF04F001502E
:101AAA00041802E103500018D8B42AD18651010F54
:101ABA00006E0004036E03C000F0000E016E0036D3
:101ACA0000900136060E0024E16E030E0120E26E3C
:101ADA0004C3E6FF05C3E6FF8EEC07F000C00EF371
:101AEA000050000839E2020E0501066F010E076F69
:101AFA00540E0401F06F650EF16F6D0EF26F700EE9
:101B0A00F36F650EF46F720EF56F610EF66F740E59
:101B1A00F76F750EF86F720EF96F650EFA6F200E79
:101B2A00FB6F430EFC6F520EFD6F430EFE6F200ECD
:101B3A00FF6F650E0501006F720E016F720E026F64
:101B4A006F0E036F720E046F056BF00E086F040EB2
:101B5A00096F4EEC07F0D0D001018651010F006EDB
:101B6A000004036E03C000F0000E016E0036009000
:101B7A000136060E0024E96E030E0120EA6EEECF4E
:101B8A0006F5EECF07F5EF0E0501086F020E096F95
:101B9A002C0E0A6F19DE020E0101865D51E286C122
:101BAA0000F0003600900036009000360090030ED8
:101BBA0000269D0EE16E010EE26E0050E126D8B0BD
:101BCA00E22AEFC2E6FF86C100F000360090003636
:101BDA00009000360090040E00269D0EE16E010E64
:101BEA00E26E0050E126D8B0E22AF0C2E6FF86C1D2
:101BFA0000F0003600900036009000360090050E86
:101C0A0000269D0EE16E010EE26E0050E126D8B06C
:101C1A00E22AF1C2E6FF86C100F0003600900036E3
:101C2A00009000360090060E00269D0EE16E010E11
:101C3A00E26E0050E126D8B0E22AF2C2E6FF5CD09A
:101C4A00020E865D026E02C000F000360090003679
:101C5A00009000360090030E0026AE0EE16E010ED3
:101C6A00E26E0050E126D8B0E22AEFC2E6FF020E89
:101C7A00865D026E02C000F00036009000360090C9
:101C8A0000360090040E0026AE0EE16E010EE26EE2
:101C9A000050E126D8B0E22AF0C2E6FF020E865DC5
:101CAA00026E02C000F00036009000360090003646
:101CBA000090050E0026AE0EE16E010EE26E005097
:101CCA00E126D8B0E22AF1C2E6FF020E865D026E74
:101CDA0002C000F0003600900036009000360090F6
:101CEA00060E0026AE0EE16E010EE26E0050E126EF
:101CFA00D8B0E22AF2C2E6FF85C106F587EC09F000
:101D0A000101862B030E8617C00EF26EE0EC09F075
:041D1A008FD612004E
:101D1E009D9003010F6B0FC300F0000E016E280E95
:101D2E00046E000E056E75EC00F0330E0026030EE9
:101D3E000122220E0024E16E000E0120E26EE66A00
:101D4E000F51090A02E00F2BE6D70F6B0FC300F0FD
:101D5E00000E016E050E046E000E056E75EC00F0A1
:101D6E00100E0024E16E030E0120E26EE66A0F51A2
:101D7E00040A02E00F2BEAD7FF0E0401C36F030122
:101D8E000F6B290EE16E030EE26E0F51E126D8B0F5
:101D9E00E22AFF0EE66E0F51020A02E00F2BF1D778
:101DAE000401C46BFF0E03012D6FFF0E326F120084
:101DBE009D8031EC06F003012D51FF0A01E1F9D7A8
:101DCE00000EF2BE010E2C6FF29E2DC300F0000E1F
:101DDE00016E280E046E000E056E75EC00F0330ECB
:101DEE000026030E0122220E0024E16E000E0120B9
:101DFE00E26E050EE66E25EC04F0E6C4FDFFE7C4C8
:101E0E00FEFFE8C4FFFF03012CB102D0F29E01D009
:041E1E00F28E12002E
:101E220003013251FF0AD8B487D001017E6B7E5183
:101E32000301325DD8A080D07EC100F0000E016E99
:101E4200280E046E000E056E75EC00F0330E0026AF
:101E5200030E012200C07FF101C080F1220E002496
:101E6200E96E000E0120EA6EEECF02F00250020A85
:101E7200FF0ED8A4000E016E0250030AFF0ED8A472
:101E8200000E006E015000124FE0240E01017F256A
:101E9200E96E000E8021EA6EEECF01F0EECF02F085
:101EA200000E006E0250005C02E1015000083CE2AC
:101EB200240E7F25026E000E8021036E02C0E9FF10
:101EC20003C0EAFFEECF00F0EECF01F0010E005E9C
:101ED200000E015A02C0E1FF03C0E2FF00C0E6FFAC
:101EE20001C0E6FF240E7F25E96E000E8021EA6E16
:101EF200EECF01F0EECF02F0000E021802E1000E6A
:101F0200011812E1220E7F25E96E000E8021EA6E91
:101F1200EE50020A09E1220E7F25E16E000E8021B9
:101F2200E26E040EE66E00D001017E510301321909
:0A1F320003E001017E2B7BD71200B3
:101F3C0005C106F5E8EC0AF001010851FF0A43E17E
:101F4C002E50000A02E14B0E2D18FF0ED8A4000EE5
:101F5C00016E2E50000A02E1750E2D18FF0ED8A44A
:101F6C00000E006E005001122E50000A02E19F0E6E
:101F7C002D18FF0ED8A4000E006E005001122E502A
:101F8C00000A02E1C90E2D18FF0ED8A4000E006E37
:101F9C00015000120CE00001F35304E0FF0E4A6EF6
:101FAC00F36B05D0FF0EF36F4A52D8A44A6A280E81
:101FBC002D24E96E000E2E20EA6EEECF2DF0EECF22
:101FCC002EF00101086B0751FF0A60E12E50000A48
:101FDC0002E14B0E2D18FF0ED8A4000E016E2E50F0
:101FEC00000A02E1750E2D18FF0ED8A4000E006E2B
:101FFC00005001122E50000A02E19F0E2D18FF0E08
:10200C00D8A4000E006E005001122E50000A02E1FE
:10201C00C90E2D18FF0ED8A4000E006E0150001230
:10202C0025E00001F3530CE0F36B2E50000A02E1A3
:10203C004B0E2D1804E125C006F587EC09F015D0E0
:10204C004A5205E0FF0E0001F36F4A6A0ED0010EF2
:10205C00336E000E346E220E2D24E96E000E2E20EF
:10206C00EA6EEECF2DF0EECF2EF00ED0010E336EC9
:10207C00000E346E220E2D24E96E000E2E20EA6E18
:10208C00EECF2DF0EECF2EF00101076B3150FF0A91
:10209C00D8A457D12E50000A02E14B0E2D18D8A40B
:1020AC00AFD04A52D8B494D0260E0501066F000E5C
:1020BC00076F46EC09F0000E341802E1030E3318DA
:1020CC000BE12C50630A02E12C6A05D02C50010F55
:1020DC00006E00C02CF050D0000E341802E1020E3D
:1020EC0033180CE12B500C0A03E1010E2B6E05D0BA
:1020FC002B50010F006E00C02BF03ED0000E341898
:10210C0002E1010E331816E12B04006E350ED96E68
:10211C00000EDA6E0050D926D8B0DA2A2A50DE1812
:10212C0003E1010E2A6E05D02A50010F006E00C08B
:10213C002AF022D0000E341802E1040E33180BE101
:10214C002850170A02E1286A05D02850010F006EAA
:10215C0000C028F011D0000E341802E1050E33181F
:10216C000BE127503B0A02E1276A05D02750010FEB
:10217C00006E00C027F000D00501260E066F000E81
:10218C00076F41EC0CF0260E066F000E076F410E28
:10219C00086F000E096F890E0A6F010E0B6F3AEC77
:1021AC000AF04B0EE16E000EE26E890ED96E010E36
:1021BC00DA6E3EEC08F0E66A5C0EE16E000EE26E42
:1021CC00410ED96E000EDA6E3EEC08F0E66A17D0BE
:1021DC000001F35314E0050E046E000E056E33C0BF
:1021EC0000F034C001F08AEC03F008C000F009C024
:1021FC0001F0010E0024336E000E0120346EA0D0CD
:10220C002E50000A02E1750E2D183CE14A5217E0DF
:10221C003304006E940EE16E010EE26E0050E12666
:10222C00D8B0E22A940EE96E010EEA6E0050E9264F
:10223C00D8B0EA2AEE1C006E00C0E6FF22D00001E6
:10224C00F35315E0070E046E000E056E33C000F05C
:10225C0034C001F08AEC03F008C000F009C001F0B2
:10226C00010E0024336E000E0120346E0AD0240EB1
:10227C002D24E96E000E2E20EA6EEECF2DF0EECF5F
:10228C002EF05ED02E50000A02E1C90E2D184EE140
:10229C004A5229E0000E341802E1010E331812E103
:1022AC0001019B4B9C2B800E8819006E800E9C1993
:1022BC00005C02E19B51875D04E287C19BF188C100
:1022CC009CF110D00101874B882B800E006E800E84
:1022DC008819005C02E18751320804E2320E876FE4
:1022EC00000E886F22D00001F35315E0020E046E2D
:1022FC00000E056E33C000F034C001F08AEC03F020
:10230C0008C000F009C001F0010E0024336E000E6D
:10231C000120346E0AD0240E2D24E96E000E2E20DE
:10232C00EA6EEECF2DF0EECF2EF00AD0240E2D2437
:10233C00E96E000E2E20EA6EEECF2DF0EECF2EF0D1
:10234C00316A2F50FF0AD8A448D12E50000A02E15E
:10235C004B0E2D18D8A4A8D04A52D8B492D0260E21
:10236C000501066F000E076F46EC09F0000E3418DD
:10237C0002E1030E33180BE12C50000A03E1630E4B
:10238C002C6E04D02C04006E00C02CF04ED0000E2D
:10239C00341802E1020E33180BE12B50010A03E151
:1023AC000C0E2B6E04D02B04006E00C02BF03DD015
:1023BC00000E341802E1010E331815E12A50010AFF
:1023CC000DE12B04006E350EE96E000EEA6E005026
:1023DC00E926D8B0EA2AEECF2AF004D02A04006EFF
:1023EC0000C02AF022D0000E341802E1040E33187B
:1023FC000BE12850000A03E1170E286E04D02804C4
:10240C00006E00C028F011D0000E341802E1050E49
:10241C0033180BE12750000A03E13B0E276E04D062
:10242C002704006E00C027F000D00501260E066FB1
:10243C00000E076F41EC0CF0260E066F000E076FB6
:10244C00410E086F000E096F890E0A6F010E0B6F9B
:10245C003AEC0AF04B0EE16E000EE26E890ED96E6C
:10246C00010EDA6E3EEC08F0E66A5C0EE16E000ED0
:10247C00E26E410ED96E000EDA6E3EEC08F0E66AA2
:10248C0012D00001F3530FE0000E341802E1010EDC
:10249C00331805E1050E336E000E346E04D0010EB8
:1024AC00335E000E345A98D02E50000A02E1750E9D
:1024BC002D1837E14A5217E03304006E940EE16E8A
:1024CC00010EE26E0050E126D8B0E22A940EE96EBD
:1024DC00010EEA6E0050E926D8B0EA2AEE1C006E16
:1024EC0000C0E6FF1DD00001F35310E0000E3418BD
:1024FC0002E1010E331805E1070E336E000E346E47
:10250C0004D0010E335E000E345A0AD0260E2D2450
:10251C00E96E000E2E20EA6EEECF2DF0EECF2EF0EF
:10252C005BD02E50000A02E1C90E2D184BE14A5225
:10253C002BE0000E341802E1010E331811E1010EEC
:10254C0001019B5F000E9C5B800E9C19006E800E3F
:10255C00005C02E1000E9B5D02E29B6B9C6B13D056
:10256C000101010E875F000E885B800E8819006EDA
:10257C00800E9C19005C02E19B51875D04E29BC1BB
:10258C0087F19CC188F11DD00001F35310E0000EBF
:10259C00341802E1010E331805E1020E336E000E01
:1025AC00346E04D0010E336E000E346E0AD0260E3B
:1025BC002D24E96E000E2E20EA6EEECF2DF0EECF1C
:1025CC002EF00AD0260E2D24E96E000E2E20EA6E77
:1025DC00EECF2DF0EECF2EF02F6A85C106F587ECED
:0A25EC0009F0E0EC09F0A4D412009D
:1025F600FF0E0401F16FC351040A01E139D0C35142
:10260600FF0A02E1C36B01D0C32BC3C4F1F4C3C4F8
:1026160000F0000E016E050E046E000E056E75ECE0
:1026260000F0100E0026030E012200C0E1FF01C0DB
:10263600E2FF020EE66EF0530BE0010E0024E16E9F
:10264600000E0120E26E010EE66E000EE66E08D068
:10265600010E0024E16E000E0120E26EE66AE66AD3
:10266600030E0024E16E000E0120E26EE66AE66AC1
:06267600F1C400F01200A7
:10267C00320E0501066F000E076F75EC08F02E5038
:10268C00000A02E14B0E2D18FF0ED8A4000E016EAD
:10269C004A50000AFF0ED8A4000E006E015000161E
:1026AC002FE0260E0501066F000E076F1AEC08F0DE
:1026BC00260E066F000E076F410E086F000E096F95
:1026CC00890E0A6F010E0B6F3AEC0AF04B0EE16E9D
:1026DC00000EE26E890ED96E010EDA6E3EEC08F039
:1026EC00E66A5C0EE16E000EE26E410ED96E000ED3
:1026FC00DA6E3EEC08F0E66A85C106F587EC09F067
:08270C00E0EC09F0B5D7120062
:10271400F10E0501136F040E146F080E156F166B7E
:1027240004EC06F0BF0E0401F317100EF86FF10E5F
:102734000501136F040E146F080E156F166B5FEC12
:1027440003F0016A0401F1BF012A0150000AFF0EDF
:10275400D8A4000E006E00C009F100C0F0F47F0E92
:0C276400F11501010A6FF0C400F0120032
:1027700085C106F5E8EC0AF0010E05011B6FB7EC08
:1027800001F0010E0501066F010E076F2DC008F55F
:102790002EC009F54EEC07F0020E0501066F010E82
:1027A000076F110E2D24086F000E2E20096F4EECBE
:1027B00007F00001F35306E00E0E05011B6FB7ECA6
:1027C00001F00DD04A5206E00F0E05011B6FB7EC69
:1027D00001F005D00C0E05011B6FB7EC01F04A505B
:1027E0000001F311006ED8B46ED22E50000A02E13F
:1027F0004B0E2D18D8A483D0020E05011B6FB7EC29
:1028000001F0000E341802E1010E331806E1800ECB
:1028100005011B6FB7EC01F071D0000E341802E116
:10282000020E331815E1800E05011B6FB7EC01F0A5
:10283000140E05011B6FB7EC01F0140E05011B6FA0
:10284000B7EC01F0140E05011B6FB7EC01F056D088
:10285000000E341802E1030E331829E1800E050141
:102860001B6FB7EC01F0140E05011B6FB7EC01F004
:10287000140E05011B6FB7EC01F0140E05011B6F60
:10288000B7EC01F0140E05011B6FB7EC01F0140E4C
:1028900005011B6FB7EC01F0140E05011B6FB7ECBF
:1028A00001F0140E05011B6FB7EC01F027D0000EEC
:1028B000341802E1040E331806E1C00E05011B6F47
:1028C000B7EC01F01BD0000E341802E1050E3318EE
:1028D00015E1C00E05011B6FB7EC01F0140E0501E8
:1028E0001B6FB7EC01F0140E05011B6FB7EC01F084
:1028F000140E05011B6FB7EC01F000D0E4D12E508F
:10290000000A02E1750E2D1858E1020E05011B6F39
:10291000B7EC01F0C00E05011B6FB7EC01F0010E22
:102920000201ED6F000EEE6F140E05011B6FB7EC88
:1029300001F0000E0201EE1902E10E0EED1903E0A6
:10294000ED4BEE2BF1D73304006E940EE96E010EC1
:10295000EA6E0050E926D8B0EA2AEE50FF0A09E1F3
:10296000200E0101786F4F0E796F4E0E7A6F7B6BE0
:1029700008D001014F0E786F460E796F460E7A6FC0
:102980007B6B860E0501066F000E076F3304006E29
:10299000000E016E0E0E046E000E056E75EC00F05A
:1029A000160E0024086F010E0120096F780E0A6FC1
:1029B000010E0B6FABEC0BF086D12E50000A02E13A
:1029C0009F0E2D18D8A4B9D0020E05011B6FB7ECCD
:1029D00001F0C00E05011B6FB7EC01F0000E3418BA
:1029E00002E1010E331815E1010E0201ED6F000E38
:1029F000EE6F140E05011B6FB7EC01F0000E020123
:102A0000EE1902E1030EED1903E0ED4BEE2BF1D7C9
:102A100014D00201010EED6F000EEE6F140E0501D1
:102A20001B6FB7EC01F0000E0201EE1902E10F0E70
:102A3000ED1903E0ED4BEE2BF1D7B00E0501066F5B
:102A4000000E076F0401F06BF00E0501086F040E15
:102A5000096F0401F16BF10E05010A6F040E0B6F93
:102A6000ABEC0BF0B00E0501066F000E076FB00E59
:102A7000086F000E096F530E0401F06F3A0EF16FEC
:102A8000200EF26FF36BF00E05010A6F040E0B6F50
:102A9000ABEC0BF07CC113F50F0E0501146F010EAA
:102AA000156F98EC04F0B00E066F000E076FB00EB5
:102AB000086F000E096F0F0E0A6F010E0B6FABEC63
:102AC0000BF0B00E0501066F000E076FB00E086F19
:102AD000000E096F200E0401F06F200EF16F200E22
:102AE000F26F200EF36F200EF46F450EF56F3A0E65
:102AF000F66F200EF76FF86BF00E05010A6F040EEB
:102B00000B6FABEC0BF00CC106F5000E0501076F67
:102B10000F0E086F010E096F6DEC0AF0B00E066F14
:102B2000000E076FB00E086F000E096F0F0E0A6FD0
:102B3000010E0B6FABEC0BF0C6D02E50000A02E179
:102B4000C90E2D18D8A4BFD0020E05011B6FB7EC1B
:102B500001F0C00E05011B6FB7EC01F0000E341838
:102B600002E1010E331815E1010E0201ED6F000EB6
:102B7000EE6F140E05011B6FB7EC01F0000E0201A1
:102B8000EE1902E1060EED1903E0ED4BEE2BF1D745
:102B900014D00201010EED6F000EEE6F140E050150
:102BA0001B6FB7EC01F0000E0201EE1902E10F0EEF
:102BB000ED1903E0ED4BEE2BF1D7B00E0501066FDA
:102BC000000E076F0401F06BF00E0501086F040E94
:102BD000096F0401F16BF10E05010A6F040E0B6F12
:102BE000ABEC0BF0B00E0501066F000E076FB00ED8
:102BF000086F000E096F4D0E0401F06F610EF16F4A
:102C0000780EF26F3A0EF36F200EF46FF56BF00E44
:102C100005010A6F040E0B6FABEC0BF09BC106F5C0
:102C20009CC107F50F0E0501086F010E096F6DECD1
:102C30000AF0B00E066F000E076FB00E086F000EA0
:102C4000096F0F0E0A6F010E0B6FABEC0BF0B00E9D
:102C50000501066F000E076FB00E086F000E096FBA
:102C6000200E0401F06F200EF16F200EF26F4D0E5A
:102C7000F36F690EF46F6E0EF56F3A0EF66F200E5D
:102C8000F76FF86BF00E05010A6F040E0B6FABECDB
:102C90000BF09BC106F59CC107F50F0E0501086FEF
:102CA000010E096F6DEC0AF0B00E066F000E076F93
:102CB000B00E086F000E096F0F0E0A6F010E0B6F3A
:0E2CC000ABEC0BF000D0E0EC09F052D51200A6
:102CCE00140E0501066F000E076F75EC08F0840EEA
:102CDE000501066F0F0E076F020E086F010E096FCA
:102CEE00010E0A6FD3EC07F0005203E0FF0E010154
:102CFE000B6F840E0501066F0F0E076F020E086F25
:102D0E00010E096F0A6BD3EC07F001010B5100168F
:102D1E0007E0FF0E086F0B6B05C106F587EC09F097
:102D2E00810E0501066F0F0E076F040E086F010E60
:102D3E00096F010E0A6FD3EC07F0005203E0FF0E8D
:102D4E000101066F810E0501066F0F0E076F040E4F
:102D5E00086F010E096F0A6BD3EC07F001010651E3
:102D6E00001607E0FF0E076F066B05C106F587EC30
:102D7E0009F0840E0501066F0F0E076F010E086F26
:102D8E00010E096F010E0A6FD3EC07F0005202E03C
:102D9E00FF0E306E840E066F0F0E076F010E086F5A
:102DAE00010E096F0A6BD3EC07F03050001607E0E6
:102DBE00FF0E316E306A05C106F587EC09F0840E00
:102DCE000501066F0F0E076F086B010E096F010EDE
:102DDE000A6FD3EC07F0005202E0FF0E326E840E43
:102DEE00066F0F0E076F086B010E096F0A6BD3EC9F
:102DFE0007F03250001607E0FF0E2F6E326A05C143
:0E2E0E0006F587EC09F0E0EC09F05AD7120047
:102E1C001F0E356E1C0E366E1F0E376E1E0E386E64
:102E2C001F0E396E1E0E3A6E1F0E3B6E1F0E3C6E41
:102E3C001E0E3D6E1F0E3E6E1E0E3F6E1F0E406E22
:102E4C00570E01019D6F650E9E6F6C0E9F6F630E8A
:102E5C00A06F6F0EA16F6D0EA26F650EA36F2C0E7F
:102E6C00A46F200EA56F4C0EA66F610EA76F630E9C
:102E7C00A86F690EA96F210EAA6FAB6BC70EC56F39
:102E8C00010EC66F9D0EBF6F010EC06F9D0EC16F00
:102E9C00010EC26F9D0EC36F010EC46F9D0E2D6E81
:102EAC00010E2E6E010E0201ED6F000EEE6FED05A0
:102EBC00006E000E016E2A0E046E000E056E75EC8F
:102ECC0000F0C70E0026010E0122240E002404017E
:102EDC00F06F000E0120F16F0201ED51010F006E39
:102EEC000006000E016E2A0E046E000E056E75ECC7
:102EFC0000F0C70E0026010E0122F0C4E1FFF1C460
:102F0C00E2FF00C0E6FF01C0E6FF000EEE1902E191
:102F1C00060EED1903E0ED4BEE2BC9D7C70EE76F8C
:102F2C00010EE86F070EED6F000EEE6FED0504015C
:102F3C00F26FF2C400F0000E016E2A0E046E000E49
:102F4C00056E75EC00F0C70E0026010E0122260E50
:102F5C000024F06F000E0120F16FF205006E000EE0
:102F6C00016E2A0E046E000E056E75EC00F0C70E95
:102F7C000026010E0122F0C4E1FFF1C4E2FF00C003
:102F8C00E6FF01C0E6FF000E0201EE1902E1020E9F
:102F9C00ED1905E0010EED5F000EEE5BC7D7C30E19
:102FAC000101ED6F020EEE6F010E0201ED6F000ECE
:102FBC00EE6FED05006E000E016E2A0E046E000E13
:102FCC00056E75EC00F0C70E0026010E0122220ED4
:102FDC000024E16E000E0120E26E9D0EE66E010EE5
:102FEC00E66E000EEE1902E1070EED1903E0ED4B53
:102FFC00EE2BDFD7010EED6F000EEE6FED05006EC0
:10300C00000E016E2A0E046E000E056E75EC00F0BB
:10301C00C70E0024026E010E0120036E280E02243E
:10302C00E16E000E0320E26EC70E0026010E012297
:10303C0000C0E6FF01C0E6FF000EEE1902E1070E2C
:10304C00ED1903E0ED4BEE2BD9D74B0E0101EF6FD1
:10305C00000EF06F750E0201196F000E1A6FC70E7D
:10306C0000016D6F010E6E6F4B0E6F6F000E706F67
:10307C004B0E716F000E726F4B0E736F000E746FF0
:10308C00010E0201ED6F000EEE6FED05006E000EED
:10309C00016E2A0E046E000E056E75EC00F0750EB6
:1030AC000026000E0122220E0024E16E000E0120EB
:1030BC00E26EF10EE66E010EE66EED05006E000E90
:1030CC00016E2A0E046E000E056E75EC00F0750E86
:1030DC000024026E000E0120036E280E0224E16E05
:1030EC00000E0320E26E750E0026000E012200C0B9
:1030FC00E6FF01C0E6FF000EEE1902E1030EED192A
:10310C0003E0ED4BEE2BC1D7C90E0001C36F000ECF
:10311C00C46F750EC56F000EC66FC90E9B6F000E87
:10312C009C6F750EED6F000EEE6F9F0E996F000E7B
:10313C009A6F9F0EEF6F000EF06F540E01019D6F92
:10314C00310E9E6F3A0E9F6F200EA06F200EA16F56
:10315C00200EA26F200EA36F200EA46F540EA56F2D
:10316C00320EA66F3A0EA76F200EA86F200EA96F15
:10317C00200EAA6F200EAB6FAC6B540EAE6F330EDD
:10318C00AF6F3A0EB06F200EB16F200EB26F200EE3
:10319C00B36F200EB46F200EB56F540EB66F340E95
:1031AC00B76F3A0EB86F200EB96F200EBA6F200EA3
:1031BC00BB6F200EBC6FBD6B310EC76F2E0EC86F70
:1031CC00200EC96F440ECA6F610ECB6F740ECC6F9C
:1031DC00650ECD6F2F0ECE6F540ECF6F690ED06F64
:1031EC006D0ED16F650ED26FD36BD86B320EF16F43
:1031FC002E0EF26F200EF36F460EF46F750EF56FF8
:10320C006E0EF66F630EF76F740EF86F690EF96F32
:10321C006F0EFA6F6E0EFB6F690EFC6F6E0EFD6F0C
:10322C00670EFE6FFF6B200E0201026F200E036F04
:10323C00200E046F200E056F200E066F490E076FCF
:10324C006E0E086F740E096F650E0A6F720E0B6F9F
:10325C00760E0C6F610E0D6F6C0E0E6F0F6B330EC6
:10326C001B6F2E0E1C6F200E1D6F4C0E1E6F6F0EE3
:10327C001F6F630E206F6B0E216F200E226F530E8B
:10328C00236F650E246F740E256F740E266F690EF6
:10329C00276F6E0E286F670E296F730E2A6F2B6BBC
:1032AC002C6B340E456F2E0E466F200E476F530E4F
:1032BC00486F740E496F610E4A6F740E4B6F750E2A
:1032CC004C6F730E4D6F200E4E6F4C0E4F6F450EA4
:1032DC00506F440E516F526B566B350E6F6F2E0E36
:1032EC00706F200E716F530E726F740E736F610ED0
:1032FC00746F6E0E756F640E766F620E776F790E4B
:10330C00786F200E796F440E7A6F690E7B6F730E97
:10331C007C6F700E7D6F7E6B200E806F200E816F28
:10332C00200E826F200E836F530E846F650E856F97
:10333C00740E866F740E876F690E886F6E0E896FB0
:10334C00670E8A6F730E8B6F8C6B360E996F2E0E09
:10335C009A6F200E9B6F4C0E9C6F6F0E9D6F670EBD
:10336C009E6F9F6BAA6B370EC36F2E0EC46F200E11
:10337C00C56F4D0EC66F650EC76F6E0EC86F750E9E
:10338C00C96FCA6BD46B640E4B6E610E4C6E740EAF
:10339C004D6E650E4E6E4F6A740E5C6E690E5D6EF0
:1033AC006D0E5E6E650E5F6E0001606B320E756F9A
:1033BC002E0E766F310E776F200E786F440E796F6C
:1033CC00610E7A6F790E7B6F730E7C6F7D6B860E40
:1033DC000501066F000E076F160E086F010E096FC0
:1033EC00780E0A6F010E0B6FABEC0BF0320E000176
:1033FC009F6F2E0EA06F320EA16F200EA26F480E83
:10340C00A36F6F0EA46F750EA56F720EA66F730E61
:10341C00A76FA86B530EB06F3A0EB16F200EB26F40
:10342C00320EB36F310EB46F3B0EB56F200EB66F0C
:10343C00200EB76F200EB86F200EB96F200EBA6F2A
:10344C00450EBB6F3A0EBC6F200EBD6F200EBE6FCB
:10345C00370EBF6FC06B320EC96F2E0ECA6F330E94
:10346C00CB6F200ECC6F540ECD6F650ECE6F6D0EE4
:10347C00CF6F700ED06F2E0ED16F200ED26F4C0E00
:10348C00D36F690ED46F6D0ED56F690ED66F740E37
:10349C00D76F730ED86FD96B4D0EDA6F690EDB6F69
:1034AC006E0EDC6F3A0EDD6F200EDE6F310EDF6FAD
:1034BC00390EE06F3B0EE16F200EE26F4D0EE36FA5
:1034CC00610EE46F780EE56F3A0EE66F200EE76F33
:0C34DC00320EE86F320EE96FEA6B12004E
:1034E80025C006F5E8EC0AF0260E0501066F000E69
:0E34F800076FE6EC08F0E0EC09F0F2D71200E6
:10350600939093928A908A9293809382C79EC79C47
:06351600380EC66E120023
:10351C00949294909598959A959C959E8B928B905D
:10352C008C9E8C9C8C9A8C986AEC00F06AEC00F067
:10353C006AEC00F08C8A8C888B824EEC00F08B92BB
:10354C006AEC00F08B824EEC00F08B926AEC00F08F
:10355C008B824EEC00F08B926AEC00F08C988B8294
:10356C004EEC00F08B926AEC00F08B824EEC00F08B
:10357C008B928C9A8C8E8B824EEC00F08B926AEC38
:10358C0000F08C9E8C888B824EEC00F08B928C9889
:10359C008B824EEC00F08B926AEC00F08B824EEC3E
:1035AC0000F08B928C888B824EEC00F08B926AEC44
:1035BC0000F08C988B824EEC00F08B928C8E8C8C65
:1035CC008C8A8C888B824EEC00F08B926AEC00F02B
:0635DC0001017D811200D7
:1035E200070E0B6E170E0C6E6A0E0D6E0D2EFED7A9
:1035F2000C2EFCD70B2EFAD70000FF0E8B6EFF0E9F
:10360200946EFF0E8C6EFF0E956E9494939A93882F
:1036120096809682968495809582958495867DDFA4
:10362200010E05011B6FB7EC01F00C0E05011B6FBB
:10363200B7EC01F0010E0201ED6F000EEE6FED0529
:10364200036E03C000F0000E016E003600900136DA
:10365200060E0024E16E030E0120E26EE66AE66ABF
:10366200000EEE1902E1040EED1903E0ED4BEE2B14
:10367200E6D70101866B010E0201ED6F000EEE6FBF
:10368200ED05006E940EE16E010EE26E0050E12631
:10369200D8B0E22AE66A000EEE1902E1070EED1931
:1036A20003E0ED4BEE2BECD74D0E0101166F6F0EC2
:1036B200176F6E0E186F640E196F610E1A6F790E06
:1036C2001B6F200E1C6F200E1D6F200E1E6F200E12
:1036D2001F6F200E206F200E216F200E226F236B92
:1036E200540E246F750E256F650E266F730E276FAD
:1036F200640E286F610E296F790E2A6F200E2B6FD0
:10370200200E2C6F200E2D6F200E2E6F200E2F6F8D
:10371200200E306F316B570E326F650E336F640EB1
:10372200346F6E0E356F730E366F640E376F610E27
:10373200386F790E396F200E3A6F200E3B6F200ED4
:103742003C6F200E3D6F200E3E6F3F6B540E406F5C
:10375200680E416F750E426F720E436F730E446FA7
:10376200640E456F610E466F790E476F200E486FEB
:10377200200E496F200E4A6F200E4B6F200E4C6FA9
:103782004D6B460E4E6F720E4F6F690E506F640E88
:10379200516F610E526F790E536F200E546F200ECF
:1037A200556F200E566F200E576F200E586F200E49
:1037B200596F200E5A6F5B6B530E5C6F610E5D6F1B
:1037C200740E5E6F750E5F6F720E606F640E616FC6
:1037D200610E626F790E636F200E646F200E656F4B
:1037E200200E666F200E676F200E686F696B530E96
:1037F2006A6F750E6B6F6E0E6C6F640E6D6F610E7D
:103802006E6F790E6F6F200E706F200E716F200E2B
:10381200726F200E736F200E746F200E756F200E64
:10382200766F776B4F0E786F460E796F460E7A6F12
:103832007B6B130E9B6F000E9C6F160E876F000E34
:10384200886F070E7C6F150E0C6F3F0EC16E780EDF
:10385200C86E58DE8AEC13F01F0E0B6E710E0C6EE2
:103862001E0E0D6E0D2EFED70C2EFCD70B2EFAD788
:103872000000260E0501066F000E076F410E086F4D
:10388200000E096F890E0A6F010E0B6F3AEC0AF0F7
:103892000EEC17F0010E0501066F010E076F640EA4
:1038A2000401EC6F640EED6F640EEE6FEF6BEC0EC5
:1038B2000501086F040E096F4EEC07F04A6A000119
:1038C200F36B010E336E000E346E8FEC0EF03A0E77
:1038D2000401F06F1A0EF16F000EF26F000EF36F1B
:1038E200020EF46F82EC0CF000C00DF17C0E0401AC
:1038F200F06F260EF16F000EF26F000EF36F010EE5
:10390200F46F82EC0CF000C00EF1700E0401F06F47
:10391200270EF16F000EF26F000EF36F010EF46FBF
:1039220082EC0CF000C082F1CE0E0401F06F2C0E7E
:10393200F16F000EF26F000EF36FF46B82EC0CF07D
:1039420000C083F13C0E0401F06F1F0EF16F000EF8
:10395200F26F000EF36F030EF46F82EC0CF000C0F6
:1039620084F1E80E0401F06F340EF16F000EF26F75
:10397200000EF36F030EF46F82EC0CF000C081F1C5
:103982000401F06BFBEC12F000C085F1F06BFBEC74
:1039920012F000C005F1F06BFBEC12F000C025F054
:1039A2000DC1F0F4E7EC0CF00EC1F0F4E7EC0CF012
:1039B20082C1F0F4E7EC0CF083C1F0F4E7EC0CF018
:1039C20084C1F0F4E7EC0CF081C1F0F4E7EC0CF008
:1039D200CD88CD9ACD92400ECE6EA20ECF6E9D9026
:1039E200CD809E90C00EF26E8B748B74DFEC0EF065
:0239F200FFD7FD
:020000040030CA
:0E000000240E3E1EFF8181FF0FC00FE00F4057
:00000001FF
