:04000000C5EF1FF039
:1000080000C01EF001C01DF002C01CF003C01BF0B0
:1000180004C01AF005C019F008C018F009C017F09C
:100028000AC016F00BC015F0E1CF23F0E2CF24F0A0
:10003800E9CF21F0EACF22F0F3CF1FF0F4CF20F080
:100048009EA007D09E90A20ECF6E400ECE6EF8EC0A
:100058000EF01FC0F3FF20C0F4FF1EC000F01DC04B
:1000680001F01CC002F01BC003F01AC004F019C054
:1000780005F018C008F017C009F016C00AF015C03E
:100088000BF021C0E9FF22C0EAFF23C0E1FF24C032
:04009800E2FF110072
:0E009C00030E0D6E0D2EFED7000000001200A8
:1000AA00026AC7B408D01F0EC514016E0150000AB7
:0C00BA0002E1FF0E026E02C000F0120016
:0E00C600C70E0D6E0D2EFED7000000001200BA
:1000D400560E0C6EB50E0D6E0D2EFED70C2EFCD7E3
:0600E40000000000120004
:1000EA000B6A0A6A096A00500402F4CF09F0F3CFD6
:1000FA0008F001500502F4CF0BF0F3CF0AF00050DC
:10010A000502F3500926F4500A22E86A0B2201502C
:10011A000402F3500926F4500A22E86A0B2208C0A6
:10012A0000F009C001F00AC002F00BC003F012008F
:10013A0005018F51FF0AD8B478D0966B96518F5D1E
:10014A00D8A073D096C500F0000E016E050E046E9D
:10015A00000E056EC5DF760E0026050E012200C0D0
:10016A0094F501C095F5000EF2BE010E0301E06F91
:10017A00F29E030E0024E96E000E0120EA6EEECF15
:10018A0001F0EECF02F0000E006E0250005C02E1B8
:10019A00015000083EE294C5E9FF95C5EAFFEECF9B
:1001AA0001F00150020A0CE1010E05019425E16EED
:1001BA00000E9521E26E010EE66E000EE66E21D06B
:1001CA000501010E9425026E000E9521036E030EA1
:1001DA009425D96E000E9521DA6E02C0E9FF03C09C
:1001EA00EAFFEECF00F0EECF01F0DE500026DE503F
:1001FA00012202C0E1FF03C0E2FF00C0E6FF01C026
:10020A00E6FF030E9425E16E000E9521E26EE66A82
:10021A00E66A0301E0B102D0F29E01D0F28E050136
:10022A0096518F1902E0962B89D77551FF0AD8B4D7
:10023A0080D0966B9651755DD8A07BD096C500F09C
:10024A00000E016E280E046E000E056E49DFE10EE7
:10025A000026030E012200C0B5F301C0B6F3220E38
:10026A000024E96E000E0120EA6EEE50030A5BE1FB
:10027A00260E0301B525D96E000EB621DA6EDECF41
:10028A0000F0000E016E050E046E000E056E28DFEA
:10029A00760E0026050E0122010E0024E96E000EDC
:1002AA000120EA6EEECF01F0EECF02F0000E006EF2
:1002BA000250005C02E10150000835E2260EB52525
:1002CA00D96E000EB621DA6EDECF00F0000E016E96
:1002DA00050E046E000E056E03DF760E0026050E6F
:1002EA000122010E0024026E000E0120036E02C0DC
:1002FA00E9FF03C0EAFFEECF00F0EECF01F0010EF6
:10030A00005E000E015A02C0E1FF03C0E2FF00C016
:10031A00E6FF01C0E6FF220EB525E16E000EB6210A
:10032A00E26E040EE66E05019651751902E0962BEF
:04033A0081D7120055
:10033E00086A080E0C6E003408360450085ED8B0F9
:0E034E0002D00826D89000360C2EF5D71200EB
:10035C000501C7BF02D08C9E01D08C8EC7BD02D0C8
:10036C008C9C01D08C8CC7BB02D08C9A01D08C8A0F
:10037C00C7B902D08C9801D08C88020133B102D05D
:10038C008B8001D08B908B8283DE8B920501C7B75B
:10039C0002D08C9E01D08C8EC7B502D08C9C01D023
:1003AC008C8CC7B302D08C9A01D08C8AC7B102D086
:1003BC008C9801D08C88020133B102D08B8001D093
:1003CC008B908B8265DE8B9233A102D07DDE01D0C7
:0403DC0074DE1200B9
:1003E0009E96C7C5C9FFC7A402D00000FCD79EB621
:1003F00002D00000FCD7C5BC02D0016A03D0C5847E
:0A040000020E016E01C000F01200B0
:10040A000501C86BC96B4CDE0050000A01E00AD036
:10041A000501C951120A02E18E0EC81903E0C84B40
:10042A00C92BF1D70501120EC95D02E18F0EC85D15
:10043A0003E37B0EC76F06D0C580C5A002D00000BB
:0A044A00FCD7C76BC7C500F0120015
:10045400C7C504F0C8C505F004C0E9FF05C0EAFF3C
:10046400EE50000A03E0044A052AF6D70501C751F5
:10047400045C026EC8510558036E02C000F003C04C
:0404840001F0120071
:100488000134083609360450085E0550D8A0053CEA
:10049800095E003601360F0E0C6E01340836093637
:1004A800045000A006D0085E0550D8A0053C095E9F
:1004B80005D008260550D8B0053C09260036013677
:1004C8000C2EEBD700B006D0045008260550D8B043
:0804D800053C0926000012009A
:1004E000C7C501F0C8C502F0C9C503F0CAC504F00C
:1004F000000E0501CC1902E1000ECB1913E0010E2C
:10050000CB5F000ECC5B03C0E9FF04C0EAFF01C073
:10051000E1FF02C0E2FFEECFE6FF014A022A034AF2
:06052000042AE6D71200D8
:10052600000E0006015ADECFE6FF0006015AFBE286
:020536001200B1
:10053800020E0C6E350E0D6E0D2EFED70C2EFCD74E
:060548000000000012009B
:0E054E00270E0D6E0D2EFED7000000001200CD
:0C055C00C582C5A202D00000FCD712002E
:10056800080E0C6EC10E0D6E0D2EFED70C2EFCD78C
:060578000000000012006B
:10057E00C7C500F00032009E0032009E0032009E81
:10058E000032009EC8C5E1FFC9C5E2FF300E00244F
:10059E00E66E0501C84BC92B0F0EC715006EC8C5F8
:0E05AE00E1FFC9C5E2FF300E0024E66E120028
:0405BC00C5841200E0
:1005C0009E96C5869EB602D00000FCD7C9CF01F02A
:1005D000C59A0501C751000AD8B4C58A9E96C58838
:0E05E0009EB602D00000FCD701C000F0120051
:1005EE00C0C5C7F5C1C5C8F52EDF00C0C2F501C034
:1005FE00C3F5002A0050C025E16E000EC121E26E47
:10060E00E66AC251C025E16EC351C121E26EC20538
:10061E00006E0050C025E96E000EC121EA6EEECFCD
:10062E00E6FF010EC25F000EC35B000EC31902E1AE
:10063E00000EC21901E0E5D7C0C5E1FFC1C5E2FF5A
:06064E00BFC5E6FF12002B
:10065400C1C501F0010E006E015004E000360090A7
:10066400FF0FFBD700C0C3F5001EBFC5E9FFC0C51F
:10067400EAFF0050EF16120EE9260050EF1672DF63
:100684000501C351EF12120EE95E54DFC351EF149A
:10069400016E0150000A03E0010EC26F01D0C26B6B
:0806A40061DFC2C500F0120085
:1006AC00AEDED00EC76F96DEC2C5C7F593DE050170
:1006BC00C36BC151C35D1DE2BFC5E9FFC0C5EAFFF5
:1006CC00EECFC4F5C351C225016E0150000A09E1F9
:1006DC000101AD5304E07F0E0501C41702D00501E2
:1006EC00C48FC4C5C7F576DE0501BF4BC02BC32B29
:0606FC00E0D75EDF1200F2
:100702000450000A08E10550000A05E1FF0E006EE0
:100712007F0E016E57D00D6A096A086A01500010F7
:10072200D8B4000C015005180A6E0ABE0D1E0B6AE1
:1007320005AE05D0041E051E042AD8B4052A01AE52
:1007420005D0001E011E002AD8B4012A015005104E
:100752000A6E0ABE10D097DE0BB020D00DAE000C90
:10076200001E011E002AD8B4012A081E091E082AEA
:10077200D8B4092A000C05AE0DD001BE07D0015035
:10078200096E0050086E016A006AE8D7016A006AC1
:10079200002A000C011E001E0B2ADDD7082AD8B43D
:1007A200092A0450085CD8A4D9D70550095CD8A4FA
:1007B200D5D7096A086A002AD8B4012A01AECED771
:0607C2000000FF0C120014
:0E07C80002013391BFC5C7F5C5DD33811200B4
:1007D600C1C501F0010E006E015004E00036009024
:1007E600FF0FFBD700C0B7F1001E00C0B8F1BFC5B0
:1007F600E9FFC0C5EAFF0050EF16120E0501BF253E
:10080600E96E0050EF1647DC0101B751EF1243DCE9
:10081600120EE95EB751EF14006E00500008FF0E8D
:10082600D8B0000E0501C26F4BDC8EDEC2C500F0EB
:020836001200AE
:10083800B7C300F0000E016E280E046E000E056EA0
:1008480050DCE10E00240301BC6F030E0120BD6FD4
:10085800BE0EE8CFE9FF030EE8CFEAFFBCC3E1FF15
:10086800BDC3E2FF220EE6CFEEFFE806FCE1000E74
:10087800E8CFE9FF000EE8CFEAFFBE0EE8CFE1FFC0
:10088800030EE8CFE2FF150EE6CFEEFFE806FCE127
:10089800D3C3F8FFD4C3F7FFD5C3F6FFD6C3F4FF1D
:1008A800D7C3F3FFD8C3EAFFD9C3E9FFDAC3E2FF2E
:0A08B800DBC3E1FFDCC3E0FF120028
:1008C200BFC501F0C0C502F0BFC503F0C0C504F04A
:1008D20003C0E9FF04C0EAFFEE50200A03E1034A25
:1008E200042AF6D703C0E9FF04C0EAFF01C0E1FF12
:1008F20002C0E2FFEECFE6FF014A022A034A042ABF
:1009020003C0E9FF04C0EAFFEE50000A01E0EAD7A3
:0C09120001C0E1FF02C0E2FFE66A120033
:10091E00C0C5E1FFC1C5E2FF200EE66E200EE66EF9
:10092E00300EE66EE66A020E0501C025C26F000E9D
:10093E00C121C36FBF51000A1AE00A0E046EBFC573
:10094E0000F0F6DC08C000F0C2C5E1FFC3C5E2FF4F
:10095E00300E0024E66E0A0E046EBFC500F0E8DC11
:10096E0000C0BFF5010EC25F000EC35BE3D71200DD
:10097E00EACFD8F3E9CFD9F3E2CFDAF3E1CFDBF365
:10098E00000EE8CFE9FF000EE8CFEAFFBE0EE8CF7B
:10099E00E1FF030EE8CFE2FF150EE806FEE1F8CF09
:1009AE00D3F3F7CFD4F3F6CFD5F3F4CFD6F3F3CF0B
:1009BE00D7F3E0CFDCF3B7C300F0000E016E280EC4
:1009CE00046E000E056E75EC00F0E10E00240301BE
:1009DE00BC6F030E0120BD6FBE0EE8CFE9FF030E04
:1009EE00E8CFEAFFBCC3E1FFBDC3E2FF220EEECFAC
:0809FE00E6FFE806FCE112002F
:100A06000F0E0501BF15026EBFC500F00032009E35
:100A16000032009E0032009E0032009E0A0E000246
:100A2600F3CF00F00250002600C0BFF500C0C0F5AD
:060A3600C0C500F0120033
:100A3C00C30EE16E050EE26EBFC5D9FFC0C5DAFF6D
:100A4C00030E006E000E016E68DDC5C5C7F5C1C58D
:100A5C00C8F5C2C5C9F58DDD020EC125E16E000ECB
:100A6C00C221E26E3A0EE66EC4C5C7F5030EC1256F
:100A7C00C86F000EC221C96F7CDD050EC125E16E69
:100A8C00000EC221E26E3A0EE66EC3C5C7F5060E25
:100A9C00C125C86F000EC221C96F6BDD080EC125C0
:0C0AAC00E16E000EC221E26EE66A12004C
:100AB8000501C16BBF5109081BE20A0E046EBFC5D0
:100AC80000F039DC00C0C1F500C0C1F5C137C191E3
:100AD800C137C191C137C191C137C1910A0E046EA6
:100AE800BFC500F028DC08C000F00050C11302D0D8
:0E0AF800BFC5C1F5C1C5C0F5C0C500F01200F4
:100B0600C30EE16E050EE26EBFC5D9FFC0C5DAFFA2
:100B1600040E006E000E016E03DDC4C5C7F5C1C527
:100B2600C8F5C2C5C9F528DD020EC125E16E000E65
:100B3600C221E26E2F0EE66EC5C5C7F5030EC125AE
:100B4600C86F000EC221C96F17DD050EC125E16E03
:100B5600000EC221E26E2F0EE66E060EC125E16E74
:100B6600000EC221E26E320EE66E070EC125E16E60
:100B7600000EC221E26E300EE66EC6C5C7F5080E3F
:100B8600C125C86F000EC221C96FF6DC0A0EC12549
:0C0B9600E16E000EC221E26EE66A120061
:100BA200BFC5C5F5C0C5C6F5C1C5C7F5C2C5C8F53F
:100BB200BFC5C9F5C0C5CAF5030E0501CB6F000E4E
:100BC200CC6F8DDC030EC525006E000EC621016EB2
:100BD20000C0C5F501C0C6F5C3C5C7F5C4C5C8F593
:100BE20000C0C9F501C0CAF5040ECB6F000ECC6F70
:040BF20076DC12009B
:100BF60009DCD00EC76FF0EC01F0C2C5C7F5F0EC0A
:100C060001F0A9DCD10E0501C76FF0EC01F005017A
:100C1600C36BC151C35D17E2C105016EC351011813
:100C260002E1C46B02D0010EC46FC4C5C7F5C5DCB2
:100C3600BFC5E1FFC0C5E2FF00C0E6FF0501BF4B2F
:0A0C4600C02BC32BE6D7B7DC120069
:100C50009D909DEC00F0FF0E0301B76F05017551EB
:100C6000FF0AD8B492D0976B9751905DD8A08DD0E1
:100C7000B80EE96E030EEA6E9751E926D8B0EA2A5B
:100C8000EE50FF0A0AE1B80EE16E030EE26E9751D4
:100C9000E126D8B0E22A75C5E6FFB80EE96E030E6C
:100CA000EA6E9751E926D8B0EA2AEECF92F5922B58
:100CB0009251755DD8A0926B92C500F0000E016E46
:100CC000280E046E000E056E75EC00F0E10E002497
:100CD000026E030E0120036E220E0224E96E000E46
:100CE0000320EA6EEECF03F003C091F5E10E00267B
:100CF000030E0122230E0024E96E000E0120EA6E8D
:100D0000EECF02F002C093F50350040AFF0ED8A400
:100D1000000E016E02509719FF0ED8A4000E006E4F
:100D200000500116B80ED96E030EDA6E9751D9260F
:100D3000D8B0DA2A9251DE18FF0ED8A4000E006E49
:100D40000150001201E1B3D79151040AFF0ED8A45B
:100D5000000E016E93519719FF0ED8A4000E006E7D
:100D6000015000160DE0B80EE16E030EE26E9751D1
:100D7000E126D8B0E22A92C5E6FF92C5B7F305D0C6
:0E0D80009751901902E0972B6FD79D801200BB
:100D8E00C1C501F0010E006E015004E00036009066
:100D9E00FF0FFBD700C0C5F5001E00C0C4F5BFC5D0
:100DAE00E9FF0050EF16120E0501BF25E96EC36B69
:100DBE00C3C501F0C2C500F0015004E00032009E30
:100DCE00FF0FFBD7010E0014016EC451EF16015038
:100DDE00000A02E0C551EF129CEC02F0C551EF1271
:100DEE00C351070A02E0C32BE3D7120EE95E63EC90
:080DFE0000F063EC00F01200AC
:100E0600C1C501F0010E006E015004E000360090ED
:100E1600FF0FFBD700C0C5F5001C0501C46FC26BF0
:100E2600BFC5E9FFC36BC451EF16120EE926C451C4
:100E3600EF164EEC00F0C551EF124EEC00F0120E1C
:100E4600E95EC551EF14006E0CE0C3C501F0010E5A
:100E5600006E015004E000360090FF0FFBD70050F3
:100E6600C21363EC00F063EC00F0C351070A02E022
:0A0E7600C32BD9D7C2C500F012004B
:100E80000501B251010A03E1800EB26F14D0B251D4
:100E9000020A03E1C00EB26F0ED0B251030A03E1A1
:100EA000940EB26F08D0B251040A03E1D40EB26FAF
:100EB00002D0800EB26FB305006EB251002600C0A2
:100EC000B2F500C0C7F5AEEC01F033910501B66B89
:100ED000B651B425E96E000EB521EA6EEE50000A57
:100EE0000CE0B651B425E96E000EB521EA6EEECFE6
:100EF000BFF56ADC0501B62BEBD702013381120086
:100F0000046A056A066A006A04B0002A00500008F4
:100F1000FF0ED8B0000E036EAE0EE96E010EEA6E43
:100F20000550E926D8B0EA2A06C001F0010E006E8D
:100F3000015004E000360090FF0FFBD70050EE1484
:100F4000026E016A0250000A02E0010E016E0150B9
:100F50000008FF0ED8B0000E026E04C000F0003290
:100F6000009E00C004F00350021802E08C0E041A28
:100F70000650070A02E0062AC6D70550080A02E012
:0A0F8000052AC0D704C000F01200DB
:100F8A000501B76BB4C502F0010E006E025005E010
:100F9A00003600900136FF0FFAD7B2C5E9FFB3C594
:100FAA00EAFF0050EE14026E016A0250000A02E0E3
:100FBA00010E016E05010150B61926E1B55100086E
:100FCA0006E2B4EC02F0B4EC02F0B507F7D7B4C508
:100FDA0002F0010E006E025005E000360090013664
:100FEA00FF0FFAD7B2C5E9FFB3C5EAFF0050EE1406
:100FFA00026E016A0250000A02E0010E016E0150FF
:0E100A00B61902E1FF0EB76FB7C500F0120075
:10101800B40E0501BF6F050EC06F070EC16FC26B1E
:10102800E6DD7F0EB4177F0EB5173F0EB617070E15
:10103800B7173F0EB8171F0EB917B2C5C7F5B3C516
:10104800C8F5B40EC96F050ECA6F070ECB6F000E38
:08105800CC6F70EC02F01200F5
:0C106000DE5003E0E66E30EF08F01200F6
:10106C00B2C5BFF5B3C5C0F5B4C5C1F52AEC03F0E4
:10107C000050000AFF0ED8A4000EB66FB2C5BFF523
:10108C00B3C5C0F5B4C5C1F5CC0EC26F7ADEB2C51E
:10109C00BFF5B3C5C0F5B4C5C1F5440EC26F71DE62
:1010AC00B5530CE00400B2C5BFF5B3C5C0F5B4C56B
:1010BC00C1F5EBEC03F0005201E1F4D7B6C500F03A
:0210CC00120010
:1010CE00000EF2BE010E0301E06FF29EFDCFDDF3C6
:1010DE00FECFDEF3FFCFDFF34BDCE0B102D0F29EAA
:1010EE0001D0F28EB7C300F0000E016E280E046E12
:1010FE00000E056E75EC00F0E10E0026030E0122C7
:10110E00220E0024E16E000E0120E26E020EE66E4B
:10111E00B7C300F0000E016E280E046E000E056EB1
:10112E0075EC00F0E10E0026030E0122240E0024C1
:10113E00E16E000E0120E26EB2C5E6FFB3C5E6FF1A
:10114E0080DD0301B751FF0A01E1FAD7000EF2BEAE
:10115E00010EE06FF29EB7C300F0000E016E280E76
:10116E00046E000E056E75EC00F0E10E0026030E07
:10117E000122220E0024E16E000E0120E26E050E09
:10118E00E66E1CEC04F0DDC3FDFFDEC3FEFFDFC325
:0E119E00FFFFE0B102D0F29E01D0F28E1200EF
:1011AC00B40E0501C76F050EC86FB2C5C9F5B3C53E
:1011BC00CAF5070ECB6F000ECC6F70EC02F001017C
:1011CC00AD5304E07F0E0501B41702D00501B48FB6
:1011DC00B40EBF6F050EC06F070EC16FC26B56EC1D
:0411EC0003F01200FA
:1011F000B2C5BFF5B3C5C0F5B4C5C1F52AEC03F05F
:10120000B2C5BFF5B3C5C0F5B4C5C1F5CC0EC26F4C
:10121000BEDDB2C5BFF5B3C5C0F5B4C5C1F5BE0EE0
:10122000C26FB5DDB76BAE0EB86F010EB96FB751B7
:10123000B827D8B0B92BB2C5BFF5B3C5C0F5B4C592
:10124000C1F5E1DDB8C5E1FFB9C5E2FF00C0E6FFC9
:10125000B751080A02E0B72BE6D7AEC1B5F5AFC16A
:0C126000B6F5B5C500F0B6C501F01200EF
:10126C00B40EE16E050EE26EB2C5D9FFB3C5DAFF5E
:10127C00070E006E000E016E93EC02F0B6C5BFF5C2
:10128C0003EC05F000C0B6F5B5C5BFF503EC05F0F1
:10129C0000C0B5F5B4C5BFF503EC05F000C0B4F55E
:1012AC00B8C5BFF503EC05F000C0B8F5B9C5BFF57E
:1012BC0003EC05F000C0B9F5BAC5BFF503EC05F0B9
:1012CC0000C0BAF5B2C5E1FFB3C5E2FFB40ED96EEA
:1012DC00050EDA6E070E006E000E016E93EC02F036
:0212EC001200EE
:1012EE000501B251FF0A54E0B2C500F0000E016EC6
:1012FE00050E046E000E056E75EC00F0760E0024E1
:10130E00E96E050E0120EA6EEECF01F00150020AE1
:10131E0019E1B2C500F0000E016E050E046E000E4E
:10132E00056E75EC00F0760E0026050E0122010EFC
:10133E000024E16E000E0120E26E010EE66E000E3C
:10134E00E66E26D0B2C500F0000E016E050E046EDC
:10135E00000E056E75EC00F0760E0026050E0122CD
:10136E00010E0024026E000E0120036E02C0E9FF82
:10137E0003C0EAFFEECF00F0EECF01F0004A012AE3
:10138E0002C0E1FF03C0E2FF00C0E6FF01C0E6FFBE
:02139E0012003B
:1013A000000EF2BE010E0301E06FF29EFDCFDDF3F1
:1013B000FECFDEF3FFCFDFF3BFEC04F0E0B102D0ED
:1013C000F29E01D0F28EB7C300F0000E016E280E1F
:1013D000046E000E056E75EC00F0E10E0026030EA3
:1013E0000122220E0024E16E000E0120E26E040EA6
:1013F000E66E2EDC0301B751FF0A01E1FAD7000EB9
:10140000F2BE010EE06FF29EB7C300F0000E016E57
:10141000280E046E000E056E75EC00F0E10E00263D
:10142000030E0122220E0024E16E000E0120E26E66
:10143000050EE66E1CEC04F0DDC3FDFFDEC3FEFF0F
:10144000DFC3FFFFE0B102D0F29E01D0F28E1200A6
:10145000B2C5BFF5B3C5C0F5B80E006E050E016E7E
:1014600000C0C1F501C0C2F5BB0E006E050E016ED5
:1014700000C0C3F501C0C4F5D1EC05F0B80E006E94
:10148000050E016E00C0BFF501C0C0F5B4C5C1F5C1
:10149000B5C5C2F51EEC05F0BB0E006E050E016E63
:1014A00000C0BFF501C0C0F5B6C5C1F5B7C5C2F5EE
:0614B00083EC05F01200C0
:1014B6000501B351800A02E1000EB21912E1B4C56A
:1014C600E1FFB5C5E2FF2D0EE66E330EE66E320E77
:1014D600E66E370EE66E360EE66E380EE66EE66A97
:1014E60061D0B86B800EB319006E800E005C02E10D
:1014F600000EB25D08E2FF0EB86FB2510008B26F7F
:10150600B351000EB357B4C5E1FFB5C5E2FF200ED7
:10151600E66E200EE66E200EE66E200EE66E200EBD
:10152600E66E300EE66EE66A050EB425B66F000E60
:10153600B521B76F000EB31902E1000EB2192AE009
:101546000A0E046E000E056EB2C500F0B3C501F0BA
:1015560081EC03F008C000F009C001F0300E00264F
:10156600B6C5E1FFB7C5E2FF00C0E6FF0A0E046E8E
:10157600000E056EB2C500F0B3C501F081EC03F0B4
:1015860000C0B2F501C0B3F5010E0501B65F000E4D
:10159600B75BD0D7B85306E0B6C5E1FFB7C5E2FFE3
:0615A6002D0EE66E12009E
:1015AC000501B251FF0A01E1BBD09D909DEC00F00A
:1015BC009D80B2C500F0000E016E050E046E000E8B
:1015CC00056E75EC00F0760E0026050E0122010E5C
:1015DC000024E96E000E0120EA6EEECF01F0EECF92
:1015EC0002F0000E006E0250005C02E10150000897
:1015FC0029E2B2C500F0000E016E050E046E000E5D
:10160C00056E75EC00F0760E0026050E0122010E1B
:10161C000024026E000E0120036E02C0E9FF03C01D
:10162C00EAFFEECF00F0EECF01F0010E005E000EEF
:10163C00015A02C0E1FF03C0E2FF00C0E6FF01C097
:10164C00E6FF6ED0000EF2BE010E0301E06FF29EBB
:10165C00FDCFDDF3FECFDEF3FFCFDFF3BFEC04F005
:10166C00E0B102D0F29E01D0F28EB7C300F0000EB2
:10167C00016E280E046E000E056E75EC00F0E10E86
:10168C000026030E0122260E0024E16E000E01201E
:10169C00E26EB2C5E6FFB7C300F0000E016E280E75
:1016AC00046E000E056E75EC00F0E10E0026030EC4
:1016BC000122220E0024E16E000E0120E26E030EC8
:1016CC00E66E28EC06F00301B751FF0A01E1F9D7E9
:1016DC00000EF2BE010EE06FF29EB7C300F0000EDA
:1016EC00016E280E046E000E056E75EC00F0E10E16
:1016FC000026030E0122220E0024E16E000E0120B2
:10170C00E26E050EE66E1CEC04F0DDC3FDFFDEC3DD
:10171C00FEFFDFC3FFFFE0B102D0F29E01D0F28EDC
:02172C001200A9
:10172E00B2C501F0B3C502F0B4C503F0B5C504F0FF
:10173E00B6C505F0B7C506F003C0E9FF04C0EAFF61
:10174E00EE50000A0FE003C0E9FF04C0EAFF01C03B
:10175E00E1FF02C0E2FFEECFE6FF014A022A034A92
:10176E00042AEAD705C0E9FF06C0EAFFEE50000AD8
:10177E000FE005C0E9FF06C0EAFF01C0E1FF02C0AD
:10178E00E2FFEECFE6FF014A022A054A062AEAD711
:0C179E0001C0E1FF02C0E2FFE66A120099
:1017AA000501B86BB3AF06D0FF0EB86FB21FB31FF7
:1017BA00B24BB32B300EB76FB2A102D0350EB76F52
:1017CA00B333B233B39FB3BDB38FB2C5BFF5B4C59C
:1017DA00C0F5B5C5C1F58FEC04F0B4C5BFF5B5C504
:1017EA00C0F561EC04F00501B85308E02D0EBF6F97
:1017FA00B4C5C0F5B5C5C1F5F7EC02F0B96BB9517E
:10180A00B425E96E000EB521EA6EEE50000802E238
:10181A00B92BF5D7B951B425E16E000EB521E26EA8
:10182A00B6C5E6FFB951010F006E0050B425E16E4E
:10183A00000EB521E26EB7C5E6FF020EB925006EAD
:10184A000050B425E16E000EB521E26EE66A120080
:10185A00B40EE16E050EE26EB2C5D9FFB3C5DAFF6A
:10186A00070E006E000E016E93EC02F0B6C5BFF5CE
:10187A005CEC05F000C0B6F5B5C5BFF55CEC05F04B
:10188A0000C0B5F5B4C5BFF55CEC05F000C0B4F511
:10189A00B8C5BFF55CEC05F000C0B8F5B9C5BFF531
:1018AA005CEC05F000C0B9F5BAC5BFF55CEC05F013
:1018BA0000C0BAF5B2C5E1FFB3C5E2FFB40ED96EF6
:1018CA00050EDA6E070E006E000E016E93EC02F042
:0218DA001200FA
:1018DC00FF0E0501A16F7551090A01E159D075512F
:1018EC00FF0A02E1756B01D0752B75C5A1F59CC57E
:1018FC0071F59DC572F59EC573F59FC574F575C5DB
:10190C0000F0000E016E280E046E000E056E75ECD4
:10191C0000F0E10E0024026E030E0120036E220E75
:10192C000224E16E000E0320E26E010EE66E030E41
:10193C00A05D02E3020EA06FA051905D02E2A0C573
:10194C0090F5230E0224E16E000E0320E26EA0C57A
:10195C00E6FF270E0224E16E000E0320E26EE66A1B
:10196C001F0E0224E16E000E0320E26E71C5E6FF2D
:10197C00200E0224E16E000E0320E26E72C5E6FF1B
:10198C00210E0224E16E000E0320E26E73C5E6FF09
:06199C00A1C500F01200DD
:1019A20005019C51755D01E22FD09D909CC500F010
:1019B200000E016E280E046E000E056E75EC00F02E
:1019C200E10E0026030E0122220E0024E96E000E13
:1019D2000120EA6EEE50010A16E19CC500F0000EED
:1019E200016E280E046E000E056E75EC00F0E10E1D
:1019F2000026030E0122220E0024E16E000E0120B9
:0A1A0200E26E040EE66E9D801200F5
:101A0C00F40E0501B26F010EB36F67EC08F0F26AC9
:101A1C008B74830E0501B26F0F0EB36FAAC3B4F5AE
:101A2C00FF0EB56F36EC08F0830EB26F0F0EB36F6E
:101A3C00AAC3B4F5F8EC08F000C0ABF301C0ACF3EA
:101A4C000301AA51010F026E0204056E05C002F0DB
:101A5C00000E036E023602900336AD0E0224D96ED0
:101A6C00030E0320DA6EDECF03F0DECF04F001505C
:101A7C00041802E103500018D8B428D1AA51010F60
:101A8C00006E0004036E03C000F0000E016E003601
:101A9C0000900136AD0E0024E16E030E0120E26EC3
:101AAC00ABC3E6FFACC3E6FF80EC07F000C0A9F3C4
:101ABC000050000837E2020E0501B26F010EB36F41
:101ACC00540E9C6F650E9D6F6D0E9E6F700E9F6F0A
:101ADC00650EA06F720EA16F610EA26F740EA36FD4
:101AEC00750EA46F720EA56F650EA66F200EA76FF4
:101AFC00430EA86F520EA96F430EAA6F200EAB6F48
:101B0C00650EAC6F720EAD6F720EAE6F6F0EAF6F67
:101B1C00720EB06FB16B9C0EB46F050EB56F40ECCE
:101B2C0007F0D0D00301AA51010F006E0004036E20
:101B3C0003C000F0000E016E003600900136AD0EB1
:101B4C000024E96E030E0120EA6EEECFB2F5EECF63
:101B5C00B3F5440E0501B46F020EB56F2C0EB66FC3
:101B6C001EDE020E0301AA5D51E2AAC300F000368C
:101B7C0000900036009000360090030E0026590E9F
:101B8C00E16E020EE26E0050E126D8B0E22A44C2A9
:101B9C00E6FFAAC300F00036009000360090003635
:101BAC000090040E0026590EE16E020EE26E0050FB
:101BBC00E126D8B0E22A45C2E6FFAAC300F00036FF
:101BCC0000900036009000360090050E0026590E4D
:101BDC00E16E020EE26E0050E126D8B0E22A46C257
:101BEC00E6FFAAC300F000360090003600900036E5
:101BFC000090060E0026590EE16E020EE26E0050A9
:101C0C00E126D8B0E22A47C2E6FF5CD0020EAA5DFC
:101C1C00026E02C000F000360090003600900036D4
:101C2C000090030E00266A0EE16E020EE26E00506A
:101C3C00E126D8B0E22A44C2E6FF020EAA5D026E8B
:101C4C0002C000F000360090003600900036009084
:101C5C00040E00266A0EE16E020EE26E0050E126C2
:101C6C00D8B0E22A45C2E6FF020EAA5D026E02C09F
:101C7C0000F0003600900036009000360090050E03
:101C8C0000266A0EE16E020EE26E0050E126D8B01C
:101C9C00E22A46C2E6FF020EAA5D026E02C000F006
:101CAC00003600900036009000360090060E00269C
:101CBC006A0EE16E020EE26E0050E126D8B0E22A06
:101CCC0047C2E6FF3EC2B2F577EC09F00301AA2B3E
:101CDC00030EAA17C00EF26ED0EC09F091D61200CA
:101CEC009D900301BB6BBBC300F0000E016E280E70
:101CFC00046E000E056E75EC00F0E10E0026030E6E
:101D0C000122220E0024E16E000E0120E26EE66A32
:101D1C00BB51090A02E0BB2BE6D7BB6BBBC300F07F
:101D2C00000E016E050E046E000E056E75EC00F0D3
:101D3C00760E0024E16E050E0120E26EE66ABB51C0
:101D4C00040A02E0BB2BEAD7FF0E05018F6F0301DB
:101D5C00BB6BB80EE16E030EE26EBB51E126D8B040
:101D6C00E22AFF0EE66EBB51020A02E0BB2BF1D752
:101D7C000501906BFF0E0301B76FFF0E0501756F28
:021D8C00120043
:101D8E009D8028EC06F00301B751FF0A01E1F9D757
:101D9E00000EF2BE010EE06FF29EB7C300F0000E11
:101DAE00016E280E046E000E056E75EC00F0E10E4D
:101DBE000026030E0122220E0024E16E000E0120E9
:101DCE00E26E050EE66E1CEC04F0DDC3FDFFDEC315
:101DDE00FEFFDFC3FFFFE0B102D0F29E01D0F28E14
:021DEE001200E1
:101DF00005017551FF0AD8B487D00201346B345104
:101E00000501755DD8A080D034C200F0000E016ECF
:101E1000280E046E000E056E75EC00F0E10E002633
:101E2000030E012200C035F201C036F2220E00245A
:101E3000E96E000E0120EA6EEECF02F00250020AB7
:101E4000FF0ED8A4000E016E0250030AFF0ED8A4A4
:101E5000000E006E015000124FE0240E02013525E5
:101E6000E96E000E3621EA6EEECF01F0EECF02F001
:101E7000000E006E0250005C02E1015000083CE2DE
:101E8000240E3525026E000E3621036E02C0E9FFD6
:101E900003C0EAFFEECF00F0EECF01F0010E005ECE
:101EA000000E015A02C0E1FF03C0E2FF00C0E6FFDE
:101EB00001C0E6FF240E3525E96E000E3621EA6EDC
:101EC000EECF01F0EECF02F0000E021802E1000E9C
:101ED000011812E1220E3525E96E000E3621EA6E58
:101EE000EE50020A09E1220E3525E16E000E362180
:101EF000E26E040EE66E00D0020134510501751940
:0A1F000003E00201342B7BD712002E
:101F0A00BDC1B2F5D6EC0AF00101AC51FF0AD8A462
:101F1A0071D00001D751000A02E1D80ED619FF0E7E
:101F2A00D8A4000E016ED751000A02E1510ED6194B
:101F3A00FF0ED8A4000E006E00500112D751000AFD
:101F4A0002E17B0ED619FF0ED8A4000E006E0050D7
:101F5A000112D751000A02E1A50ED619FF0ED8A424
:101F6A00000E006E015000120CE0255204E0FF0E34
:101F7A00266E256A05D0FF0E256E2652D8A4266A3B
:101F8A002DD0D751000A02E1270ED619FF0ED8A488
:101F9A00000E016ED751010A02E1290ED619FF0E71
:101FAA00D8A4000E006E00500112D751010A02E1B6
:101FBA00530ED619FF0ED8A4000E006E005001125F
:101FCA00D751010A02E17D0ED619FF0ED8A4000EE0
:101FDA00006E0150001202E0FF0E266E280ED62572
:101FEA00E96E000ED721EA6EEECFD6F0EECFD7F02B
:101FFA000101AC6BBF51FF0AD8A49BD00001D75195
:10200A00000A02E1D80ED619FF0ED8A4000E016EFE
:10201A00D751000A02E1510ED619FF0ED8A4000EBC
:10202A00006E00500112D751000A02E17B0ED61948
:10203A00FF0ED8A4000E006E00500112D751000AFC
:10204A0002E1A50ED619FF0ED8A4000E006E0150AB
:10205A00001225E025520CE0256AD751000A02E158
:10206A00D80ED61904E1A9C1B2F577EC09F016D059
:10207A00265204E0FF0E256E266A10D0010E0101D9
:10208A00A76F000EA86F220E0001D625E96E000E7A
:10209A00D721EA6EEECFD6F0EECFD7F048D00001C6
:1020AA00D751000A02E1270ED619FF0ED8A4000E56
:1020BA00016ED751010A02E1290ED619FF0ED8A4E2
:1020CA00000E006E00500112D751010A02E1530EB0
:1020DA00D619FF0ED8A4000E006E00500112D75177
:1020EA00010A02E17D0ED619FF0ED8A4000E006E79
:1020FA00015000120CE0266A220ED625E96E000E67
:10210A00D721EA6EEECFD6F0EECFD7F010D0010E7F
:10211A000101A76F000EA86F220E0001D625E96EF5
:10212A00000ED721EA6EEECFD6F0EECFD7F001013E
:10213A00BF6BB951FF0AD8A49ED10001D751000A3A
:10214A0002E1D80ED619D8A4B9D02652D8B49ED056
:10215A00CF0E0501B26F000EB36F36EC09F0000E18
:10216A000101A81902E1030EA7190CE10001D551DA
:10217A00630A02E1D56B05D0D551010F006E00C08C
:10218A00D5F058D0000E0101A81902E1020EA719D4
:10219A000DE10001D4510C0A03E1010ED46F05D000
:1021AA00D451010F006E00C0D4F044D0000E0101DA
:1021BA00A81902E1010EA71917E10001D405006E62
:1021CA001D0ED96E010EDA6E0050D926D8B0DA2A61
:1021DA00D351DE1803E1010ED36F05D0D351010F9D
:1021EA00006E00C0D3F026D0000E0101A81902E14A
:1021FA00040EA7190CE10001D151170A02E1D16BB3
:10220A0005D0D151010F006E00C0D1F013D0000EDD
:10221A000101A81902E1050EA7190CE10001D0512C
:10222A003B0A02E1D06B05D0D051010F006E00C00D
:10223A00D0F000D0CF0E0501B26F000EB36F2DECB7
:10224A000CF0CF0EB26F000EB36F020EB46F010E18
:10225A00B56F0B0EB66F010EB76F28EC0AF0D80EE9
:10226A00E16E000EE26E0B0ED96E010EDA6E30ECE4
:10227A0008F0E66AE90EE16E000EE26E020ED96E11
:10228A00010EDA6E30EC08F0E66A17D0255215E036
:10229A00050E046E000E056EA7C100F0A8C101F07C
:1022AA0081EC03F008C000F009C001F0010E00241F
:1022BA000101A76F000E0120A86FDBD00001D751E2
:1022CA00000A02E1510ED6193EE1265218E0010138
:1022DA00A705006E160EE16E010EE26E0050E126B1
:1022EA00D8B0E22A160EE96E010EEA6E0050E9260F
:1022FA00D8B0EA2AEE1C006E00C0E6FF23D02552B1
:10230A0016E0070E046E000E056EA7C100F0A8C104
:10231A0001F081EC03F008C000F009C001F0010EE1
:10232A0000240101A76F000E0120A86F0BD0240E14
:10233A000001D625E96E000ED721EA6EEECFD6F05F
:10234A00EECFD7F096D00001D751000A02E1A50ED0
:10235A00D61952E126522CE0000E0101A81902E119
:10236A00010EA71914E1C04BC12B800E02014119BD
:10237A00006E800E0101C119005C03E1C051020127
:10238A00405D04E240C2C0F141C2C1F110D0020175
:10239A00404B412B800E006E800E4119005C02E119
:1023AA004051320804E2320E406F000E416F23D0D2
:1023BA00255216E0020E046E000E056EA7C100F04B
:1023CA00A8C101F081EC03F008C000F009C001F0D7
:1023DA00010E00240101A76F000E0120A86F0BD087
:1023EA00240E0001D625E96E000ED721EA6EEECF43
:1023FA00D6F0EECFD7F03DD00001D751000A02E166
:10240A00270ED61903E10201421F33D00001D7512A
:10241A00010A02E1290ED61903E10201431F29D05C
:10242A000001D751010A02E1530ED6190DE10B0E34
:10243A00046E3FC200F09FEC01F008C000F00050AB
:10244A00010F02013F6F15D00001D751010A02E1C5
:10245A007D0ED61903E102013D1F0BD0240E0001A7
:10246A00D625E96E000ED721EA6EEECFD6F0EECF72
:10247A00D7F00101B96BBB51FF0AD8A48AD1000178
:10248A00D751000A02E1D80ED619D8A4B2D02652E2
:10249A00D8B49CD0CF0E0501B26F000EB36F36ECE4
:1024AA0009F0000E0101A81902E1030EA7190CE1B7
:1024BA000001D551000A03E1630ED56F04D0D5059A
:1024CA00006E00C0D5F056D0000E0101A81902E135
:1024DA00020EA7190CE10001D451010A03E10C0E06
:1024EA00D46F04D0D405006E00C0D4F043D0000EDF
:1024FA000101A81902E1010EA71916E10001D35141
:10250A00010A0DE1D405006E1D0EE96E010EEA6E98
:10251A000050E926D8B0EA2AEECFD3F004D0D3058A
:10252A00006E00C0D3F026D0000E0101A81902E106
:10253A00040EA7190CE10001D151000A03E1170E9C
:10254A00D16F04D0D105006E00C0D1F013D0000EB7
:10255A000101A81902E1050EA7190CE10001D051E9
:10256A00000A03E13B0ED06F04D0D005006E00C014
:10257A00D0F000D0CF0E0501B26F000EB36F2DEC74
:10258A000CF0CF0EB26F000EB36F020EB46F010ED5
:10259A00B56F0B0EB66F010EB76F28EC0AF0D80EA6
:1025AA00E16E000EE26E0B0ED96E010EDA6E30ECA1
:1025BA0008F0E66AE90EE16E000EE26E020ED96ECE
:1025CA00010EDA6E30EC08F0E66A12D0255210E0FD
:1025DA00000E0101A81902E1010EA71905E1050E75
:1025EA00A76F000EA86F04D0010EA75F000EA85BAC
:1025FA00CED00001D751000A02E1510ED61939E1B5
:10260A00265218E00101A705006E160EE16E010EB2
:10261A00E26E0050E126D8B0E22A160EE96E010EEB
:10262A00EA6E0050E926D8B0EA2AEE1C006E00C015
:10263A00E6FF1ED0255211E00101000EA81902E1A1
:10264A00010EA71905E1070EA76F000EA86F04D0A7
:10265A00010EA75F000EA85B0BD0260E0001D6253F
:10266A00E96E000ED721EA6EEECFD6F0EECFD7F0A4
:10267A008ED00001D751000A02E1A50ED6194EE10B
:10268A0026522DE0000E0101A81902E1010EA71938
:10269A0010E1010EC05F000EC15B800EC119006E11
:1026AA00800E005C02E1000EC05D02E2C06BC16BED
:1026BA0015D0010E0201405F000E415B800E4119E8
:1026CA00006E800E0101C119005C03E1C0510201D4
:1026DA00405D04E2C0C140F2C1C141F21ED02552A0
:1026EA0011E0000E0101A81902E1010EA71905E186
:1026FA00020EA76F000EA86F04D0010EA76F000E7E
:10270A00A86F0BD0260E0001D625E96E000ED72140
:10271A00EA6EEECFD6F0EECFD7F039D00001D7511E
:10272A00000A02E1270ED61903E10201421F2FD047
:10273A000001D751010A02E1290ED61903E102016B
:10274A00431F25D00001D751010A02E1530ED619C1
:10275A0009E102013F51010A03E10B0E3F6F01D06B
:10276A003F0715D00001D751010A02E17D0ED619A3
:10277A0003E102013D1F0BD0260E0001D625E96EAA
:10278A00000ED721EA6EEECFD6F0EECFD7F00101D8
:10279A00BB6B3EC2B2F577EC09F0D0EC09F085EFDD
:0427AA000FF012001A
:1027AE00FF0E05019D6F8F51040A01E139D08F5143
:1027BE00FF0A02E18F6B01D08F2B8FC59DF58FC560
:1027CE0000F0000E016E050E046E000E056E75EC27
:1027DE0000F0760E0026050E012200C0E1FF01C0BA
:1027EE00E2FF020EE66E9C530BE0010E0024E16E3A
:1027FE00000E0120E26E010EE66E000EE66E08D0AF
:10280E00010E0024E16E000E0120E26EE66AE66A19
:10281E00030E0024E16E000E0120E26EE66AE66A07
:06282E009DC500F0120040
:10283400320E0501B26F000EB36F67EC08F00001B1
:10284400D751000A02E1D80ED619FF0ED8A4000E03
:10285400016E2650000AFF0ED8A4000E006E01502F
:1028640000162FE0CF0E0501B26F000EB36F0CEC13
:1028740008F0CF0EB26F000EB36F020EB46F010EEC
:10288400B56F0B0EB66F010EB76F28EC0AF0D80EB9
:10289400E16E000EE26E0B0ED96E010EDA6E30ECB4
:1028A40008F0E66AE90EE16E000EE26E020ED96EE1
:1028B400010EDA6E30EC08F0E66A3EC2B2F577EC4F
:0A28C40009F0D0EC09F0B4D71200BF
:1028CE009D0E0501BF6F050EC06F080EC16FC26B66
:1028DE00FBEC05F0BF0E9F17100EA46F9D0EBF6F81
:1028EE00050EC06F080EC16FC26B56EC03F0016A85
:1028FE009DBF012A0150000AFF0ED8A4000E006EE3
:10290E0000C0ADF100C09CF57F0E9D150101AA6FB0
:06291E009CC500F0120050
:102924003EC2B2F5D6EC0AF0010E0501C76FAEEC5B
:1029340001F0010E0501B26F010EB36FD6C0B4F5FC
:10294400D7C0B5F540EC07F0020E0501B26F010ED9
:10295400B36F110E0001D6250501B46F000E0001FE
:10296400D7210501B56F40EC07F0255206E00E0EA5
:102974000501C76FAEEC01F00DD0265206E00F0E34
:102984000501C76FAEEC01F005D00C0E0501C76F51
:10299400AEEC01F026502510006ED8B428EF1AF0E2
:1029A4000001D751000A02E1D80ED619D8A489D063
:1029B400020E0501C76FAEEC01F0000E0101A8196B
:1029C40002E1010EA71906E1800E0501C76FAEEC06
:1029D40001F075D0000E0101A81902E1020EA71939
:1029E40015E1800E0501C76FAEEC01F0140E050170
:1029F400C76FAEEC01F0140E0501C76FAEEC01F029
:102A0400140E0501C76FAEEC01F059D0000E0101A0
:102A1400A81902E1030EA71929E1800E0501C76F69
:102A2400AEEC01F0140E0501C76FAEEC01F0140E0C
:102A34000501C76FAEEC01F0140E0501C76FAEECD3
:102A440001F0140E0501C76FAEEC01F0140E050180
:102A5400C76FAEEC01F0140E0501C76FAEEC01F0C8
:102A6400140E0501C76FAEEC01F029D0000E010170
:102A7400A81902E1040EA71906E1C00E0501C76FEB
:102A8400AEEC01F01CD0000E0101A81902E1050E04
:102A9400A71915E1C00E0501C76FAEEC01F0140EC5
:102AA4000501C76FAEEC01F0140E0501C76FAEEC63
:102AB40001F0140E0501C76FAEEC01F000D028EF51
:102AC4001AF00001D751000A02E1510ED6195AE159
:102AD400020E0501C76FAEEC01F0C00E0501C76F11
:102AE400AEEC01F0010E3B6F000E3C6F140E0501BD
:102AF400C76FAEEC01F0000E3C1902E10E0E3B195B
:102B040003E03B4B3C2BF2D70101A705006E160EE8
:102B1400E96E010EEA6E0050E926D8B0EA2AEE50BA
:102B2400FF0A09E1200E02012E6F4F0E2F6F4E0E89
:102B3400306F316B08D002014F0E2E6F460E2F6F8F
:102B4400460E306F316B620E0501B26F000EB36F2B
:102B54000101A705006E000E016E0E0E046E000E3C
:102B6400056E75EC00F0CC0E00240501B46F010E67
:102B74000120B56F2E0EB66F020EB76F97EC0BF0F7
:102B840028EF1AF00001D751000A02E17B0ED61992
:102B9400D8A4B0D0020E0501C76FAEEC01F0C00E90
:102BA4000501C76FAEEC01F0000E0101A81902E1A6
:102BB400010EA71914E1010E02013B6F000E3C6FD8
:102BC400140E0501C76FAEEC01F0000E3C1902E1D2
:102BD400030E3B1903E03B4B3C2BF2D713D002010D
:102BE400010E3B6F000E3C6F140E0501C76FAEEC77
:102BF40001F0000E3C1902E10F0E3B1903E03B4BC0
:102C04003C2BF2D78C0E0501B26F000EB36F9C6B98
:102C14009C0EB46F050EB56F9D6B9D0EB66F050EC1
:102C2400B76F97EC0BF08C0E0501B26F000EB36F0B
:102C34008C0EB46F000EB56F530E9C6F3A0E9D6FE1
:102C4400200E9E6F9F6B9C0EB66F050EB76F97ECB0
:102C54000BF032C2BFF5C50E0501C06F010EC16F86
:102C64008FEC04F08C0EB26F000EB36F8C0EB46F49
:102C7400000EB56FC50EB66F010EB76F97EC0BF073
:102C84008C0E0501B26F000EB36F8C0EB46F000E84
:102C9400B56F200E9C6F200E9D6F200E9E6F200E30
:102CA4009F6F200EA06F450EA16F3A0EA26F200EEB
:102CB400A36FA46B9C0EB66F050EB76F97EC0BF069
:102CC400C2C1B2F5000E0501B36FC50EB46F010E9B
:102CD400B56F5BEC0AF08C0EB26F000EB36F8C0E06
:102CE400B46F000EB56FC50EB66F010EB76F97ECDB
:102CF4000BF0ACD30001D751000A02E1A50ED6199E
:102D0400D8A4B6D0020E0501C76FAEEC01F0C00E18
:102D14000501C76FAEEC01F0000E0101A81902E134
:102D2400010EA71914E1010E02013B6F000E3C6F66
:102D3400140E0501C76FAEEC01F0000E3C1902E160
:102D4400060E3B1903E03B4B3C2BF2D713D0020198
:102D5400010E3B6F000E3C6F140E0501C76FAEEC05
:102D640001F0000E3C1902E10F0E3B1903E03B4B4E
:102D74003C2BF2D78C0E0501B26F000EB36F9C6B27
:102D84009C0EB46F050EB56F9D6B9D0EB66F050E50
:102D9400B76F97EC0BF08C0E0501B26F000EB36F9A
:102DA4008C0EB46F000EB56F4D0E9C6F610E9D6F4F
:102DB400780E9E6F3A0E9F6F200EA06FA16B9C0E33
:102DC400B66F050EB76F97EC0BF0C0C1B2F5C1C179
:102DD400B3F5C50E0501B46F010EB56F5BEC0AF0D7
:102DE4008C0EB26F000EB36F8C0EB46F000EB56F05
:102DF400C50EB66F010EB76F97EC0BF08C0E050184
:102E0400B26F000EB36F8C0EB46F000EB56F200E50
:102E14009C6F200E9D6F200E9E6F4D0E9F6F690E4E
:102E2400A06F6E0EA16F3A0EA26F200EA36FA46B5B
:102E34009C0EB66F050EB76F97EC0BF0C0C1B2F5E0
:102E4400C1C1B3F5C50E0501B46F010EB56F5BECDE
:102E54000AF08C0EB26F000EB36F8C0EB46F000EBE
:102E6400B56FC50EB66F010EB76F97EC0BF0EED2CF
:102E74000001D751000A02E1270ED619D8A484D044
:102E8400020E0501C76FAEEC01F0800E0501C76F9D
:102E9400AEEC01F0010E3B6F000E3C6F140E050109
:102EA400C76FAEEC01F0000E3C1902E10E0E3B19A7
:102EB40003E03B4B3C2BF2D7270E0501B26F000E0B
:102EC400B36F9C6B9C0EB46F050EB56F9D6B9D0E1E
:102ED400B66F050EB76F97EC0BF0270E0501B26FB6
:102EE400000EB36F270EB46F000EB56F4C0E9C6FBF
:102EF4006F0E9D6F630E9E6F6B0E9F6F650EA06FBE
:102F0400640EA16F3A0EA26F200EA36F200EA46F61
:102F1400200EA56F200EA66FA76B9C0EB66F050E34
:102F2400B76F97EC0BF00201425317E0270E05012F
:102F3400B26F000EB36F270EB46F000EB56F200E84
:102F44009C6F4F0E9D6F4E0E9E6F9F6B9C0EB66FC7
:102F5400050EB76F97EC0BF016D0270E0501B26F74
:102F6400000EB36F270EB46F000EB56F4F0E9C6F3B
:102F7400460E9D6F460E9E6F9F6B9C0EB66F050EA0
:102F8400B76F97EC0BF062D20001D751010A02E14E
:102F9400290ED619D8A476D0020E0501C76FAEEC5F
:102FA40001F0C00E0501C76FAEEC01F0010E3B6FDE
:102FB400000E3C6F140E0501C76FAEEC01F0000E5D
:102FC4003C1902E1080E3B1903E03B4B3C2BF2D7C2
:102FD4003A0E0501B26F010EB36F9C6B9C0EB46F79
:102FE400050EB56F9D6B9D0EB66F050EB76F97EC12
:102FF4000BF00201425323E03A0E0501B26F010EB9
:10300400B36F3A0EB46F010EB56F200E9C6F200E95
:103014009D6F200E9E6F200E9F6F200EA06F200EBE
:10302400A16F200EA26F4F0EA36F4E0EA46FA56B5F
:103034009C0EB66F050EB76F97EC0BF022D03A0ECC
:103044000501B26F010EB36F3A0EB46F010EB56F86
:10305400200E9C6F200E9D6F200E9E6F200E9F6F82
:10306400200EA06F200EA16F4F0EA26F460EA36F0D
:10307400460EA46FA56B9C0EB66F050EB76F97EC4A
:103084000BF0E4D10001D751010A02E1530ED61925
:10309400D8A4A6D1020E0501C76FAEEC01F0C00E94
:1030A4000501C76FAEEC01F0140E0501C76FAEEC5D
:1030B40001F03F51010A21E1410E0101646F6C0EE0
:1030C400656F6C0E666F200E676F660E686F6F0E0D
:1030D400696F750E6A6F720E6B6F200E6C6F720ED5
:1030E4006D6F6F0E6E6F6F0E6F6F6D0E706F730E70
:1030F400716F200E726F736B72D102013F51020A1D
:1031040021E1520E0101646F6F0E656F6F0E666FE1
:103114006D0E676F310E686F200E696F2B0E6A6F2C
:10312400200E6B6F520E6C6F6F0E6D6F6F0E6E6FA5
:103134006D0E6F6F320E706F200E716F200E726FF6
:10314400736B4DD102013F51030A21E1520E01017B
:10315400646F6F0E656F6F0E666F6D0E676F310E65
:10316400686F200E696F2B0E6A6F200E6B6F520E04
:103174006C6F6F0E6D6F6F0E6E6F6D0E6F6F330E23
:10318400706F200E716F200E726F736B28D1020165
:103194003F51040A21E1520E0101646F6F0E656F05
:1031A4006F0E666F6D0E676F310E686F200E696F5C
:1031B4002B0E6A6F200E6B6F520E6C6F6F0E6D6F5D
:1031C4006F0E6E6F6D0E6F6F340E706F200E716F19
:1031D400200E726F736B03D102013F51050A21E186
:1031E400520E0101646F6F0E656F6F0E666F6D0E88
:1031F400676F320E686F200E696F2B0E6A6F200E98
:103204006B6F520E6C6F6F0E6D6F6F0E6E6F6D0E77
:103214006F6F330E706F200E716F200E726F736BB1
:10322400DED002013F51060A21E1520E0101646F12
:103234006F0E656F6F0E666F6D0E676F320E686F7F
:10324400200E696F2B0E6A6F200E6B6F520E6C6F1F
:103254006F0E6D6F6F0E6E6F6D0E6F6F340E706F3D
:10326400200E716F200E726F736BB9D002013F5143
:10327400070A21E1520E0101646F6F0E656F6F0E34
:10328400666F6D0E676F330E686F200E696F2B0EBD
:103294006A6F200E6B6F520E6C6F6F0E6D6F6F0E38
:1032A4006E6F6D0E6F6F340E706F200E716F200E87
:1032B400726F736B94D002013F51080A21E1520EE0
:1032C4000101646F6F0E656F6F0E666F6D0E676F31
:1032D400310E686F200E696F6F0E6A6F6E0E6B6F22
:1032E4006C0E6C6F790E6D6F200E6E6F200E6F6F0B
:1032F400200E706F200E716F200E726F736B6FD083
:1033040002013F51090A21E1520E0101646F6F0E5F
:10331400656F6F0E666F6D0E676F320E686F200EED
:10332400696F6F0E6A6F6E0E6B6F6C0E6C6F790E39
:103334006D6F200E6E6F200E6F6F200E706F200E5B
:10334400716F200E726F736B4AD002013F510A0AEB
:1033540021E1520E0101646F6F0E656F6F0E666F8F
:103364006D0E676F330E686F200E696F6F0E6A6F94
:103374006E0E6B6F6C0E6C6F790E6D6F200E6E6F30
:10338400200E6F6F200E706F200E716F200E726F03
:10339400736B25D002013F510B0A21E1520E01014A
:1033A400646F6F0E656F6F0E666F6D0E676F340E10
:1033B400686F200E696F6F0E6A6F6E0E6B6F6C0E06
:1033C4006C6F790E6D6F200E6E6F200E6F6F200E76
:1033D400706F200E716F200E726F736B00D036D039
:1033E4000001D751010A02E17D0ED6192FE1020E28
:1033F4000501C76FAEEC01F0C00E0501C76FAEEC5E
:1034040001F0140E0501C76FAEEC01F03D530FE05F
:103414004D0E01018E6F6F0E8F6F640E906F650EEF
:10342400916F200E926F310E936F946B0ED0010149
:103434004D0E8E6F6F0E8F6F640E906F650E916FD1
:10344400200E926F320E936F946B00D0D0EC09F083
:0634540092EF14F01200DB
:10345A00140E0501B26F000EB36F67EC08F0840E0C
:10346A000501B26F0F0EB36F020EB46F010EB56F86
:10347A00010EB66FC5EC07F0005203E0FF0E010122
:10348A00AB6F840E0501B26F0F0EB36F020EB46FED
:10349A00010EB56FB66BC5EC07F00101AB51001612
:1034AA0007E0FF0EAC6FAB6BBDC1B2F577EC09F06C
:1034BA00810E0501B26F0F0EB36F040EB46F010EC9
:1034CA00B56F010EB66FC5EC07F0005203E0FF0EB0
:1034DA000101BE6F810E0501B26F0F0EB36F040EAC
:1034EA00B46F010EB56FB66BC5EC07F00101BE51A2
:1034FA00001607E0FF0EBF6FBE6BBDC1B2F577ECD9
:10350A0009F0840E0501B26F0F0EB36F010EB46F8E
:10351A00010EB56F010EB66FC5EC07F0005203E05D
:10352A00FF0E0101BC6F840E0501B26F0F0EB36F5F
:10353A00010EB46F010EB56FB66BC5EC07F0010151
:10354A00BC51001607E0FF0EB96FBC6BBDC1B2F5E6
:10355A0077EC09F0840E0501B26F0F0EB36FB46BEE
:10356A00010EB56F010EB66FC5EC07F0005203E00D
:10357A00FF0E0101BA6F840E0501B26F0F0EB36F11
:10358A00B46B010EB56FB66BC5EC07F00101BA5109
:10359A00001607E0FF0EBB6FBA6BBDC1B2F577EC40
:0A35AA0009F0D0EC09F054D712002C
:1035B4001F0E01011D6F1C0E1E6F1F0E1F6F1E0EAE
:1035C400206F1F0E216F1E0E226F1F0E236F1F0E02
:1035D400246F1E0E256F1F0E266F1E0E276F1F0EE3
:1035E400286F570E0201596F650E5A6F6C0E5B6F90
:1035F400630E5C6F6F0E5D6F6D0E5E6F650E5F6FB9
:103604002C0E606F200E616F4C0E626F610E636F43
:10361400630E646F690E656F210E666F676B830EB0
:10362400816F020E826F590E7B6F020E7C6F590EF2
:103634007D6F020E7E6F590E7F6F020E806F590EE2
:103644000001D66F020ED76F010E02013B6F000E10
:103654003C6F3B05006E000E016E2A0E046E000ED8
:10366400056E75EC00F0830E0026020E0122240E76
:10367400002405019C6F000E01209D6F02013B5147
:10368400010F006E0006000E016E2A0E046E000E7D
:10369400056E75EC00F0830E0026020E01229CC517
:1036A400E1FF9DC5E2FF00C0E6FF01C0E6FF000E9A
:1036B4003C1902E1060E3B1903E03B4B3C2BC9D7F6
:1036C400830E0301A36F020EA46F070E02013B6F6A
:1036D400000E3C6F3B0505019E6F9EC500F0000E79
:1036E400016E2A0E046E000E056E75EC00F0830E5A
:1036F4000026020E0122260E00249C6F000E0120DB
:103704009D6F9E05006E000E016E2A0E046E000E63
:10371400056E75EC00F0830E0026020E01229CC596
:10372400E1FF9DC5E2FF00C0E6FF01C0E6FF000E19
:1037340002013C1902E1020E3B1905E0010E3B5F58
:10374400000E3C5BC7D77F0EA96F030EAA6F010E54
:103754003B6F000E3C6F3B05006E000E016E2A0E9F
:10376400046E000E056E75EC00F0830E0026020E4A
:103774000122220E0024E16E000E0120E26E590E99
:10378400E66E020EE66E000E3C1902E1070E3B19CE
:1037940003E03B4B3C2BDFD7010E3B6F000E3C6F2D
:1037A4003B05006E000E016E2A0E046E000E056EBF
:1037B40075EC00F0830E0024026E020E0120036EED
:1037C400280E0224E16E000E0320E26E830E002612
:1037D400020E012200C0E6FF01C0E6FF000E3C1904
:1037E40002E1070E3B1903E03B4B3C2BD9D7D80E23
:1037F400AB6F000EAC6F510ED56F000ED66F270E57
:10380400FF6F000E0301006F290E296F010E2A6F4E
:10381400530E536F010E546F830E0001FA6F020EA4
:10382400FB6FD80EFC6F000EFD6FD80EFE6F000EFE
:10383400FF6FD80E0101006F000E016F010E02012F
:103844003B6F000E3C6F3B05006E000E016E2A0EAE
:10385400046E000E056E75EC00F0510E0026000E8D
:103864000122220E0024E16E000E0120E26EAD0E54
:10387400E66E020EE66E3B05006E000E016E2A0E29
:10388400046E000E056E75EC00F0510E0024026EFD
:10389400000E0120036E280E0224E16E000E0320A8
:1038A400E26E510E0026000E012200C0E6FF01C0A8
:1038B400E6FF000E3C1902E1030E3B1903E03B4B0B
:1038C4003C2BC1D7A50E00019F6F000EA06F510EB7
:1038D400A16F000EA26FA50E776F000E786F510EC8
:1038E400C96F000ECA6F7B0E756F000E766F7B0E6C
:1038F400CB6F000ECC6FD70E496E020E4A6E270EA8
:103904004B6E000E4C6E270E4D6E000E4E6E270E43
:103914004F6E000E506E010E01014B6F030E4C6F83
:10392400290E4D6F010E4E6F290E4F6F010E506F11
:10393400290E516F010E526F7D0E776F010E786F55
:10394400530EA16F010EA26F7D0E796F010E7A6F77
:10395400530EA36F010EA46F530E7B6F010E7C6F89
:103964007D0EA56F010EA66F2B0E756F030E766F7D
:103974002B0E9F6F030EA06F540E0201596F310E70
:103984005A6F3A0E5B6F200E5C6F200E5D6F200E37
:103994005E6F200E5F6F200E606F540E616F320EEB
:1039A400626F3A0E636F200E646F200E656F200EF7
:1039B400666F200E676F686B540E6A6F330E6B6F01
:1039C4003A0E6C6F200E6D6F200E6E6F200E6F6FAF
:1039D400200E706F200E716F540E726F340E736F61
:1039E4003A0E746F200E756F200E766F200E776F6F
:1039F400200E786F796B310E836F2E0E846F200E3C
:103A0400856F440E866F610E876F740E886F650E26
:103A1400896F2F0E8A6F540E8B6F690E8C6F6D0E2B
:103A24008D6F650E8E6F8F6B946B320EAD6F2E0E95
:103A3400AE6F200EAF6F460EB06F750EB16F6E0E87
:103A4400B26F630EB36F740EB46F690EB56F6F0E01
:103A5400B66F6E0EB76F690EB86F6E0EB96F670EE4
:103A6400BA6FBB6B200EBE6F200EBF6F200EC06FEF
:103A7400200EC16F200EC26F490EC36F6E0EC46F4D
:103A8400740EC56F650EC66F720EC76F760EC86F63
:103A9400610EC96F6C0ECA6FCB6B330ED76F2E0ECF
:103AA400D86F200ED96F4C0EDA6F6F0EDB6F630E7A
:103AB400DC6F6B0EDD6F200EDE6F530EDF6F650E55
:103AC400E06F740EE16F740EE26F690EE36F6E0EB9
:103AD400E46F670EE56F730EE66FE76BE86B340E09
:103AE4000301016F2E0E026F200E036F530E046F3D
:103AF400740E056F610E066F740E076F750E086FF6
:103B0400730E096F200E0A6F4C0E0B6F450E0C6F6F
:103B1400440E0D6F0E6B126B350E2B6F2E0E2C6F29
:103B2400200E2D6F530E2E6F740E2F6F610E306F9B
:103B34006E0E316F640E326F620E336F790E346F16
:103B4400200E356F440E366F690E376F730E386F63
:103B5400700E396F3A6B200E3C6F200E3D6F200EB5
:103B64003E6F200E3F6F530E406F650E416F740E13
:103B7400426F740E436F690E446F6E0E456F670E8D
:103B8400466F730E476F486B360E556F2E0E566F89
:103B9400200E576F4C0E586F6F0E596F670E5A6F89
:103BA4005B6B666B370E7F6F2E0E806F200E816FFE
:103BB4004D0E826F650E836F6E0E846F750E856F6A
:103BC400866B906B640E0001D86F610ED96F740E12
:103BD400DA6F650EDB6FDC6B740EE96F690EEA6FEA
:103BE4006D0EEB6F650EEC6FED6B320E516E2E0E9B
:103BF400526E310E536E200E546E440E556E610E8D
:103C0400566E790E576E730E586E596A620E050120
:103C1400B26F000EB36FCC0EB46F010EB56F2E0EE3
:103C2400B66F020EB76F97EC0BF0320E00017B6F8C
:103C34002E0E7C6F320E7D6F200E7E6F480E7F6FCE
:103C44006F0E806F750E816F720E826F730E836FAD
:103C5400846B530E8C6F3A0E8D6F200E8E6F320E66
:103C64008F6F310E906F3B0E916F200E926F200E6E
:103C7400936F200E946F200E956F200E966F450E55
:103C8400976F3A0E986F200E996F200E9A6F370E29
:103C94009B6F9C6B320EA56F2E0EA66F330EA76F13
:103CA400200EA86F540EA96F650EAA6F6D0EAB6F30
:103CB400700EAC6F2E0EAD6F200EAE6F4C0EAF6F4C
:103CC400690EB06F6D0EB16F690EB26F740EB36F83
:103CD400730EB46FB56B4D0EB66F690EB76F6E0E83
:103CE400B86F3A0EB96F200EBA6F310EBB6F390E32
:103CF400BC6F3B0EBD6F200EBE6F4D0EBF6F610ECD
:103D0400C06F780EC16F3A0EC26F200EC36F320EB1
:103D1400C46F320EC56FC66B4C0E276E6F0E286EC5
:103D2400630E296E6B0E2A6E650E2B6E640E2C6E5E
:103D34003A0E2D6E200E2E6E200E2F6E200E306E3B
:103D4400200E316E200E326E4F0E336E460E346EE0
:103D5400460E356E366A386A530E0101296F740EA9
:103D64002A6F610E2B6F740E2C6F750E2D6F730EF0
:103D74002E6F200E2F6F4C0E306F450E316F440E98
:103D8400326F3A0E336F346B200E3A6F200E3B6F56
:103D9400200E3C6F200E3D6F200E3E6F200E3F6FB5
:103DA400200E406F200E416F4F0E426F4E0E436F38
:103DB400446B360E536F2E0E546F310E556F200E1A
:103DC400566F520E576F6F0E586F6F0E596F6D0E00
:103DD4005A6F200E5B6F440E5C6F690E5D6F730E3D
:103DE4005E6F700E5F6F6C0E606F610E616F790EA7
:103DF400626F636B410E646F6C0E656F6C0E666F61
:103E0400200E676F660E686F6F0E696F750E6A6FAE
:103E1400720E6B6F200E6C6F720E6D6F6F0E6E6F85
:103E24006F0E6F6F6D0E706F730E716F726B360E57
:103E34007D6F2E0E7E6F320E7F6F200E806F440ECC
:103E4400816F690E826F730E836F700E846F6C0EB8
:103E5400856F610E866F790E876F200E886F4D0E09
:103E6400896F6F0E8A6F640E8B6F650E8C6F8D6B0E
:103E74004D0E8E6F6F0E8F6F640E906F650E916F87
:0C3E8400200E926F310E936F946B1200B1
:103E9000A9C1B2F5D6EC0AF0CF0E0501B26F000E43
:0E3EA000B36FD6EC08F0D0EC09F0F2D71200A8
:103EAE00939093928A908A9293809382C79EC79C96
:063EBE00380EC66E120072
:103EC400949294909598959A959C959E8B928B90AC
:103ED4008C9E8C9C8C9A8C986AEC00F06AEC00F0B6
:103EE4006AEC00F08C8A8C888B824EEC00F08B920A
:103EF4006AEC00F08B824EEC00F08B926AEC00F0DE
:103F04008B824EEC00F08B926AEC00F08C988B82E2
:103F14004EEC00F08B926AEC00F08B824EEC00F0D9
:103F24008B928C9A8C8E8B824EEC00F08B926AEC86
:103F340000F08C9E8C888B824EEC00F08B928C98D7
:103F44008B824EEC00F08B926AEC00F08B824EEC8C
:103F540000F08B928C888B824EEC00F08B926AEC92
:103F640000F08C988B824EEC00F08B928C8E8C8CB3
:103F74008C8A8C888B824EEC00F08B926AEC00F079
:063F84000201338112006E
:103F8A00070E0B6E170E0C6E6A0E0D6E0D2EFED7F7
:103F9A000C2EFCD70B2EFAD70000FF0E8B6EFF0EED
:103FAA00946EFF0E8C6EFF0E956E9494939A93887E
:103FBA0096809682968495809582958495867DDFF3
:103FCA00010E0501C76FAEEC01F00C0E0501C76FBB
:103FDA00AEEC01F0010E3B6F000E3C6F3B05036E29
:103FEA0003C000F0000E016E003600900136AD0EDF
:103FFA000024E16E030E0120E26EE66AE66A000E14
:10400A003C1902E1040E3B1903E03B4B3C2BE6D77B
:10401A000301AA6B010E02013B6F000E3C6F3B05C8
:10402A00006E160EE16E010EE26E0050E126D8B067
:10403A00E22AE66A000E3C1902E1070E3B1903E088
:10404A003B4B3C2BECD74D0E0101CC6F6F0ECD6F65
:10405A006E0ECE6F640ECF6F610ED06F790ED16F78
:10406A00200ED26F200ED36F200ED46F200ED56F84
:10407A00200ED66F200ED76F200ED86FD96B540E34
:10408A00DA6F750EDB6F650EDC6F730EDD6F640E13
:10409A00DE6F610EDF6F790EE06F200EE16F200E8A
:1040AA00E26F200EE36F200EE46F200EE56F200E04
:1040BA00E66FE76B570EE86F650EE96F640EEA6FFD
:1040CA006E0EEB6F730EEC6F640EED6F610EEE6F9A
:1040DA00790EEF6F200EF06F200EF16F200EF26F47
:1040EA00200EF36F200EF46FF56B540EF66F680E08
:1040FA00F76F750EF86F720EF96F730EFA6F640E22
:10410A00FB6F610EFC6F790EFD6F200EFE6F200EA5
:10411A00FF6F200E0201006F200E016F200E026F4A
:10412A00036B460E046F720E056F690E066F640EFE
:10413A00076F610E086F790E096F200E0A6F200E45
:10414A000B6F200E0C6F200E0D6F200E0E6F200EBF
:10415A000F6F200E106F116B530E126F610E136FDB
:10416A00740E146F750E156F720E166F640E176F3C
:10417A00610E186F790E196F200E1A6F200E1B6FC1
:10418A00200E1C6F200E1D6F200E1E6F1F6B530E0C
:10419A00206F750E216F6E0E226F640E236F610EF3
:1041AA00246F790E256F200E266F200E276F200EA2
:1041BA00286F200E296F200E2A6F200E2B6F200EDB
:1041CA002C6F2D6B4F0E2E6F460E2F6F460E306FD3
:1041DA00316B130E0101C06F000EC16F160E020182
:1041EA00406F000E416F070E326F150E0101C26F4C
:1041FA000201426BFF0E436F010E3F6FFF0E3D6FD0
:10420A003F0EC16E780EC86E4DDE67EC14F01F0EBD
:10421A000B6E710E0C6E1E0E0D6E0D2EFED70C2E31
:10422A00FCD70B2EFAD70000CF0E0501B26F000E95
:10423A00B36F020EB46F010EB56F0B0EB66F010E9F
:10424A00B76F28EC0AF0DAEC1AF0010E0501B26F2A
:10425A00010EB36F640E986F640E996F640E9A6FB5
:10426A009B6B980EB46F050EB56F40EC07F0266A8B
:10427A00256A010E0101A76F000EA86F76EC0EF0F9
:10428A000C0E9C6F1A0E9D6F000E9E6F000E9F6F94
:10429A00020EA06F6EEC0CF000C0C3F1340E9C6FDE
:1042AA00280E9D6F000E9E6F000E9F6F010EA06F6D
:1042BA006EEC0CF000C0C4F1240E9C6F290E9D6FA9
:1042CA00000E9E6F000E9F6F010EA06F6EEC0CF039
:1042DA0000C038F25A0E9C6F340E9D6F000E9E6F0E
:1042EA00000E9F6FA06B6EEC0CF000C039F20A0E44
:1042FA009C6F1F0E9D6F000E9E6F000E9F6F030E28
:10430A00A06F6EEC0CF000C03AF2900E9C6F3E0E5D
:10431A009D6F000E9E6F000E9F6F030EA06F6EECD6
:10432A000CF000C037F29C6BD7EC13F000C03EF2E1
:10433A009C6BD7EC13F000C0BDF19C6BD7EC13F06B
:10434A0000C0A9F1C3C19CF5D1EC0CF0C4C19CF525
:10435A00D1EC0CF038C29CF5D1EC0CF039C29CF5CA
:10436A00D1EC0CF03AC29CF5D1EC0CF037C29CF5BA
:10437A00D1EC0CF0CD88CD9ACD92400ECE6EA20E25
:10438A00CF6E9D90CD809E90C00EF26E8B748B7412
:06439A00C7EC0EF0FFD796
:020000040030CA
:0E000000240E3E1EFF8181FF0FC00FE00F4057
:00000001FF
